{
	"contracts/StakingAirdrop.sol": {
		"StakingAirdrop": {
			"abi": [
				{
					"inputs": [
						{
							"internalType": "contract IERC20",
							"name": "_stakingToken",
							"type": "address"
						},
						{
							"internalType": "contract IERC20",
							"name": "_rewardToken",
							"type": "address"
						}
					],
					"stateMutability": "nonpayable",
					"type": "constructor"
				},
				{
					"inputs": [
						{
							"internalType": "address",
							"name": "target",
							"type": "address"
						}
					],
					"name": "AddressEmptyCode",
					"type": "error"
				},
				{
					"inputs": [
						{
							"internalType": "address",
							"name": "account",
							"type": "address"
						}
					],
					"name": "AddressInsufficientBalance",
					"type": "error"
				},
				{
					"inputs": [],
					"name": "FailedInnerCall",
					"type": "error"
				},
				{
					"inputs": [
						{
							"internalType": "address",
							"name": "token",
							"type": "address"
						}
					],
					"name": "SafeERC20FailedOperation",
					"type": "error"
				},
				{
					"anonymous": false,
					"inputs": [
						{
							"indexed": true,
							"internalType": "address",
							"name": "user",
							"type": "address"
						},
						{
							"indexed": false,
							"internalType": "uint256",
							"name": "amount",
							"type": "uint256"
						},
						{
							"indexed": false,
							"internalType": "uint256",
							"name": "stakingPeriod",
							"type": "uint256"
						}
					],
					"name": "Stake",
					"type": "event"
				},
				{
					"anonymous": false,
					"inputs": [
						{
							"indexed": true,
							"internalType": "address",
							"name": "user",
							"type": "address"
						},
						{
							"indexed": false,
							"internalType": "uint256",
							"name": "amount",
							"type": "uint256"
						},
						{
							"indexed": false,
							"internalType": "uint256",
							"name": "reward",
							"type": "uint256"
						}
					],
					"name": "Unstake",
					"type": "event"
				},
				{
					"inputs": [],
					"name": "PREMIUM_THRESHOLD",
					"outputs": [
						{
							"internalType": "uint256",
							"name": "",
							"type": "uint256"
						}
					],
					"stateMutability": "view",
					"type": "function"
				},
				{
					"inputs": [],
					"name": "availableReward",
					"outputs": [
						{
							"internalType": "uint256",
							"name": "",
							"type": "uint256"
						}
					],
					"stateMutability": "view",
					"type": "function"
				},
				{
					"inputs": [
						{
							"internalType": "uint256",
							"name": "_amount",
							"type": "uint256"
						}
					],
					"name": "fundRewardPool",
					"outputs": [],
					"stateMutability": "nonpayable",
					"type": "function"
				},
				{
					"inputs": [
						{
							"internalType": "address",
							"name": "_user",
							"type": "address"
						}
					],
					"name": "getStakerInfo",
					"outputs": [
						{
							"internalType": "uint256",
							"name": "amountStaked",
							"type": "uint256"
						},
						{
							"internalType": "uint256",
							"name": "stakingPeriod",
							"type": "uint256"
						},
						{
							"internalType": "uint256",
							"name": "startTime",
							"type": "uint256"
						},
						{
							"internalType": "bool",
							"name": "hasPremium",
							"type": "bool"
						}
					],
					"stateMutability": "view",
					"type": "function"
				},
				{
					"inputs": [
						{
							"internalType": "address",
							"name": "_user",
							"type": "address"
						}
					],
					"name": "hasPremiumAccess",
					"outputs": [
						{
							"internalType": "bool",
							"name": "",
							"type": "bool"
						}
					],
					"stateMutability": "view",
					"type": "function"
				},
				{
					"inputs": [],
					"name": "rewardToken",
					"outputs": [
						{
							"internalType": "contract IERC20",
							"name": "",
							"type": "address"
						}
					],
					"stateMutability": "view",
					"type": "function"
				},
				{
					"inputs": [
						{
							"internalType": "uint256",
							"name": "_amount",
							"type": "uint256"
						},
						{
							"internalType": "uint256",
							"name": "_stakingPeriod",
							"type": "uint256"
						}
					],
					"name": "stakeTokens",
					"outputs": [],
					"stateMutability": "nonpayable",
					"type": "function"
				},
				{
					"inputs": [
						{
							"internalType": "address",
							"name": "",
							"type": "address"
						}
					],
					"name": "stakers",
					"outputs": [
						{
							"internalType": "uint256",
							"name": "amountStaked",
							"type": "uint256"
						},
						{
							"internalType": "uint256",
							"name": "stakingPeriod",
							"type": "uint256"
						},
						{
							"internalType": "uint256",
							"name": "startTime",
							"type": "uint256"
						},
						{
							"internalType": "bool",
							"name": "hasPremiumAccess",
							"type": "bool"
						}
					],
					"stateMutability": "view",
					"type": "function"
				},
				{
					"inputs": [],
					"name": "stakingToken",
					"outputs": [
						{
							"internalType": "contract IERC20",
							"name": "",
							"type": "address"
						}
					],
					"stateMutability": "view",
					"type": "function"
				},
				{
					"inputs": [],
					"name": "totalReward",
					"outputs": [
						{
							"internalType": "uint256",
							"name": "",
							"type": "uint256"
						}
					],
					"stateMutability": "view",
					"type": "function"
				},
				{
					"inputs": [],
					"name": "unstakeAndClaim",
					"outputs": [],
					"stateMutability": "nonpayable",
					"type": "function"
				}
			],
			"devdoc": {
				"details": "This contract implements a staking-based airdrop system. Users can stake ERC20 tokens,  earn rewards based on the staking duration, and get premium access if they stake above a threshold.",
				"errors": {
					"AddressEmptyCode(address)": [
						{
							"details": "There's no code at `target` (it is not a contract)."
						}
					],
					"AddressInsufficientBalance(address)": [
						{
							"details": "The ETH balance of the account is not enough to perform the operation."
						}
					],
					"FailedInnerCall()": [
						{
							"details": "A call to an address target failed. The target may have reverted."
						}
					],
					"SafeERC20FailedOperation(address)": [
						{
							"details": "An operation with an ERC20 token failed."
						}
					]
				},
				"events": {
					"Stake(address,uint256,uint256)": {
						"params": {
							"amount": "The amount of tokens staked",
							"stakingPeriod": "The duration for which tokens are staked",
							"user": "The address of the user staking tokens"
						}
					},
					"Unstake(address,uint256,uint256)": {
						"params": {
							"amount": "The amount of tokens unstaked",
							"reward": "The reward tokens claimed by the user",
							"user": "The address of the user unstaking tokens"
						}
					}
				},
				"kind": "dev",
				"methods": {
					"constructor": {
						"details": "Constructor to initialize staking and reward tokens",
						"params": {
							"_rewardToken": "The ERC20 token used for rewards",
							"_stakingToken": "The ERC20 token used for staking"
						}
					},
					"fundRewardPool(uint256)": {
						"params": {
							"_amount": "The amount of reward tokens to add to the pool"
						}
					},
					"getStakerInfo(address)": {
						"params": {
							"_user": "The address of the user"
						},
						"returns": {
							"amountStaked": "The amount of tokens staked by the user",
							"hasPremium": "True if the user has premium access, false otherwise",
							"stakingPeriod": "The duration for which the user staked tokens",
							"startTime": "The time when the staking began"
						}
					},
					"hasPremiumAccess(address)": {
						"params": {
							"_user": "The address of the user"
						},
						"returns": {
							"_0": "True if the user has premium access, false otherwise"
						}
					},
					"stakeTokens(uint256,uint256)": {
						"params": {
							"_amount": "The amount of tokens to stake",
							"_stakingPeriod": "The duration (in seconds) for which tokens are staked"
						}
					}
				},
				"title": "StakingAirdrop",
				"version": 1
			},
			"evm": {
				"assembly": "    /* \"contracts/StakingAirdrop.sol\":492:7088  contract StakingAirdrop is ReentrancyGuard {... */\n  mstore(0x40, 0x80)\n    /* \"contracts/StakingAirdrop.sol\":2246:2382  constructor(IERC20 _stakingToken, IERC20 _rewardToken) {... */\n  callvalue\n  dup1\n  iszero\n  tag_1\n  jumpi\n  revert(0x00, 0x00)\ntag_1:\n  pop\n  mload(0x40)\n  sub(codesize, bytecodeSize)\n  dup1\n  bytecodeSize\n  dup4\n  codecopy\n  dup2\n  dup2\n  add\n  0x40\n  mstore\n  dup2\n  add\n  swap1\n  tag_2\n  swap2\n  swap1\n  tag_3\n  jump\t// in\ntag_2:\n    /* \"@openzeppelin/contracts/security/ReentrancyGuard.sol\":1716:1717  1 */\n  0x01\n    /* \"@openzeppelin/contracts/security/ReentrancyGuard.sol\":1821:1828  _status */\n  0x00\n    /* \"@openzeppelin/contracts/security/ReentrancyGuard.sol\":1821:1843  _status = _NOT_ENTERED */\n  dup2\n  swap1\n  sstore\n  pop\n    /* \"contracts/StakingAirdrop.sol\":2326:2339  _stakingToken */\n  dup2\n    /* \"contracts/StakingAirdrop.sol\":2311:2323  stakingToken */\n  0x01\n  0x00\n    /* \"contracts/StakingAirdrop.sol\":2311:2339  stakingToken = _stakingToken */\n  0x0100\n  exp\n  dup2\n  sload\n  dup2\n  0xffffffffffffffffffffffffffffffffffffffff\n  mul\n  not\n  and\n  swap1\n  dup4\n  0xffffffffffffffffffffffffffffffffffffffff\n  and\n  mul\n  or\n  swap1\n  sstore\n  pop\n    /* \"contracts/StakingAirdrop.sol\":2363:2375  _rewardToken */\n  dup1\n    /* \"contracts/StakingAirdrop.sol\":2349:2360  rewardToken */\n  0x02\n  0x00\n    /* \"contracts/StakingAirdrop.sol\":2349:2375  rewardToken = _rewardToken */\n  0x0100\n  exp\n  dup2\n  sload\n  dup2\n  0xffffffffffffffffffffffffffffffffffffffff\n  mul\n  not\n  and\n  swap1\n  dup4\n  0xffffffffffffffffffffffffffffffffffffffff\n  and\n  mul\n  or\n  swap1\n  sstore\n  pop\n    /* \"contracts/StakingAirdrop.sol\":2246:2382  constructor(IERC20 _stakingToken, IERC20 _rewardToken) {... */\n  pop\n  pop\n    /* \"contracts/StakingAirdrop.sol\":492:7088  contract StakingAirdrop is ReentrancyGuard {... */\n  jump(tag_8)\n    /* \"#utility.yul\":88:205   */\ntag_10:\n    /* \"#utility.yul\":197:198   */\n  0x00\n    /* \"#utility.yul\":194:195   */\n  0x00\n    /* \"#utility.yul\":187:199   */\n  revert\n    /* \"#utility.yul\":334:460   */\ntag_12:\n    /* \"#utility.yul\":371:378   */\n  0x00\n    /* \"#utility.yul\":411:453   */\n  0xffffffffffffffffffffffffffffffffffffffff\n    /* \"#utility.yul\":404:409   */\n  dup3\n    /* \"#utility.yul\":400:454   */\n  and\n    /* \"#utility.yul\":389:454   */\n  swap1\n  pop\n    /* \"#utility.yul\":334:460   */\n  swap2\n  swap1\n  pop\n  jump\t// out\n    /* \"#utility.yul\":466:562   */\ntag_13:\n    /* \"#utility.yul\":503:510   */\n  0x00\n    /* \"#utility.yul\":532:556   */\n  tag_23\n    /* \"#utility.yul\":550:555   */\n  dup3\n    /* \"#utility.yul\":532:556   */\n  tag_12\n  jump\t// in\ntag_23:\n    /* \"#utility.yul\":521:556   */\n  swap1\n  pop\n    /* \"#utility.yul\":466:562   */\n  swap2\n  swap1\n  pop\n  jump\t// out\n    /* \"#utility.yul\":568:678   */\ntag_14:\n    /* \"#utility.yul\":619:626   */\n  0x00\n    /* \"#utility.yul\":648:672   */\n  tag_25\n    /* \"#utility.yul\":666:671   */\n  dup3\n    /* \"#utility.yul\":648:672   */\n  tag_13\n  jump\t// in\ntag_25:\n    /* \"#utility.yul\":637:672   */\n  swap1\n  pop\n    /* \"#utility.yul\":568:678   */\n  swap2\n  swap1\n  pop\n  jump\t// out\n    /* \"#utility.yul\":684:834   */\ntag_15:\n    /* \"#utility.yul\":771:809   */\n  tag_27\n    /* \"#utility.yul\":803:808   */\n  dup2\n    /* \"#utility.yul\":771:809   */\n  tag_14\n  jump\t// in\ntag_27:\n    /* \"#utility.yul\":764:769   */\n  dup2\n    /* \"#utility.yul\":761:810   */\n  eq\n    /* \"#utility.yul\":751:828   */\n  tag_28\n  jumpi\n    /* \"#utility.yul\":824:825   */\n  0x00\n    /* \"#utility.yul\":821:822   */\n  0x00\n    /* \"#utility.yul\":814:826   */\n  revert\n    /* \"#utility.yul\":751:828   */\ntag_28:\n    /* \"#utility.yul\":684:834   */\n  pop\n  jump\t// out\n    /* \"#utility.yul\":840:1011   */\ntag_16:\n    /* \"#utility.yul\":911:916   */\n  0x00\n    /* \"#utility.yul\":942:948   */\n  dup2\n    /* \"#utility.yul\":936:949   */\n  mload\n    /* \"#utility.yul\":927:949   */\n  swap1\n  pop\n    /* \"#utility.yul\":958:1005   */\n  tag_30\n    /* \"#utility.yul\":999:1004   */\n  dup2\n    /* \"#utility.yul\":958:1005   */\n  tag_15\n  jump\t// in\ntag_30:\n    /* \"#utility.yul\":840:1011   */\n  swap3\n  swap2\n  pop\n  pop\n  jump\t// out\n    /* \"#utility.yul\":1017:1580   */\ntag_3:\n    /* \"#utility.yul\":1124:1130   */\n  0x00\n    /* \"#utility.yul\":1132:1138   */\n  0x00\n    /* \"#utility.yul\":1181:1183   */\n  0x40\n    /* \"#utility.yul\":1169:1178   */\n  dup4\n    /* \"#utility.yul\":1160:1167   */\n  dup6\n    /* \"#utility.yul\":1156:1179   */\n  sub\n    /* \"#utility.yul\":1152:1184   */\n  slt\n    /* \"#utility.yul\":1149:1268   */\n  iszero\n  tag_32\n  jumpi\n    /* \"#utility.yul\":1187:1266   */\n  tag_33\n  tag_10\n  jump\t// in\ntag_33:\n    /* \"#utility.yul\":1149:1268   */\ntag_32:\n    /* \"#utility.yul\":1307:1308   */\n  0x00\n    /* \"#utility.yul\":1332:1410   */\n  tag_34\n    /* \"#utility.yul\":1402:1409   */\n  dup6\n    /* \"#utility.yul\":1393:1399   */\n  dup3\n    /* \"#utility.yul\":1382:1391   */\n  dup7\n    /* \"#utility.yul\":1378:1400   */\n  add\n    /* \"#utility.yul\":1332:1410   */\n  tag_16\n  jump\t// in\ntag_34:\n    /* \"#utility.yul\":1322:1410   */\n  swap3\n  pop\n    /* \"#utility.yul\":1278:1420   */\n  pop\n    /* \"#utility.yul\":1459:1461   */\n  0x20\n    /* \"#utility.yul\":1485:1563   */\n  tag_35\n    /* \"#utility.yul\":1555:1562   */\n  dup6\n    /* \"#utility.yul\":1546:1552   */\n  dup3\n    /* \"#utility.yul\":1535:1544   */\n  dup7\n    /* \"#utility.yul\":1531:1553   */\n  add\n    /* \"#utility.yul\":1485:1563   */\n  tag_16\n  jump\t// in\ntag_35:\n    /* \"#utility.yul\":1475:1563   */\n  swap2\n  pop\n    /* \"#utility.yul\":1430:1573   */\n  pop\n    /* \"#utility.yul\":1017:1580   */\n  swap3\n  pop\n  swap3\n  swap1\n  pop\n  jump\t// out\n    /* \"contracts/StakingAirdrop.sol\":492:7088  contract StakingAirdrop is ReentrancyGuard {... */\ntag_8:\n  dataSize(sub_0)\n  dup1\n  dataOffset(sub_0)\n  0x00\n  codecopy\n  0x00\n  return\nstop\n\nsub_0: assembly {\n        /* \"contracts/StakingAirdrop.sol\":492:7088  contract StakingAirdrop is ReentrancyGuard {... */\n      mstore(0x40, 0x80)\n      callvalue\n      dup1\n      iszero\n      tag_1\n      jumpi\n      revert(0x00, 0x00)\n    tag_1:\n      pop\n      jumpi(tag_2, lt(calldatasize, 0x04))\n      shr(0xe0, calldataload(0x00))\n      dup1\n      0x750142e6\n      gt\n      tag_14\n      jumpi\n      dup1\n      0x750142e6\n      eq\n      tag_8\n      jumpi\n      dup1\n      0x9168ae72\n      eq\n      tag_9\n      jumpi\n      dup1\n      0x9af01c2d\n      eq\n      tag_10\n      jumpi\n      dup1\n      0xa67e12a8\n      eq\n      tag_11\n      jumpi\n      dup1\n      0xf7c618c1\n      eq\n      tag_12\n      jumpi\n      dup1\n      0xf985021a\n      eq\n      tag_13\n      jumpi\n      jump(tag_2)\n    tag_14:\n      dup1\n      0x1d583e0d\n      eq\n      tag_3\n      jumpi\n      dup1\n      0x3b7b6188\n      eq\n      tag_4\n      jumpi\n      dup1\n      0x4ad84b34\n      eq\n      tag_5\n      jumpi\n      dup1\n      0x72f702f3\n      eq\n      tag_6\n      jumpi\n      dup1\n      0x733bdef0\n      eq\n      tag_7\n      jumpi\n    tag_2:\n      revert(0x00, 0x00)\n        /* \"contracts/StakingAirdrop.sol\":2528:2794  function fundRewardPool(uint256 _amount) external {... */\n    tag_3:\n      tag_15\n      0x04\n      dup1\n      calldatasize\n      sub\n      dup2\n      add\n      swap1\n      tag_16\n      swap2\n      swap1\n      tag_17\n      jump\t// in\n    tag_16:\n      tag_18\n      jump\t// in\n    tag_15:\n      stop\n        /* \"contracts/StakingAirdrop.sol\":3001:3729  function stakeTokens(uint256 _amount, uint256 _stakingPeriod) external nonReentrant {... */\n    tag_4:\n      tag_19\n      0x04\n      dup1\n      calldatasize\n      sub\n      dup2\n      add\n      swap1\n      tag_20\n      swap2\n      swap1\n      tag_21\n      jump\t// in\n    tag_20:\n      tag_22\n      jump\t// in\n    tag_19:\n      stop\n        /* \"contracts/StakingAirdrop.sol\":880:910  uint256 public availableReward */\n    tag_5:\n      tag_23\n      tag_24\n      jump\t// in\n    tag_23:\n      mload(0x40)\n      tag_25\n      swap2\n      swap1\n      tag_26\n      jump\t// in\n    tag_25:\n      mload(0x40)\n      dup1\n      swap2\n      sub\n      swap1\n      return\n        /* \"contracts/StakingAirdrop.sol\":619:645  IERC20 public stakingToken */\n    tag_6:\n      tag_27\n      tag_28\n      jump\t// in\n    tag_27:\n      mload(0x40)\n      tag_29\n      swap2\n      swap1\n      tag_30\n      jump\t// in\n    tag_29:\n      mload(0x40)\n      dup1\n      swap2\n      sub\n      swap1\n      return\n        /* \"contracts/StakingAirdrop.sol\":6643:7086  function getStakerInfo(address _user)... */\n    tag_7:\n      tag_31\n      0x04\n      dup1\n      calldatasize\n      sub\n      dup2\n      add\n      swap1\n      tag_32\n      swap2\n      swap1\n      tag_33\n      jump\t// in\n    tag_32:\n      tag_34\n      jump\t// in\n    tag_31:\n      mload(0x40)\n      tag_35\n      swap5\n      swap4\n      swap3\n      swap2\n      swap1\n      tag_36\n      jump\t// in\n    tag_35:\n      mload(0x40)\n      dup1\n      swap2\n      sub\n      swap1\n      return\n        /* \"contracts/StakingAirdrop.sol\":791:817  uint256 public totalReward */\n    tag_8:\n      tag_37\n      tag_38\n      jump\t// in\n    tag_37:\n      mload(0x40)\n      tag_39\n      swap2\n      swap1\n      tag_26\n      jump\t// in\n    tag_39:\n      mload(0x40)\n      dup1\n      swap2\n      sub\n      swap1\n      return\n        /* \"contracts/StakingAirdrop.sol\":1359:1400  mapping(address => Staker) public stakers */\n    tag_9:\n      tag_40\n      0x04\n      dup1\n      calldatasize\n      sub\n      dup2\n      add\n      swap1\n      tag_41\n      swap2\n      swap1\n      tag_33\n      jump\t// in\n    tag_41:\n      tag_42\n      jump\t// in\n    tag_40:\n      mload(0x40)\n      tag_43\n      swap5\n      swap4\n      swap3\n      swap2\n      swap1\n      tag_36\n      jump\t// in\n    tag_43:\n      mload(0x40)\n      dup1\n      swap2\n      sub\n      swap1\n      return\n        /* \"contracts/StakingAirdrop.sol\":986:1041  uint256 public constant PREMIUM_THRESHOLD = 1000 * 1e18 */\n    tag_10:\n      tag_44\n      tag_45\n      jump\t// in\n    tag_44:\n      mload(0x40)\n      tag_46\n      swap2\n      swap1\n      tag_26\n      jump\t// in\n    tag_46:\n      mload(0x40)\n      dup1\n      swap2\n      sub\n      swap1\n      return\n        /* \"contracts/StakingAirdrop.sol\":6115:6240  function hasPremiumAccess(address _user) external view returns (bool) {... */\n    tag_11:\n      tag_47\n      0x04\n      dup1\n      calldatasize\n      sub\n      dup2\n      add\n      swap1\n      tag_48\n      swap2\n      swap1\n      tag_33\n      jump\t// in\n    tag_48:\n      tag_49\n      jump\t// in\n    tag_47:\n      mload(0x40)\n      tag_50\n      swap2\n      swap1\n      tag_51\n      jump\t// in\n    tag_50:\n      mload(0x40)\n      dup1\n      swap2\n      sub\n      swap1\n      return\n        /* \"contracts/StakingAirdrop.sol\":697:722  IERC20 public rewardToken */\n    tag_12:\n      tag_52\n      tag_53\n      jump\t// in\n    tag_52:\n      mload(0x40)\n      tag_54\n      swap2\n      swap1\n      tag_30\n      jump\t// in\n    tag_54:\n      mload(0x40)\n      dup1\n      swap2\n      sub\n      swap1\n      return\n        /* \"contracts/StakingAirdrop.sol\":3829:5083  function unstakeAndClaim() external nonReentrant {... */\n    tag_13:\n      tag_55\n      tag_56\n      jump\t// in\n    tag_55:\n      stop\n        /* \"contracts/StakingAirdrop.sol\":2528:2794  function fundRewardPool(uint256 _amount) external {... */\n    tag_18:\n        /* \"contracts/StakingAirdrop.sol\":2603:2610  _amount */\n      dup1\n        /* \"contracts/StakingAirdrop.sol\":2588:2599  totalReward */\n      0x03\n      0x00\n        /* \"contracts/StakingAirdrop.sol\":2588:2610  totalReward += _amount */\n      dup3\n      dup3\n      sload\n      tag_58\n      swap2\n      swap1\n      tag_59\n      jump\t// in\n    tag_58:\n      swap3\n      pop\n      pop\n      dup2\n      swap1\n      sstore\n      pop\n        /* \"contracts/StakingAirdrop.sol\":2639:2646  _amount */\n      dup1\n        /* \"contracts/StakingAirdrop.sol\":2620:2635  availableReward */\n      0x04\n      0x00\n        /* \"contracts/StakingAirdrop.sol\":2620:2646  availableReward += _amount */\n      dup3\n      dup3\n      sload\n      tag_60\n      swap2\n      swap1\n      tag_59\n      jump\t// in\n    tag_60:\n      swap3\n      pop\n      pop\n      dup2\n      swap1\n      sstore\n      pop\n        /* \"contracts/StakingAirdrop.sol\":2723:2787  rewardToken.safeTransferFrom(msg.sender, address(this), _amount) */\n      tag_61\n        /* \"contracts/StakingAirdrop.sol\":2752:2762  msg.sender */\n      caller\n        /* \"contracts/StakingAirdrop.sol\":2772:2776  this */\n      address\n        /* \"contracts/StakingAirdrop.sol\":2779:2786  _amount */\n      dup4\n        /* \"contracts/StakingAirdrop.sol\":2723:2734  rewardToken */\n      0x02\n      0x00\n      swap1\n      sload\n      swap1\n      0x0100\n      exp\n      swap1\n      div\n      0xffffffffffffffffffffffffffffffffffffffff\n      and\n        /* \"contracts/StakingAirdrop.sol\":2723:2751  rewardToken.safeTransferFrom */\n      0xffffffffffffffffffffffffffffffffffffffff\n      and\n      tag_62\n      swap1\n        /* \"contracts/StakingAirdrop.sol\":2723:2787  rewardToken.safeTransferFrom(msg.sender, address(this), _amount) */\n      swap4\n      swap3\n      swap2\n      swap1\n      0xffffffff\n      and\n      jump\t// in\n    tag_61:\n        /* \"contracts/StakingAirdrop.sol\":2528:2794  function fundRewardPool(uint256 _amount) external {... */\n      pop\n      jump\t// out\n        /* \"contracts/StakingAirdrop.sol\":3001:3729  function stakeTokens(uint256 _amount, uint256 _stakingPeriod) external nonReentrant {... */\n    tag_22:\n        /* \"@openzeppelin/contracts/security/ReentrancyGuard.sol\":2261:2282  _nonReentrantBefore() */\n      tag_64\n        /* \"@openzeppelin/contracts/security/ReentrancyGuard.sol\":2261:2280  _nonReentrantBefore */\n      tag_65\n        /* \"@openzeppelin/contracts/security/ReentrancyGuard.sol\":2261:2282  _nonReentrantBefore() */\n      jump\t// in\n    tag_64:\n        /* \"contracts/StakingAirdrop.sol\":3095:3116  Staker storage staker */\n      0x00\n        /* \"contracts/StakingAirdrop.sol\":3119:3126  stakers */\n      0x05\n        /* \"contracts/StakingAirdrop.sol\":3119:3138  stakers[msg.sender] */\n      0x00\n        /* \"contracts/StakingAirdrop.sol\":3127:3137  msg.sender */\n      caller\n        /* \"contracts/StakingAirdrop.sol\":3119:3138  stakers[msg.sender] */\n      0xffffffffffffffffffffffffffffffffffffffff\n      and\n      0xffffffffffffffffffffffffffffffffffffffff\n      and\n      dup2\n      mstore\n      0x20\n      add\n      swap1\n      dup2\n      mstore\n      0x20\n      add\n      0x00\n      keccak256\n        /* \"contracts/StakingAirdrop.sol\":3095:3138  Staker storage staker = stakers[msg.sender] */\n      swap1\n      pop\n        /* \"contracts/StakingAirdrop.sol\":3229:3230  0 */\n      0x00\n        /* \"contracts/StakingAirdrop.sol\":3206:3212  staker */\n      dup2\n        /* \"contracts/StakingAirdrop.sol\":3206:3225  staker.amountStaked */\n      0x00\n      add\n      sload\n        /* \"contracts/StakingAirdrop.sol\":3206:3230  staker.amountStaked == 0 */\n      eq\n        /* \"contracts/StakingAirdrop.sol\":3198:3249  require(staker.amountStaked == 0, \"Already staked\") */\n      tag_67\n      jumpi\n      mload(0x40)\n      0x08c379a000000000000000000000000000000000000000000000000000000000\n      dup2\n      mstore\n      0x04\n      add\n      tag_68\n      swap1\n      tag_69\n      jump\t// in\n    tag_68:\n      mload(0x40)\n      dup1\n      swap2\n      sub\n      swap1\n      revert\n    tag_67:\n        /* \"contracts/StakingAirdrop.sol\":3319:3326  _amount */\n      dup3\n        /* \"contracts/StakingAirdrop.sol\":3297:3303  staker */\n      dup2\n        /* \"contracts/StakingAirdrop.sol\":3297:3316  staker.amountStaked */\n      0x00\n      add\n        /* \"contracts/StakingAirdrop.sol\":3297:3326  staker.amountStaked = _amount */\n      dup2\n      swap1\n      sstore\n      pop\n        /* \"contracts/StakingAirdrop.sol\":3359:3373  _stakingPeriod */\n      dup2\n        /* \"contracts/StakingAirdrop.sol\":3336:3342  staker */\n      dup2\n        /* \"contracts/StakingAirdrop.sol\":3336:3356  staker.stakingPeriod */\n      0x01\n      add\n        /* \"contracts/StakingAirdrop.sol\":3336:3373  staker.stakingPeriod = _stakingPeriod */\n      dup2\n      swap1\n      sstore\n      pop\n        /* \"contracts/StakingAirdrop.sol\":3402:3417  block.timestamp */\n      timestamp\n        /* \"contracts/StakingAirdrop.sol\":3383:3389  staker */\n      dup2\n        /* \"contracts/StakingAirdrop.sol\":3383:3399  staker.startTime */\n      0x02\n      add\n        /* \"contracts/StakingAirdrop.sol\":3383:3417  staker.startTime = block.timestamp */\n      dup2\n      swap1\n      sstore\n      pop\n        /* \"contracts/StakingAirdrop.sol\":1030:1041  1000 * 1e18 */\n      0x3635c9adc5dea00000\n        /* \"contracts/StakingAirdrop.sol\":3453:3460  _amount */\n      dup4\n        /* \"contracts/StakingAirdrop.sol\":3453:3481  _amount >= PREMIUM_THRESHOLD */\n      lt\n      iszero\n        /* \"contracts/StakingAirdrop.sol\":3427:3433  staker */\n      dup2\n        /* \"contracts/StakingAirdrop.sol\":3427:3450  staker.hasPremiumAccess */\n      0x03\n      add\n      0x00\n        /* \"contracts/StakingAirdrop.sol\":3427:3481  staker.hasPremiumAccess = _amount >= PREMIUM_THRESHOLD */\n      0x0100\n      exp\n      dup2\n      sload\n      dup2\n      0xff\n      mul\n      not\n      and\n      swap1\n      dup4\n      iszero\n      iszero\n      mul\n      or\n      swap1\n      sstore\n      pop\n        /* \"contracts/StakingAirdrop.sol\":3548:3613  stakingToken.safeTransferFrom(msg.sender, address(this), _amount) */\n      tag_70\n        /* \"contracts/StakingAirdrop.sol\":3578:3588  msg.sender */\n      caller\n        /* \"contracts/StakingAirdrop.sol\":3598:3602  this */\n      address\n        /* \"contracts/StakingAirdrop.sol\":3605:3612  _amount */\n      dup6\n        /* \"contracts/StakingAirdrop.sol\":3548:3560  stakingToken */\n      0x01\n      0x00\n      swap1\n      sload\n      swap1\n      0x0100\n      exp\n      swap1\n      div\n      0xffffffffffffffffffffffffffffffffffffffff\n      and\n        /* \"contracts/StakingAirdrop.sol\":3548:3577  stakingToken.safeTransferFrom */\n      0xffffffffffffffffffffffffffffffffffffffff\n      and\n      tag_62\n      swap1\n        /* \"contracts/StakingAirdrop.sol\":3548:3613  stakingToken.safeTransferFrom(msg.sender, address(this), _amount) */\n      swap4\n      swap3\n      swap2\n      swap1\n      0xffffffff\n      and\n      jump\t// in\n    tag_70:\n        /* \"contracts/StakingAirdrop.sol\":3686:3696  msg.sender */\n      caller\n        /* \"contracts/StakingAirdrop.sol\":3680:3722  Stake(msg.sender, _amount, _stakingPeriod) */\n      0xffffffffffffffffffffffffffffffffffffffff\n      and\n      0x5af417134f72a9d41143ace85b0a26dce6f550f894f2cbc1eeee8810603d91b6\n        /* \"contracts/StakingAirdrop.sol\":3698:3705  _amount */\n      dup5\n        /* \"contracts/StakingAirdrop.sol\":3707:3721  _stakingPeriod */\n      dup5\n        /* \"contracts/StakingAirdrop.sol\":3680:3722  Stake(msg.sender, _amount, _stakingPeriod) */\n      mload(0x40)\n      tag_71\n      swap3\n      swap2\n      swap1\n      tag_72\n      jump\t// in\n    tag_71:\n      mload(0x40)\n      dup1\n      swap2\n      sub\n      swap1\n      log2\n        /* \"contracts/StakingAirdrop.sol\":3085:3729  {... */\n      pop\n        /* \"@openzeppelin/contracts/security/ReentrancyGuard.sol\":2303:2323  _nonReentrantAfter() */\n      tag_73\n        /* \"@openzeppelin/contracts/security/ReentrancyGuard.sol\":2303:2321  _nonReentrantAfter */\n      tag_74\n        /* \"@openzeppelin/contracts/security/ReentrancyGuard.sol\":2303:2323  _nonReentrantAfter() */\n      jump\t// in\n    tag_73:\n        /* \"contracts/StakingAirdrop.sol\":3001:3729  function stakeTokens(uint256 _amount, uint256 _stakingPeriod) external nonReentrant {... */\n      pop\n      pop\n      jump\t// out\n        /* \"contracts/StakingAirdrop.sol\":880:910  uint256 public availableReward */\n    tag_24:\n      sload(0x04)\n      dup2\n      jump\t// out\n        /* \"contracts/StakingAirdrop.sol\":619:645  IERC20 public stakingToken */\n    tag_28:\n      0x01\n      0x00\n      swap1\n      sload\n      swap1\n      0x0100\n      exp\n      swap1\n      div\n      0xffffffffffffffffffffffffffffffffffffffff\n      and\n      dup2\n      jump\t// out\n        /* \"contracts/StakingAirdrop.sol\":6643:7086  function getStakerInfo(address _user)... */\n    tag_34:\n        /* \"contracts/StakingAirdrop.sol\":6741:6761  uint256 amountStaked */\n      0x00\n        /* \"contracts/StakingAirdrop.sol\":6775:6796  uint256 stakingPeriod */\n      0x00\n        /* \"contracts/StakingAirdrop.sol\":6810:6827  uint256 startTime */\n      0x00\n        /* \"contracts/StakingAirdrop.sol\":6841:6856  bool hasPremium */\n      0x00\n        /* \"contracts/StakingAirdrop.sol\":6881:6901  Staker memory staker */\n      0x00\n        /* \"contracts/StakingAirdrop.sol\":6904:6911  stakers */\n      0x05\n        /* \"contracts/StakingAirdrop.sol\":6904:6918  stakers[_user] */\n      0x00\n        /* \"contracts/StakingAirdrop.sol\":6912:6917  _user */\n      dup8\n        /* \"contracts/StakingAirdrop.sol\":6904:6918  stakers[_user] */\n      0xffffffffffffffffffffffffffffffffffffffff\n      and\n      0xffffffffffffffffffffffffffffffffffffffff\n      and\n      dup2\n      mstore\n      0x20\n      add\n      swap1\n      dup2\n      mstore\n      0x20\n      add\n      0x00\n      keccak256\n        /* \"contracts/StakingAirdrop.sol\":6881:6918  Staker memory staker = stakers[_user] */\n      mload(0x40)\n      dup1\n      0x80\n      add\n      0x40\n      mstore\n      swap1\n      dup2\n      0x00\n      dup3\n      add\n      sload\n      dup2\n      mstore\n      0x20\n      add\n      0x01\n      dup3\n      add\n      sload\n      dup2\n      mstore\n      0x20\n      add\n      0x02\n      dup3\n      add\n      sload\n      dup2\n      mstore\n      0x20\n      add\n      0x03\n      dup3\n      add\n      0x00\n      swap1\n      sload\n      swap1\n      0x0100\n      exp\n      swap1\n      div\n      0xff\n      and\n      iszero\n      iszero\n      iszero\n      iszero\n      dup2\n      mstore\n      pop\n      pop\n      swap1\n      pop\n        /* \"contracts/StakingAirdrop.sol\":6949:6955  staker */\n      dup1\n        /* \"contracts/StakingAirdrop.sol\":6949:6968  staker.amountStaked */\n      0x00\n      add\n      mload\n        /* \"contracts/StakingAirdrop.sol\":6982:6988  staker */\n      dup2\n        /* \"contracts/StakingAirdrop.sol\":6982:7002  staker.stakingPeriod */\n      0x20\n      add\n      mload\n        /* \"contracts/StakingAirdrop.sol\":7016:7022  staker */\n      dup3\n        /* \"contracts/StakingAirdrop.sol\":7016:7032  staker.startTime */\n      0x40\n      add\n      mload\n        /* \"contracts/StakingAirdrop.sol\":7046:7052  staker */\n      dup4\n        /* \"contracts/StakingAirdrop.sol\":7046:7069  staker.hasPremiumAccess */\n      0x60\n      add\n      mload\n        /* \"contracts/StakingAirdrop.sol\":6928:7079  return (... */\n      swap5\n      pop\n      swap5\n      pop\n      swap5\n      pop\n      swap5\n      pop\n      pop\n        /* \"contracts/StakingAirdrop.sol\":6643:7086  function getStakerInfo(address _user)... */\n      swap2\n      swap4\n      pop\n      swap2\n      swap4\n      jump\t// out\n        /* \"contracts/StakingAirdrop.sol\":791:817  uint256 public totalReward */\n    tag_38:\n      sload(0x03)\n      dup2\n      jump\t// out\n        /* \"contracts/StakingAirdrop.sol\":1359:1400  mapping(address => Staker) public stakers */\n    tag_42:\n      mstore(0x20, 0x05)\n      dup1\n      0x00\n      mstore\n      keccak256(0x00, 0x40)\n      0x00\n      swap2\n      pop\n      swap1\n      pop\n      dup1\n      0x00\n      add\n      sload\n      swap1\n      dup1\n      0x01\n      add\n      sload\n      swap1\n      dup1\n      0x02\n      add\n      sload\n      swap1\n      dup1\n      0x03\n      add\n      0x00\n      swap1\n      sload\n      swap1\n      0x0100\n      exp\n      swap1\n      div\n      0xff\n      and\n      swap1\n      pop\n      dup5\n      jump\t// out\n        /* \"contracts/StakingAirdrop.sol\":986:1041  uint256 public constant PREMIUM_THRESHOLD = 1000 * 1e18 */\n    tag_45:\n        /* \"contracts/StakingAirdrop.sol\":1030:1041  1000 * 1e18 */\n      0x3635c9adc5dea00000\n        /* \"contracts/StakingAirdrop.sol\":986:1041  uint256 public constant PREMIUM_THRESHOLD = 1000 * 1e18 */\n      dup2\n      jump\t// out\n        /* \"contracts/StakingAirdrop.sol\":6115:6240  function hasPremiumAccess(address _user) external view returns (bool) {... */\n    tag_49:\n        /* \"contracts/StakingAirdrop.sol\":6179:6183  bool */\n      0x00\n        /* \"contracts/StakingAirdrop.sol\":6202:6209  stakers */\n      0x05\n        /* \"contracts/StakingAirdrop.sol\":6202:6216  stakers[_user] */\n      0x00\n        /* \"contracts/StakingAirdrop.sol\":6210:6215  _user */\n      dup4\n        /* \"contracts/StakingAirdrop.sol\":6202:6216  stakers[_user] */\n      0xffffffffffffffffffffffffffffffffffffffff\n      and\n      0xffffffffffffffffffffffffffffffffffffffff\n      and\n      dup2\n      mstore\n      0x20\n      add\n      swap1\n      dup2\n      mstore\n      0x20\n      add\n      0x00\n      keccak256\n        /* \"contracts/StakingAirdrop.sol\":6202:6233  stakers[_user].hasPremiumAccess */\n      0x03\n      add\n      0x00\n      swap1\n      sload\n      swap1\n      0x0100\n      exp\n      swap1\n      div\n      0xff\n      and\n        /* \"contracts/StakingAirdrop.sol\":6195:6233  return stakers[_user].hasPremiumAccess */\n      swap1\n      pop\n        /* \"contracts/StakingAirdrop.sol\":6115:6240  function hasPremiumAccess(address _user) external view returns (bool) {... */\n      swap2\n      swap1\n      pop\n      jump\t// out\n        /* \"contracts/StakingAirdrop.sol\":697:722  IERC20 public rewardToken */\n    tag_53:\n      0x02\n      0x00\n      swap1\n      sload\n      swap1\n      0x0100\n      exp\n      swap1\n      div\n      0xffffffffffffffffffffffffffffffffffffffff\n      and\n      dup2\n      jump\t// out\n        /* \"contracts/StakingAirdrop.sol\":3829:5083  function unstakeAndClaim() external nonReentrant {... */\n    tag_56:\n        /* \"@openzeppelin/contracts/security/ReentrancyGuard.sol\":2261:2282  _nonReentrantBefore() */\n      tag_78\n        /* \"@openzeppelin/contracts/security/ReentrancyGuard.sol\":2261:2280  _nonReentrantBefore */\n      tag_65\n        /* \"@openzeppelin/contracts/security/ReentrancyGuard.sol\":2261:2282  _nonReentrantBefore() */\n      jump\t// in\n    tag_78:\n        /* \"contracts/StakingAirdrop.sol\":3888:3909  Staker storage staker */\n      0x00\n        /* \"contracts/StakingAirdrop.sol\":3912:3919  stakers */\n      0x05\n        /* \"contracts/StakingAirdrop.sol\":3912:3931  stakers[msg.sender] */\n      0x00\n        /* \"contracts/StakingAirdrop.sol\":3920:3930  msg.sender */\n      caller\n        /* \"contracts/StakingAirdrop.sol\":3912:3931  stakers[msg.sender] */\n      0xffffffffffffffffffffffffffffffffffffffff\n      and\n      0xffffffffffffffffffffffffffffffffffffffff\n      and\n      dup2\n      mstore\n      0x20\n      add\n      swap1\n      dup2\n      mstore\n      0x20\n      add\n      0x00\n      keccak256\n        /* \"contracts/StakingAirdrop.sol\":3888:3931  Staker storage staker = stakers[msg.sender] */\n      swap1\n      pop\n        /* \"contracts/StakingAirdrop.sol\":4017:4018  0 */\n      0x00\n        /* \"contracts/StakingAirdrop.sol\":3995:4001  staker */\n      dup2\n        /* \"contracts/StakingAirdrop.sol\":3995:4014  staker.amountStaked */\n      0x00\n      add\n      sload\n        /* \"contracts/StakingAirdrop.sol\":3995:4018  staker.amountStaked > 0 */\n      gt\n        /* \"contracts/StakingAirdrop.sol\":3987:4039  require(staker.amountStaked > 0, \"No tokens staked\") */\n      tag_80\n      jumpi\n      mload(0x40)\n      0x08c379a000000000000000000000000000000000000000000000000000000000\n      dup2\n      mstore\n      0x04\n      add\n      tag_81\n      swap1\n      tag_82\n      jump\t// in\n    tag_81:\n      mload(0x40)\n      dup1\n      swap2\n      sub\n      swap1\n      revert\n    tag_80:\n        /* \"contracts/StakingAirdrop.sol\":4158:4164  staker */\n      dup1\n        /* \"contracts/StakingAirdrop.sol\":4158:4178  staker.stakingPeriod */\n      0x01\n      add\n      sload\n        /* \"contracts/StakingAirdrop.sol\":4139:4145  staker */\n      dup2\n        /* \"contracts/StakingAirdrop.sol\":4139:4155  staker.startTime */\n      0x02\n      add\n      sload\n        /* \"contracts/StakingAirdrop.sol\":4139:4178  staker.startTime + staker.stakingPeriod */\n      tag_83\n      swap2\n      swap1\n      tag_59\n      jump\t// in\n    tag_83:\n        /* \"contracts/StakingAirdrop.sol\":4120:4135  block.timestamp */\n      timestamp\n        /* \"contracts/StakingAirdrop.sol\":4120:4178  block.timestamp >= staker.startTime + staker.stakingPeriod */\n      lt\n      iszero\n        /* \"contracts/StakingAirdrop.sol\":4099:4231  require(... */\n      tag_84\n      jumpi\n      mload(0x40)\n      0x08c379a000000000000000000000000000000000000000000000000000000000\n      dup2\n      mstore\n      0x04\n      add\n      tag_85\n      swap1\n      tag_86\n      jump\t// in\n    tag_85:\n      mload(0x40)\n      dup1\n      swap2\n      sub\n      swap1\n      revert\n    tag_84:\n        /* \"contracts/StakingAirdrop.sol\":4305:4319  uint256 reward */\n      0x00\n        /* \"contracts/StakingAirdrop.sol\":4322:4428  calculateReward(... */\n      tag_87\n        /* \"contracts/StakingAirdrop.sol\":4351:4357  staker */\n      dup3\n        /* \"contracts/StakingAirdrop.sol\":4351:4370  staker.amountStaked */\n      0x00\n      add\n      sload\n        /* \"contracts/StakingAirdrop.sol\":4402:4408  staker */\n      dup4\n        /* \"contracts/StakingAirdrop.sol\":4402:4418  staker.startTime */\n      0x02\n      add\n      sload\n        /* \"contracts/StakingAirdrop.sol\":4384:4399  block.timestamp */\n      timestamp\n        /* \"contracts/StakingAirdrop.sol\":4384:4418  block.timestamp - staker.startTime */\n      tag_88\n      swap2\n      swap1\n      tag_89\n      jump\t// in\n    tag_88:\n        /* \"contracts/StakingAirdrop.sol\":4322:4337  calculateReward */\n      tag_90\n        /* \"contracts/StakingAirdrop.sol\":4322:4428  calculateReward(... */\n      jump\t// in\n    tag_87:\n        /* \"contracts/StakingAirdrop.sol\":4305:4428  uint256 reward = calculateReward(... */\n      swap1\n      pop\n        /* \"contracts/StakingAirdrop.sol\":4517:4523  reward */\n      dup1\n        /* \"contracts/StakingAirdrop.sol\":4498:4513  availableReward */\n      sload(0x04)\n        /* \"contracts/StakingAirdrop.sol\":4498:4523  availableReward >= reward */\n      lt\n      iszero\n        /* \"contracts/StakingAirdrop.sol\":4490:4552  require(availableReward >= reward, \"Insufficient reward pool\") */\n      tag_91\n      jumpi\n      mload(0x40)\n      0x08c379a000000000000000000000000000000000000000000000000000000000\n      dup2\n      mstore\n      0x04\n      add\n      tag_92\n      swap1\n      tag_93\n      jump\t// in\n    tag_92:\n      mload(0x40)\n      dup1\n      swap2\n      sub\n      swap1\n      revert\n    tag_91:\n        /* \"contracts/StakingAirdrop.sol\":4610:4668  stakingToken.safeTransfer(msg.sender, staker.amountStaked) */\n      tag_94\n        /* \"contracts/StakingAirdrop.sol\":4636:4646  msg.sender */\n      caller\n        /* \"contracts/StakingAirdrop.sol\":4648:4654  staker */\n      dup4\n        /* \"contracts/StakingAirdrop.sol\":4648:4667  staker.amountStaked */\n      0x00\n      add\n      sload\n        /* \"contracts/StakingAirdrop.sol\":4610:4622  stakingToken */\n      0x01\n      0x00\n      swap1\n      sload\n      swap1\n      0x0100\n      exp\n      swap1\n      div\n      0xffffffffffffffffffffffffffffffffffffffff\n      and\n        /* \"contracts/StakingAirdrop.sol\":4610:4635  stakingToken.safeTransfer */\n      0xffffffffffffffffffffffffffffffffffffffff\n      and\n      tag_95\n      swap1\n        /* \"contracts/StakingAirdrop.sol\":4610:4668  stakingToken.safeTransfer(msg.sender, staker.amountStaked) */\n      swap3\n      swap2\n      swap1\n      0xffffffff\n      and\n      jump\t// in\n    tag_94:\n        /* \"contracts/StakingAirdrop.sol\":4721:4765  rewardToken.safeTransfer(msg.sender, reward) */\n      tag_96\n        /* \"contracts/StakingAirdrop.sol\":4746:4756  msg.sender */\n      caller\n        /* \"contracts/StakingAirdrop.sol\":4758:4764  reward */\n      dup3\n        /* \"contracts/StakingAirdrop.sol\":4721:4732  rewardToken */\n      0x02\n      0x00\n      swap1\n      sload\n      swap1\n      0x0100\n      exp\n      swap1\n      div\n      0xffffffffffffffffffffffffffffffffffffffff\n      and\n        /* \"contracts/StakingAirdrop.sol\":4721:4745  rewardToken.safeTransfer */\n      0xffffffffffffffffffffffffffffffffffffffff\n      and\n      tag_95\n      swap1\n        /* \"contracts/StakingAirdrop.sol\":4721:4765  rewardToken.safeTransfer(msg.sender, reward) */\n      swap3\n      swap2\n      swap1\n      0xffffffff\n      and\n      jump\t// in\n    tag_96:\n        /* \"contracts/StakingAirdrop.sol\":4842:4848  reward */\n      dup1\n        /* \"contracts/StakingAirdrop.sol\":4823:4838  availableReward */\n      0x04\n      0x00\n        /* \"contracts/StakingAirdrop.sol\":4823:4848  availableReward -= reward */\n      dup3\n      dup3\n      sload\n      tag_97\n      swap2\n      swap1\n      tag_89\n      jump\t// in\n    tag_97:\n      swap3\n      pop\n      pop\n      dup2\n      swap1\n      sstore\n      pop\n        /* \"contracts/StakingAirdrop.sol\":4925:4935  msg.sender */\n      caller\n        /* \"contracts/StakingAirdrop.sol\":4917:4965  Unstake(msg.sender, staker.amountStaked, reward) */\n      0xffffffffffffffffffffffffffffffffffffffff\n      and\n      0xf960dbf9e5d0682f7a298ed974e33a28b4464914b7a2bfac12ae419a9afeb280\n        /* \"contracts/StakingAirdrop.sol\":4937:4943  staker */\n      dup4\n        /* \"contracts/StakingAirdrop.sol\":4937:4956  staker.amountStaked */\n      0x00\n      add\n      sload\n        /* \"contracts/StakingAirdrop.sol\":4958:4964  reward */\n      dup4\n        /* \"contracts/StakingAirdrop.sol\":4917:4965  Unstake(msg.sender, staker.amountStaked, reward) */\n      mload(0x40)\n      tag_98\n      swap3\n      swap2\n      swap1\n      tag_72\n      jump\t// in\n    tag_98:\n      mload(0x40)\n      dup1\n      swap2\n      sub\n      swap1\n      log2\n        /* \"contracts/StakingAirdrop.sol\":5034:5035  0 */\n      0x00\n        /* \"contracts/StakingAirdrop.sol\":5012:5018  staker */\n      dup3\n        /* \"contracts/StakingAirdrop.sol\":5012:5031  staker.amountStaked */\n      0x00\n      add\n        /* \"contracts/StakingAirdrop.sol\":5012:5035  staker.amountStaked = 0 */\n      dup2\n      swap1\n      sstore\n      pop\n        /* \"contracts/StakingAirdrop.sol\":5071:5076  false */\n      0x00\n        /* \"contracts/StakingAirdrop.sol\":5045:5051  staker */\n      dup3\n        /* \"contracts/StakingAirdrop.sol\":5045:5068  staker.hasPremiumAccess */\n      0x03\n      add\n      0x00\n        /* \"contracts/StakingAirdrop.sol\":5045:5076  staker.hasPremiumAccess = false */\n      0x0100\n      exp\n      dup2\n      sload\n      dup2\n      0xff\n      mul\n      not\n      and\n      swap1\n      dup4\n      iszero\n      iszero\n      mul\n      or\n      swap1\n      sstore\n      pop\n        /* \"contracts/StakingAirdrop.sol\":3878:5083  {... */\n      pop\n      pop\n        /* \"@openzeppelin/contracts/security/ReentrancyGuard.sol\":2303:2323  _nonReentrantAfter() */\n      tag_99\n        /* \"@openzeppelin/contracts/security/ReentrancyGuard.sol\":2303:2321  _nonReentrantAfter */\n      tag_74\n        /* \"@openzeppelin/contracts/security/ReentrancyGuard.sol\":2303:2323  _nonReentrantAfter() */\n      jump\t// in\n    tag_99:\n        /* \"contracts/StakingAirdrop.sol\":3829:5083  function unstakeAndClaim() external nonReentrant {... */\n      jump\t// out\n        /* \"@openzeppelin/contracts/token/ERC20/utils/SafeERC20.sol\":1702:1890  function safeTransferFrom(IERC20 token, address from, address to, uint256 value) internal {... */\n    tag_62:\n        /* \"@openzeppelin/contracts/token/ERC20/utils/SafeERC20.sol\":1802:1883  _callOptionalReturn(token, abi.encodeCall(token.transferFrom, (from, to, value))) */\n      tag_101\n        /* \"@openzeppelin/contracts/token/ERC20/utils/SafeERC20.sol\":1822:1827  token */\n      dup5\n        /* \"@openzeppelin/contracts/token/ERC20/utils/SafeERC20.sol\":1844:1849  token */\n      dup6\n        /* \"@openzeppelin/contracts/token/ERC20/utils/SafeERC20.sol\":1844:1862  token.transferFrom */\n      0xffffffffffffffffffffffffffffffffffffffff\n      and\n      0x23b872dd\n        /* \"@openzeppelin/contracts/token/ERC20/utils/SafeERC20.sol\":1865:1869  from */\n      dup7\n        /* \"@openzeppelin/contracts/token/ERC20/utils/SafeERC20.sol\":1871:1873  to */\n      dup7\n        /* \"@openzeppelin/contracts/token/ERC20/utils/SafeERC20.sol\":1875:1880  value */\n      dup7\n        /* \"@openzeppelin/contracts/token/ERC20/utils/SafeERC20.sol\":1829:1882  abi.encodeCall(token.transferFrom, (from, to, value)) */\n      add(0x24, mload(0x40))\n      tag_102\n      swap4\n      swap3\n      swap2\n      swap1\n      tag_103\n      jump\t// in\n    tag_102:\n      mload(0x40)\n      0x20\n      dup2\n      dup4\n      sub\n      sub\n      dup2\n      mstore\n      swap1\n      0x40\n      mstore\n      swap2\n      pop\n      0xe0\n      shl\n      0x20\n      dup3\n      add\n      dup1\n      mload\n      0xffffffffffffffffffffffffffffffffffffffffffffffffffffffff\n      dup4\n      dup2\n      dup4\n      and\n      or\n      dup4\n      mstore\n      pop\n      pop\n      pop\n      pop\n        /* \"@openzeppelin/contracts/token/ERC20/utils/SafeERC20.sol\":1802:1821  _callOptionalReturn */\n      tag_104\n        /* \"@openzeppelin/contracts/token/ERC20/utils/SafeERC20.sol\":1802:1883  _callOptionalReturn(token, abi.encodeCall(token.transferFrom, (from, to, value))) */\n      jump\t// in\n    tag_101:\n        /* \"@openzeppelin/contracts/token/ERC20/utils/SafeERC20.sol\":1702:1890  function safeTransferFrom(IERC20 token, address from, address to, uint256 value) internal {... */\n      pop\n      pop\n      pop\n      pop\n      jump\t// out\n        /* \"@openzeppelin/contracts/security/ReentrancyGuard.sol\":2336:2623  function _nonReentrantBefore() private {... */\n    tag_65:\n        /* \"@openzeppelin/contracts/security/ReentrancyGuard.sol\":1759:1760  2 */\n      0x02\n        /* \"@openzeppelin/contracts/security/ReentrancyGuard.sol\":2468:2475  _status */\n      sload(0x00)\n        /* \"@openzeppelin/contracts/security/ReentrancyGuard.sol\":2468:2487  _status != _ENTERED */\n      sub\n        /* \"@openzeppelin/contracts/security/ReentrancyGuard.sol\":2460:2523  require(_status != _ENTERED, \"ReentrancyGuard: reentrant call\") */\n      tag_106\n      jumpi\n      mload(0x40)\n      0x08c379a000000000000000000000000000000000000000000000000000000000\n      dup2\n      mstore\n      0x04\n      add\n      tag_107\n      swap1\n      tag_108\n      jump\t// in\n    tag_107:\n      mload(0x40)\n      dup1\n      swap2\n      sub\n      swap1\n      revert\n    tag_106:\n        /* \"@openzeppelin/contracts/security/ReentrancyGuard.sol\":1759:1760  2 */\n      0x02\n        /* \"@openzeppelin/contracts/security/ReentrancyGuard.sol\":2598:2605  _status */\n      0x00\n        /* \"@openzeppelin/contracts/security/ReentrancyGuard.sol\":2598:2616  _status = _ENTERED */\n      dup2\n      swap1\n      sstore\n      pop\n        /* \"@openzeppelin/contracts/security/ReentrancyGuard.sol\":2336:2623  function _nonReentrantBefore() private {... */\n      jump\t// out\n        /* \"@openzeppelin/contracts/security/ReentrancyGuard.sol\":2629:2838  function _nonReentrantAfter() private {... */\n    tag_74:\n        /* \"@openzeppelin/contracts/security/ReentrancyGuard.sol\":1716:1717  1 */\n      0x01\n        /* \"@openzeppelin/contracts/security/ReentrancyGuard.sol\":2809:2816  _status */\n      0x00\n        /* \"@openzeppelin/contracts/security/ReentrancyGuard.sol\":2809:2831  _status = _NOT_ENTERED */\n      dup2\n      swap1\n      sstore\n      pop\n        /* \"@openzeppelin/contracts/security/ReentrancyGuard.sol\":2629:2838  function _nonReentrantAfter() private {... */\n      jump\t// out\n        /* \"contracts/StakingAirdrop.sol\":5397:5902  function calculateReward(uint256 _amountStaked, uint256 _elapsedTime)... */\n    tag_90:\n        /* \"contracts/StakingAirdrop.sol\":5514:5521  uint256 */\n      0x00\n        /* \"contracts/StakingAirdrop.sol\":5670:5684  uint256 reward */\n      0x00\n        /* \"contracts/StakingAirdrop.sol\":5720:5727  30 days */\n      0x278d00\n        /* \"contracts/StakingAirdrop.sol\":5704:5716  _elapsedTime */\n      dup4\n        /* \"contracts/StakingAirdrop.sol\":5688:5701  _amountStaked */\n      dup6\n        /* \"contracts/StakingAirdrop.sol\":5688:5716  _amountStaked * _elapsedTime */\n      tag_111\n      swap2\n      swap1\n      tag_112\n      jump\t// in\n    tag_111:\n        /* \"contracts/StakingAirdrop.sol\":5687:5727  (_amountStaked * _elapsedTime) / 30 days */\n      tag_113\n      swap2\n      swap1\n      tag_114\n      jump\t// in\n    tag_113:\n        /* \"contracts/StakingAirdrop.sol\":5670:5727  uint256 reward = (_amountStaked * _elapsedTime) / 30 days */\n      swap1\n      pop\n        /* \"contracts/StakingAirdrop.sol\":5806:5821  availableReward */\n      sload(0x04)\n        /* \"contracts/StakingAirdrop.sol\":5797:5803  reward */\n      dup2\n        /* \"contracts/StakingAirdrop.sol\":5797:5821  reward > availableReward */\n      gt\n        /* \"contracts/StakingAirdrop.sol\":5793:5872  if (reward > availableReward) {... */\n      iszero\n      tag_115\n      jumpi\n        /* \"contracts/StakingAirdrop.sol\":5846:5861  availableReward */\n      sload(0x04)\n        /* \"contracts/StakingAirdrop.sol\":5837:5861  reward = availableReward */\n      swap1\n      pop\n        /* \"contracts/StakingAirdrop.sol\":5793:5872  if (reward > availableReward) {... */\n    tag_115:\n        /* \"contracts/StakingAirdrop.sol\":5889:5895  reward */\n      dup1\n        /* \"contracts/StakingAirdrop.sol\":5882:5895  return reward */\n      swap2\n      pop\n      pop\n        /* \"contracts/StakingAirdrop.sol\":5397:5902  function calculateReward(uint256 _amountStaked, uint256 _elapsedTime)... */\n      swap3\n      swap2\n      pop\n      pop\n      jump\t// out\n        /* \"@openzeppelin/contracts/token/ERC20/utils/SafeERC20.sol\":1303:1463  function safeTransfer(IERC20 token, address to, uint256 value) internal {... */\n    tag_95:\n        /* \"@openzeppelin/contracts/token/ERC20/utils/SafeERC20.sol\":1385:1456  _callOptionalReturn(token, abi.encodeCall(token.transfer, (to, value))) */\n      tag_117\n        /* \"@openzeppelin/contracts/token/ERC20/utils/SafeERC20.sol\":1405:1410  token */\n      dup4\n        /* \"@openzeppelin/contracts/token/ERC20/utils/SafeERC20.sol\":1427:1432  token */\n      dup5\n        /* \"@openzeppelin/contracts/token/ERC20/utils/SafeERC20.sol\":1427:1441  token.transfer */\n      0xffffffffffffffffffffffffffffffffffffffff\n      and\n      0xa9059cbb\n        /* \"@openzeppelin/contracts/token/ERC20/utils/SafeERC20.sol\":1444:1446  to */\n      dup6\n        /* \"@openzeppelin/contracts/token/ERC20/utils/SafeERC20.sol\":1448:1453  value */\n      dup6\n        /* \"@openzeppelin/contracts/token/ERC20/utils/SafeERC20.sol\":1412:1455  abi.encodeCall(token.transfer, (to, value)) */\n      add(0x24, mload(0x40))\n      tag_118\n      swap3\n      swap2\n      swap1\n      tag_119\n      jump\t// in\n    tag_118:\n      mload(0x40)\n      0x20\n      dup2\n      dup4\n      sub\n      sub\n      dup2\n      mstore\n      swap1\n      0x40\n      mstore\n      swap2\n      pop\n      0xe0\n      shl\n      0x20\n      dup3\n      add\n      dup1\n      mload\n      0xffffffffffffffffffffffffffffffffffffffffffffffffffffffff\n      dup4\n      dup2\n      dup4\n      and\n      or\n      dup4\n      mstore\n      pop\n      pop\n      pop\n      pop\n        /* \"@openzeppelin/contracts/token/ERC20/utils/SafeERC20.sol\":1385:1404  _callOptionalReturn */\n      tag_104\n        /* \"@openzeppelin/contracts/token/ERC20/utils/SafeERC20.sol\":1385:1456  _callOptionalReturn(token, abi.encodeCall(token.transfer, (to, value))) */\n      jump\t// in\n    tag_117:\n        /* \"@openzeppelin/contracts/token/ERC20/utils/SafeERC20.sol\":1303:1463  function safeTransfer(IERC20 token, address to, uint256 value) internal {... */\n      pop\n      pop\n      pop\n      jump\t// out\n        /* \"@openzeppelin/contracts/token/ERC20/utils/SafeERC20.sol\":4059:4688  function _callOptionalReturn(IERC20 token, bytes memory data) private {... */\n    tag_104:\n        /* \"@openzeppelin/contracts/token/ERC20/utils/SafeERC20.sol\":4478:4501  bytes memory returndata */\n      0x00\n        /* \"@openzeppelin/contracts/token/ERC20/utils/SafeERC20.sol\":4504:4537  address(token).functionCall(data) */\n      tag_121\n        /* \"@openzeppelin/contracts/token/ERC20/utils/SafeERC20.sol\":4532:4536  data */\n      dup3\n        /* \"@openzeppelin/contracts/token/ERC20/utils/SafeERC20.sol\":4512:4517  token */\n      dup5\n        /* \"@openzeppelin/contracts/token/ERC20/utils/SafeERC20.sol\":4504:4531  address(token).functionCall */\n      0xffffffffffffffffffffffffffffffffffffffff\n      and\n      tag_122\n      swap1\n        /* \"@openzeppelin/contracts/token/ERC20/utils/SafeERC20.sol\":4504:4537  address(token).functionCall(data) */\n      swap2\n      swap1\n      0xffffffff\n      and\n      jump\t// in\n    tag_121:\n        /* \"@openzeppelin/contracts/token/ERC20/utils/SafeERC20.sol\":4478:4537  bytes memory returndata = address(token).functionCall(data) */\n      swap1\n      pop\n        /* \"@openzeppelin/contracts/token/ERC20/utils/SafeERC20.sol\":4572:4573  0 */\n      0x00\n        /* \"@openzeppelin/contracts/token/ERC20/utils/SafeERC20.sol\":4551:4561  returndata */\n      dup2\n        /* \"@openzeppelin/contracts/token/ERC20/utils/SafeERC20.sol\":4551:4568  returndata.length */\n      mload\n        /* \"@openzeppelin/contracts/token/ERC20/utils/SafeERC20.sol\":4551:4573  returndata.length != 0 */\n      eq\n      iszero\n        /* \"@openzeppelin/contracts/token/ERC20/utils/SafeERC20.sol\":4551:4608  returndata.length != 0 && !abi.decode(returndata, (bool)) */\n      dup1\n      iszero\n      tag_123\n      jumpi\n      pop\n        /* \"@openzeppelin/contracts/token/ERC20/utils/SafeERC20.sol\":4589:4599  returndata */\n      dup1\n        /* \"@openzeppelin/contracts/token/ERC20/utils/SafeERC20.sol\":4578:4608  abi.decode(returndata, (bool)) */\n      dup1\n      0x20\n      add\n      swap1\n      mload\n      dup2\n      add\n      swap1\n      tag_124\n      swap2\n      swap1\n      tag_125\n      jump\t// in\n    tag_124:\n        /* \"@openzeppelin/contracts/token/ERC20/utils/SafeERC20.sol\":4577:4608  !abi.decode(returndata, (bool)) */\n      iszero\n        /* \"@openzeppelin/contracts/token/ERC20/utils/SafeERC20.sol\":4551:4608  returndata.length != 0 && !abi.decode(returndata, (bool)) */\n    tag_123:\n        /* \"@openzeppelin/contracts/token/ERC20/utils/SafeERC20.sol\":4547:4682  if (returndata.length != 0 && !abi.decode(returndata, (bool))) {... */\n      iszero\n      tag_126\n      jumpi\n        /* \"@openzeppelin/contracts/token/ERC20/utils/SafeERC20.sol\":4664:4669  token */\n      dup3\n        /* \"@openzeppelin/contracts/token/ERC20/utils/SafeERC20.sol\":4631:4671  SafeERC20FailedOperation(address(token)) */\n      mload(0x40)\n      0x5274afe700000000000000000000000000000000000000000000000000000000\n      dup2\n      mstore\n      0x04\n      add\n      tag_127\n      swap2\n      swap1\n      tag_128\n      jump\t// in\n    tag_127:\n      mload(0x40)\n      dup1\n      swap2\n      sub\n      swap1\n      revert\n        /* \"@openzeppelin/contracts/token/ERC20/utils/SafeERC20.sol\":4547:4682  if (returndata.length != 0 && !abi.decode(returndata, (bool))) {... */\n    tag_126:\n        /* \"@openzeppelin/contracts/token/ERC20/utils/SafeERC20.sol\":4129:4688  {... */\n      pop\n        /* \"@openzeppelin/contracts/token/ERC20/utils/SafeERC20.sol\":4059:4688  function _callOptionalReturn(IERC20 token, bytes memory data) private {... */\n      pop\n      pop\n      jump\t// out\n        /* \"@openzeppelin/contracts/utils/Address.sol\":2705:2856  function functionCall(address target, bytes memory data) internal returns (bytes memory) {... */\n    tag_122:\n        /* \"@openzeppelin/contracts/utils/Address.sol\":2780:2792  bytes memory */\n      0x60\n        /* \"@openzeppelin/contracts/utils/Address.sol\":2811:2849  functionCallWithValue(target, data, 0) */\n      tag_130\n        /* \"@openzeppelin/contracts/utils/Address.sol\":2833:2839  target */\n      dup4\n        /* \"@openzeppelin/contracts/utils/Address.sol\":2841:2845  data */\n      dup4\n        /* \"@openzeppelin/contracts/utils/Address.sol\":2847:2848  0 */\n      0x00\n        /* \"@openzeppelin/contracts/utils/Address.sol\":2811:2832  functionCallWithValue */\n      tag_131\n        /* \"@openzeppelin/contracts/utils/Address.sol\":2811:2849  functionCallWithValue(target, data, 0) */\n      jump\t// in\n    tag_130:\n        /* \"@openzeppelin/contracts/utils/Address.sol\":2804:2849  return functionCallWithValue(target, data, 0) */\n      swap1\n      pop\n        /* \"@openzeppelin/contracts/utils/Address.sol\":2705:2856  function functionCall(address target, bytes memory data) internal returns (bytes memory) {... */\n      swap3\n      swap2\n      pop\n      pop\n      jump\t// out\n        /* \"@openzeppelin/contracts/utils/Address.sol\":3180:3572  function functionCallWithValue(address target, bytes memory data, uint256 value) internal returns (bytes memory) {... */\n    tag_131:\n        /* \"@openzeppelin/contracts/utils/Address.sol\":3279:3291  bytes memory */\n      0x60\n        /* \"@openzeppelin/contracts/utils/Address.sol\":3331:3336  value */\n      dup2\n        /* \"@openzeppelin/contracts/utils/Address.sol\":3307:3328  address(this).balance */\n      selfbalance\n        /* \"@openzeppelin/contracts/utils/Address.sol\":3307:3336  address(this).balance < value */\n      lt\n        /* \"@openzeppelin/contracts/utils/Address.sol\":3303:3411  if (address(this).balance < value) {... */\n      iszero\n      tag_133\n      jumpi\n        /* \"@openzeppelin/contracts/utils/Address.sol\":3394:3398  this */\n      address\n        /* \"@openzeppelin/contracts/utils/Address.sol\":3359:3400  AddressInsufficientBalance(address(this)) */\n      mload(0x40)\n      0xcd78605900000000000000000000000000000000000000000000000000000000\n      dup2\n      mstore\n      0x04\n      add\n      tag_134\n      swap2\n      swap1\n      tag_128\n      jump\t// in\n    tag_134:\n      mload(0x40)\n      dup1\n      swap2\n      sub\n      swap1\n      revert\n        /* \"@openzeppelin/contracts/utils/Address.sol\":3303:3411  if (address(this).balance < value) {... */\n    tag_133:\n        /* \"@openzeppelin/contracts/utils/Address.sol\":3421:3433  bool success */\n      0x00\n        /* \"@openzeppelin/contracts/utils/Address.sol\":3435:3458  bytes memory returndata */\n      0x00\n        /* \"@openzeppelin/contracts/utils/Address.sol\":3462:3468  target */\n      dup6\n        /* \"@openzeppelin/contracts/utils/Address.sol\":3462:3473  target.call */\n      0xffffffffffffffffffffffffffffffffffffffff\n      and\n        /* \"@openzeppelin/contracts/utils/Address.sol\":3481:3486  value */\n      dup5\n        /* \"@openzeppelin/contracts/utils/Address.sol\":3488:3492  data */\n      dup7\n        /* \"@openzeppelin/contracts/utils/Address.sol\":3462:3493  target.call{value: value}(data) */\n      mload(0x40)\n      tag_135\n      swap2\n      swap1\n      tag_136\n      jump\t// in\n    tag_135:\n      0x00\n      mload(0x40)\n      dup1\n      dup4\n      sub\n      dup2\n      dup6\n      dup8\n      gas\n      call\n      swap3\n      pop\n      pop\n      pop\n      returndatasize\n      dup1\n      0x00\n      dup2\n      eq\n      tag_139\n      jumpi\n      mload(0x40)\n      swap2\n      pop\n      and(add(returndatasize, 0x3f), not(0x1f))\n      dup3\n      add\n      0x40\n      mstore\n      returndatasize\n      dup3\n      mstore\n      returndatasize\n      0x00\n      0x20\n      dup5\n      add\n      returndatacopy\n      jump(tag_138)\n    tag_139:\n      0x60\n      swap2\n      pop\n    tag_138:\n      pop\n        /* \"@openzeppelin/contracts/utils/Address.sol\":3420:3493  (bool success, bytes memory returndata) = target.call{value: value}(data) */\n      swap2\n      pop\n      swap2\n      pop\n        /* \"@openzeppelin/contracts/utils/Address.sol\":3510:3565  verifyCallResultFromTarget(target, success, returndata) */\n      tag_140\n        /* \"@openzeppelin/contracts/utils/Address.sol\":3537:3543  target */\n      dup7\n        /* \"@openzeppelin/contracts/utils/Address.sol\":3545:3552  success */\n      dup4\n        /* \"@openzeppelin/contracts/utils/Address.sol\":3554:3564  returndata */\n      dup4\n        /* \"@openzeppelin/contracts/utils/Address.sol\":3510:3536  verifyCallResultFromTarget */\n      tag_141\n        /* \"@openzeppelin/contracts/utils/Address.sol\":3510:3565  verifyCallResultFromTarget(target, success, returndata) */\n      jump\t// in\n    tag_140:\n        /* \"@openzeppelin/contracts/utils/Address.sol\":3503:3565  return verifyCallResultFromTarget(target, success, returndata) */\n      swap3\n      pop\n      pop\n      pop\n        /* \"@openzeppelin/contracts/utils/Address.sol\":3180:3572  function functionCallWithValue(address target, bytes memory data, uint256 value) internal returns (bytes memory) {... */\n      swap4\n      swap3\n      pop\n      pop\n      pop\n      jump\t// out\n        /* \"@openzeppelin/contracts/utils/Address.sol\":4625:5207  function verifyCallResultFromTarget(... */\n    tag_141:\n        /* \"@openzeppelin/contracts/utils/Address.sol\":4769:4781  bytes memory */\n      0x60\n        /* \"@openzeppelin/contracts/utils/Address.sol\":4798:4805  success */\n      dup3\n        /* \"@openzeppelin/contracts/utils/Address.sol\":4793:5201  if (!success) {... */\n      tag_143\n      jumpi\n        /* \"@openzeppelin/contracts/utils/Address.sol\":4821:4840  _revert(returndata) */\n      tag_144\n        /* \"@openzeppelin/contracts/utils/Address.sol\":4829:4839  returndata */\n      dup3\n        /* \"@openzeppelin/contracts/utils/Address.sol\":4821:4828  _revert */\n      tag_145\n        /* \"@openzeppelin/contracts/utils/Address.sol\":4821:4840  _revert(returndata) */\n      jump\t// in\n    tag_144:\n        /* \"@openzeppelin/contracts/utils/Address.sol\":4793:5201  if (!success) {... */\n      jump(tag_146)\n    tag_143:\n        /* \"@openzeppelin/contracts/utils/Address.sol\":5066:5067  0 */\n      0x00\n        /* \"@openzeppelin/contracts/utils/Address.sol\":5045:5055  returndata */\n      dup3\n        /* \"@openzeppelin/contracts/utils/Address.sol\":5045:5062  returndata.length */\n      mload\n        /* \"@openzeppelin/contracts/utils/Address.sol\":5045:5067  returndata.length == 0 */\n      eq\n        /* \"@openzeppelin/contracts/utils/Address.sol\":5045:5094  returndata.length == 0 && target.code.length == 0 */\n      dup1\n      iszero\n      tag_147\n      jumpi\n      pop\n        /* \"@openzeppelin/contracts/utils/Address.sol\":5093:5094  0 */\n      0x00\n        /* \"@openzeppelin/contracts/utils/Address.sol\":5071:5077  target */\n      dup5\n        /* \"@openzeppelin/contracts/utils/Address.sol\":5071:5089  target.code.length */\n      0xffffffffffffffffffffffffffffffffffffffff\n      and\n      extcodesize\n        /* \"@openzeppelin/contracts/utils/Address.sol\":5071:5094  target.code.length == 0 */\n      eq\n        /* \"@openzeppelin/contracts/utils/Address.sol\":5045:5094  returndata.length == 0 && target.code.length == 0 */\n    tag_147:\n        /* \"@openzeppelin/contracts/utils/Address.sol\":5041:5160  if (returndata.length == 0 && target.code.length == 0) {... */\n      iszero\n      tag_148\n      jumpi\n        /* \"@openzeppelin/contracts/utils/Address.sol\":5138:5144  target */\n      dup4\n        /* \"@openzeppelin/contracts/utils/Address.sol\":5121:5145  AddressEmptyCode(target) */\n      mload(0x40)\n      0x9996b31500000000000000000000000000000000000000000000000000000000\n      dup2\n      mstore\n      0x04\n      add\n      tag_149\n      swap2\n      swap1\n      tag_128\n      jump\t// in\n    tag_149:\n      mload(0x40)\n      dup1\n      swap2\n      sub\n      swap1\n      revert\n        /* \"@openzeppelin/contracts/utils/Address.sol\":5041:5160  if (returndata.length == 0 && target.code.length == 0) {... */\n    tag_148:\n        /* \"@openzeppelin/contracts/utils/Address.sol\":5180:5190  returndata */\n      dup2\n        /* \"@openzeppelin/contracts/utils/Address.sol\":5173:5190  return returndata */\n      swap1\n      pop\n      jump(tag_142)\n        /* \"@openzeppelin/contracts/utils/Address.sol\":4793:5201  if (!success) {... */\n    tag_146:\n        /* \"@openzeppelin/contracts/utils/Address.sol\":4625:5207  function verifyCallResultFromTarget(... */\n    tag_142:\n      swap4\n      swap3\n      pop\n      pop\n      pop\n      jump\t// out\n        /* \"@openzeppelin/contracts/utils/Address.sol\":5743:6259  function _revert(bytes memory returndata) private pure {... */\n    tag_145:\n        /* \"@openzeppelin/contracts/utils/Address.sol\":5894:5895  0 */\n      0x00\n        /* \"@openzeppelin/contracts/utils/Address.sol\":5874:5884  returndata */\n      dup2\n        /* \"@openzeppelin/contracts/utils/Address.sol\":5874:5891  returndata.length */\n      mload\n        /* \"@openzeppelin/contracts/utils/Address.sol\":5874:5895  returndata.length > 0 */\n      gt\n        /* \"@openzeppelin/contracts/utils/Address.sol\":5870:6253  if (returndata.length > 0) {... */\n      iszero\n      tag_151\n      jumpi\n        /* \"@openzeppelin/contracts/utils/Address.sol\":6102:6112  returndata */\n      dup1\n        /* \"@openzeppelin/contracts/utils/Address.sol\":6096:6113  mload(returndata) */\n      mload\n        /* \"@openzeppelin/contracts/utils/Address.sol\":6158:6173  returndata_size */\n      dup1\n        /* \"@openzeppelin/contracts/utils/Address.sol\":6145:6155  returndata */\n      dup3\n        /* \"@openzeppelin/contracts/utils/Address.sol\":6141:6143  32 */\n      0x20\n        /* \"@openzeppelin/contracts/utils/Address.sol\":6137:6156  add(32, returndata) */\n      add\n        /* \"@openzeppelin/contracts/utils/Address.sol\":6130:6174  revert(add(32, returndata), returndata_size) */\n      revert\n        /* \"@openzeppelin/contracts/utils/Address.sol\":5870:6253  if (returndata.length > 0) {... */\n    tag_151:\n        /* \"@openzeppelin/contracts/utils/Address.sol\":6225:6242  FailedInnerCall() */\n      mload(0x40)\n      0x1425ea4200000000000000000000000000000000000000000000000000000000\n      dup2\n      mstore\n      0x04\n      add\n      mload(0x40)\n      dup1\n      swap2\n      sub\n      swap1\n      revert\n        /* \"#utility.yul\":88:205   */\n    tag_154:\n        /* \"#utility.yul\":197:198   */\n      0x00\n        /* \"#utility.yul\":194:195   */\n      0x00\n        /* \"#utility.yul\":187:199   */\n      revert\n        /* \"#utility.yul\":334:411   */\n    tag_156:\n        /* \"#utility.yul\":371:378   */\n      0x00\n        /* \"#utility.yul\":400:405   */\n      dup2\n        /* \"#utility.yul\":389:405   */\n      swap1\n      pop\n        /* \"#utility.yul\":334:411   */\n      swap2\n      swap1\n      pop\n      jump\t// out\n        /* \"#utility.yul\":417:539   */\n    tag_157:\n        /* \"#utility.yul\":490:514   */\n      tag_197\n        /* \"#utility.yul\":508:513   */\n      dup2\n        /* \"#utility.yul\":490:514   */\n      tag_156\n      jump\t// in\n    tag_197:\n        /* \"#utility.yul\":483:488   */\n      dup2\n        /* \"#utility.yul\":480:515   */\n      eq\n        /* \"#utility.yul\":470:533   */\n      tag_198\n      jumpi\n        /* \"#utility.yul\":529:530   */\n      0x00\n        /* \"#utility.yul\":526:527   */\n      0x00\n        /* \"#utility.yul\":519:531   */\n      revert\n        /* \"#utility.yul\":470:533   */\n    tag_198:\n        /* \"#utility.yul\":417:539   */\n      pop\n      jump\t// out\n        /* \"#utility.yul\":545:684   */\n    tag_158:\n        /* \"#utility.yul\":591:596   */\n      0x00\n        /* \"#utility.yul\":629:635   */\n      dup2\n        /* \"#utility.yul\":616:636   */\n      calldataload\n        /* \"#utility.yul\":607:636   */\n      swap1\n      pop\n        /* \"#utility.yul\":645:678   */\n      tag_200\n        /* \"#utility.yul\":672:677   */\n      dup2\n        /* \"#utility.yul\":645:678   */\n      tag_157\n      jump\t// in\n    tag_200:\n        /* \"#utility.yul\":545:684   */\n      swap3\n      swap2\n      pop\n      pop\n      jump\t// out\n        /* \"#utility.yul\":690:1019   */\n    tag_17:\n        /* \"#utility.yul\":749:755   */\n      0x00\n        /* \"#utility.yul\":798:800   */\n      0x20\n        /* \"#utility.yul\":786:795   */\n      dup3\n        /* \"#utility.yul\":777:784   */\n      dup5\n        /* \"#utility.yul\":773:796   */\n      sub\n        /* \"#utility.yul\":769:801   */\n      slt\n        /* \"#utility.yul\":766:885   */\n      iszero\n      tag_202\n      jumpi\n        /* \"#utility.yul\":804:883   */\n      tag_203\n      tag_154\n      jump\t// in\n    tag_203:\n        /* \"#utility.yul\":766:885   */\n    tag_202:\n        /* \"#utility.yul\":924:925   */\n      0x00\n        /* \"#utility.yul\":949:1002   */\n      tag_204\n        /* \"#utility.yul\":994:1001   */\n      dup5\n        /* \"#utility.yul\":985:991   */\n      dup3\n        /* \"#utility.yul\":974:983   */\n      dup6\n        /* \"#utility.yul\":970:992   */\n      add\n        /* \"#utility.yul\":949:1002   */\n      tag_158\n      jump\t// in\n    tag_204:\n        /* \"#utility.yul\":939:1002   */\n      swap2\n      pop\n        /* \"#utility.yul\":895:1012   */\n      pop\n        /* \"#utility.yul\":690:1019   */\n      swap3\n      swap2\n      pop\n      pop\n      jump\t// out\n        /* \"#utility.yul\":1025:1499   */\n    tag_21:\n        /* \"#utility.yul\":1093:1099   */\n      0x00\n        /* \"#utility.yul\":1101:1107   */\n      0x00\n        /* \"#utility.yul\":1150:1152   */\n      0x40\n        /* \"#utility.yul\":1138:1147   */\n      dup4\n        /* \"#utility.yul\":1129:1136   */\n      dup6\n        /* \"#utility.yul\":1125:1148   */\n      sub\n        /* \"#utility.yul\":1121:1153   */\n      slt\n        /* \"#utility.yul\":1118:1237   */\n      iszero\n      tag_206\n      jumpi\n        /* \"#utility.yul\":1156:1235   */\n      tag_207\n      tag_154\n      jump\t// in\n    tag_207:\n        /* \"#utility.yul\":1118:1237   */\n    tag_206:\n        /* \"#utility.yul\":1276:1277   */\n      0x00\n        /* \"#utility.yul\":1301:1354   */\n      tag_208\n        /* \"#utility.yul\":1346:1353   */\n      dup6\n        /* \"#utility.yul\":1337:1343   */\n      dup3\n        /* \"#utility.yul\":1326:1335   */\n      dup7\n        /* \"#utility.yul\":1322:1344   */\n      add\n        /* \"#utility.yul\":1301:1354   */\n      tag_158\n      jump\t// in\n    tag_208:\n        /* \"#utility.yul\":1291:1354   */\n      swap3\n      pop\n        /* \"#utility.yul\":1247:1364   */\n      pop\n        /* \"#utility.yul\":1403:1405   */\n      0x20\n        /* \"#utility.yul\":1429:1482   */\n      tag_209\n        /* \"#utility.yul\":1474:1481   */\n      dup6\n        /* \"#utility.yul\":1465:1471   */\n      dup3\n        /* \"#utility.yul\":1454:1463   */\n      dup7\n        /* \"#utility.yul\":1450:1472   */\n      add\n        /* \"#utility.yul\":1429:1482   */\n      tag_158\n      jump\t// in\n    tag_209:\n        /* \"#utility.yul\":1419:1482   */\n      swap2\n      pop\n        /* \"#utility.yul\":1374:1492   */\n      pop\n        /* \"#utility.yul\":1025:1499   */\n      swap3\n      pop\n      swap3\n      swap1\n      pop\n      jump\t// out\n        /* \"#utility.yul\":1505:1623   */\n    tag_159:\n        /* \"#utility.yul\":1592:1616   */\n      tag_211\n        /* \"#utility.yul\":1610:1615   */\n      dup2\n        /* \"#utility.yul\":1592:1616   */\n      tag_156\n      jump\t// in\n    tag_211:\n        /* \"#utility.yul\":1587:1590   */\n      dup3\n        /* \"#utility.yul\":1580:1617   */\n      mstore\n        /* \"#utility.yul\":1505:1623   */\n      pop\n      pop\n      jump\t// out\n        /* \"#utility.yul\":1629:1851   */\n    tag_26:\n        /* \"#utility.yul\":1722:1726   */\n      0x00\n        /* \"#utility.yul\":1760:1762   */\n      0x20\n        /* \"#utility.yul\":1749:1758   */\n      dup3\n        /* \"#utility.yul\":1745:1763   */\n      add\n        /* \"#utility.yul\":1737:1763   */\n      swap1\n      pop\n        /* \"#utility.yul\":1773:1844   */\n      tag_213\n        /* \"#utility.yul\":1841:1842   */\n      0x00\n        /* \"#utility.yul\":1830:1839   */\n      dup4\n        /* \"#utility.yul\":1826:1843   */\n      add\n        /* \"#utility.yul\":1817:1823   */\n      dup5\n        /* \"#utility.yul\":1773:1844   */\n      tag_159\n      jump\t// in\n    tag_213:\n        /* \"#utility.yul\":1629:1851   */\n      swap3\n      swap2\n      pop\n      pop\n      jump\t// out\n        /* \"#utility.yul\":1857:1983   */\n    tag_160:\n        /* \"#utility.yul\":1894:1901   */\n      0x00\n        /* \"#utility.yul\":1934:1976   */\n      0xffffffffffffffffffffffffffffffffffffffff\n        /* \"#utility.yul\":1927:1932   */\n      dup3\n        /* \"#utility.yul\":1923:1977   */\n      and\n        /* \"#utility.yul\":1912:1977   */\n      swap1\n      pop\n        /* \"#utility.yul\":1857:1983   */\n      swap2\n      swap1\n      pop\n      jump\t// out\n        /* \"#utility.yul\":1989:2049   */\n    tag_161:\n        /* \"#utility.yul\":2017:2020   */\n      0x00\n        /* \"#utility.yul\":2038:2043   */\n      dup2\n        /* \"#utility.yul\":2031:2043   */\n      swap1\n      pop\n        /* \"#utility.yul\":1989:2049   */\n      swap2\n      swap1\n      pop\n      jump\t// out\n        /* \"#utility.yul\":2055:2197   */\n    tag_162:\n        /* \"#utility.yul\":2105:2114   */\n      0x00\n        /* \"#utility.yul\":2138:2191   */\n      tag_217\n        /* \"#utility.yul\":2156:2190   */\n      tag_218\n        /* \"#utility.yul\":2165:2189   */\n      tag_219\n        /* \"#utility.yul\":2183:2188   */\n      dup5\n        /* \"#utility.yul\":2165:2189   */\n      tag_160\n      jump\t// in\n    tag_219:\n        /* \"#utility.yul\":2156:2190   */\n      tag_161\n      jump\t// in\n    tag_218:\n        /* \"#utility.yul\":2138:2191   */\n      tag_160\n      jump\t// in\n    tag_217:\n        /* \"#utility.yul\":2125:2191   */\n      swap1\n      pop\n        /* \"#utility.yul\":2055:2197   */\n      swap2\n      swap1\n      pop\n      jump\t// out\n        /* \"#utility.yul\":2203:2329   */\n    tag_163:\n        /* \"#utility.yul\":2253:2262   */\n      0x00\n        /* \"#utility.yul\":2286:2323   */\n      tag_221\n        /* \"#utility.yul\":2317:2322   */\n      dup3\n        /* \"#utility.yul\":2286:2323   */\n      tag_162\n      jump\t// in\n    tag_221:\n        /* \"#utility.yul\":2273:2323   */\n      swap1\n      pop\n        /* \"#utility.yul\":2203:2329   */\n      swap2\n      swap1\n      pop\n      jump\t// out\n        /* \"#utility.yul\":2335:2475   */\n    tag_164:\n        /* \"#utility.yul\":2399:2408   */\n      0x00\n        /* \"#utility.yul\":2432:2469   */\n      tag_223\n        /* \"#utility.yul\":2463:2468   */\n      dup3\n        /* \"#utility.yul\":2432:2469   */\n      tag_163\n      jump\t// in\n    tag_223:\n        /* \"#utility.yul\":2419:2469   */\n      swap1\n      pop\n        /* \"#utility.yul\":2335:2475   */\n      swap2\n      swap1\n      pop\n      jump\t// out\n        /* \"#utility.yul\":2481:2640   */\n    tag_165:\n        /* \"#utility.yul\":2582:2633   */\n      tag_225\n        /* \"#utility.yul\":2627:2632   */\n      dup2\n        /* \"#utility.yul\":2582:2633   */\n      tag_164\n      jump\t// in\n    tag_225:\n        /* \"#utility.yul\":2577:2580   */\n      dup3\n        /* \"#utility.yul\":2570:2634   */\n      mstore\n        /* \"#utility.yul\":2481:2640   */\n      pop\n      pop\n      jump\t// out\n        /* \"#utility.yul\":2646:2896   */\n    tag_30:\n        /* \"#utility.yul\":2753:2757   */\n      0x00\n        /* \"#utility.yul\":2791:2793   */\n      0x20\n        /* \"#utility.yul\":2780:2789   */\n      dup3\n        /* \"#utility.yul\":2776:2794   */\n      add\n        /* \"#utility.yul\":2768:2794   */\n      swap1\n      pop\n        /* \"#utility.yul\":2804:2889   */\n      tag_227\n        /* \"#utility.yul\":2886:2887   */\n      0x00\n        /* \"#utility.yul\":2875:2884   */\n      dup4\n        /* \"#utility.yul\":2871:2888   */\n      add\n        /* \"#utility.yul\":2862:2868   */\n      dup5\n        /* \"#utility.yul\":2804:2889   */\n      tag_165\n      jump\t// in\n    tag_227:\n        /* \"#utility.yul\":2646:2896   */\n      swap3\n      swap2\n      pop\n      pop\n      jump\t// out\n        /* \"#utility.yul\":2902:2998   */\n    tag_166:\n        /* \"#utility.yul\":2939:2946   */\n      0x00\n        /* \"#utility.yul\":2968:2992   */\n      tag_229\n        /* \"#utility.yul\":2986:2991   */\n      dup3\n        /* \"#utility.yul\":2968:2992   */\n      tag_160\n      jump\t// in\n    tag_229:\n        /* \"#utility.yul\":2957:2992   */\n      swap1\n      pop\n        /* \"#utility.yul\":2902:2998   */\n      swap2\n      swap1\n      pop\n      jump\t// out\n        /* \"#utility.yul\":3004:3126   */\n    tag_167:\n        /* \"#utility.yul\":3077:3101   */\n      tag_231\n        /* \"#utility.yul\":3095:3100   */\n      dup2\n        /* \"#utility.yul\":3077:3101   */\n      tag_166\n      jump\t// in\n    tag_231:\n        /* \"#utility.yul\":3070:3075   */\n      dup2\n        /* \"#utility.yul\":3067:3102   */\n      eq\n        /* \"#utility.yul\":3057:3120   */\n      tag_232\n      jumpi\n        /* \"#utility.yul\":3116:3117   */\n      0x00\n        /* \"#utility.yul\":3113:3114   */\n      0x00\n        /* \"#utility.yul\":3106:3118   */\n      revert\n        /* \"#utility.yul\":3057:3120   */\n    tag_232:\n        /* \"#utility.yul\":3004:3126   */\n      pop\n      jump\t// out\n        /* \"#utility.yul\":3132:3271   */\n    tag_168:\n        /* \"#utility.yul\":3178:3183   */\n      0x00\n        /* \"#utility.yul\":3216:3222   */\n      dup2\n        /* \"#utility.yul\":3203:3223   */\n      calldataload\n        /* \"#utility.yul\":3194:3223   */\n      swap1\n      pop\n        /* \"#utility.yul\":3232:3265   */\n      tag_234\n        /* \"#utility.yul\":3259:3264   */\n      dup2\n        /* \"#utility.yul\":3232:3265   */\n      tag_167\n      jump\t// in\n    tag_234:\n        /* \"#utility.yul\":3132:3271   */\n      swap3\n      swap2\n      pop\n      pop\n      jump\t// out\n        /* \"#utility.yul\":3277:3606   */\n    tag_33:\n        /* \"#utility.yul\":3336:3342   */\n      0x00\n        /* \"#utility.yul\":3385:3387   */\n      0x20\n        /* \"#utility.yul\":3373:3382   */\n      dup3\n        /* \"#utility.yul\":3364:3371   */\n      dup5\n        /* \"#utility.yul\":3360:3383   */\n      sub\n        /* \"#utility.yul\":3356:3388   */\n      slt\n        /* \"#utility.yul\":3353:3472   */\n      iszero\n      tag_236\n      jumpi\n        /* \"#utility.yul\":3391:3470   */\n      tag_237\n      tag_154\n      jump\t// in\n    tag_237:\n        /* \"#utility.yul\":3353:3472   */\n    tag_236:\n        /* \"#utility.yul\":3511:3512   */\n      0x00\n        /* \"#utility.yul\":3536:3589   */\n      tag_238\n        /* \"#utility.yul\":3581:3588   */\n      dup5\n        /* \"#utility.yul\":3572:3578   */\n      dup3\n        /* \"#utility.yul\":3561:3570   */\n      dup6\n        /* \"#utility.yul\":3557:3579   */\n      add\n        /* \"#utility.yul\":3536:3589   */\n      tag_168\n      jump\t// in\n    tag_238:\n        /* \"#utility.yul\":3526:3589   */\n      swap2\n      pop\n        /* \"#utility.yul\":3482:3599   */\n      pop\n        /* \"#utility.yul\":3277:3606   */\n      swap3\n      swap2\n      pop\n      pop\n      jump\t// out\n        /* \"#utility.yul\":3612:3702   */\n    tag_169:\n        /* \"#utility.yul\":3646:3653   */\n      0x00\n        /* \"#utility.yul\":3689:3694   */\n      dup2\n        /* \"#utility.yul\":3682:3695   */\n      iszero\n        /* \"#utility.yul\":3675:3696   */\n      iszero\n        /* \"#utility.yul\":3664:3696   */\n      swap1\n      pop\n        /* \"#utility.yul\":3612:3702   */\n      swap2\n      swap1\n      pop\n      jump\t// out\n        /* \"#utility.yul\":3708:3817   */\n    tag_170:\n        /* \"#utility.yul\":3789:3810   */\n      tag_241\n        /* \"#utility.yul\":3804:3809   */\n      dup2\n        /* \"#utility.yul\":3789:3810   */\n      tag_169\n      jump\t// in\n    tag_241:\n        /* \"#utility.yul\":3784:3787   */\n      dup3\n        /* \"#utility.yul\":3777:3811   */\n      mstore\n        /* \"#utility.yul\":3708:3817   */\n      pop\n      pop\n      jump\t// out\n        /* \"#utility.yul\":3823:4364   */\n    tag_36:\n        /* \"#utility.yul\":3994:3998   */\n      0x00\n        /* \"#utility.yul\":4032:4035   */\n      0x80\n        /* \"#utility.yul\":4021:4030   */\n      dup3\n        /* \"#utility.yul\":4017:4036   */\n      add\n        /* \"#utility.yul\":4009:4036   */\n      swap1\n      pop\n        /* \"#utility.yul\":4046:4117   */\n      tag_243\n        /* \"#utility.yul\":4114:4115   */\n      0x00\n        /* \"#utility.yul\":4103:4112   */\n      dup4\n        /* \"#utility.yul\":4099:4116   */\n      add\n        /* \"#utility.yul\":4090:4096   */\n      dup8\n        /* \"#utility.yul\":4046:4117   */\n      tag_159\n      jump\t// in\n    tag_243:\n        /* \"#utility.yul\":4127:4199   */\n      tag_244\n        /* \"#utility.yul\":4195:4197   */\n      0x20\n        /* \"#utility.yul\":4184:4193   */\n      dup4\n        /* \"#utility.yul\":4180:4198   */\n      add\n        /* \"#utility.yul\":4171:4177   */\n      dup7\n        /* \"#utility.yul\":4127:4199   */\n      tag_159\n      jump\t// in\n    tag_244:\n        /* \"#utility.yul\":4209:4281   */\n      tag_245\n        /* \"#utility.yul\":4277:4279   */\n      0x40\n        /* \"#utility.yul\":4266:4275   */\n      dup4\n        /* \"#utility.yul\":4262:4280   */\n      add\n        /* \"#utility.yul\":4253:4259   */\n      dup6\n        /* \"#utility.yul\":4209:4281   */\n      tag_159\n      jump\t// in\n    tag_245:\n        /* \"#utility.yul\":4291:4357   */\n      tag_246\n        /* \"#utility.yul\":4353:4355   */\n      0x60\n        /* \"#utility.yul\":4342:4351   */\n      dup4\n        /* \"#utility.yul\":4338:4356   */\n      add\n        /* \"#utility.yul\":4329:4335   */\n      dup5\n        /* \"#utility.yul\":4291:4357   */\n      tag_170\n      jump\t// in\n    tag_246:\n        /* \"#utility.yul\":3823:4364   */\n      swap6\n      swap5\n      pop\n      pop\n      pop\n      pop\n      pop\n      jump\t// out\n        /* \"#utility.yul\":4370:4580   */\n    tag_51:\n        /* \"#utility.yul\":4457:4461   */\n      0x00\n        /* \"#utility.yul\":4495:4497   */\n      0x20\n        /* \"#utility.yul\":4484:4493   */\n      dup3\n        /* \"#utility.yul\":4480:4498   */\n      add\n        /* \"#utility.yul\":4472:4498   */\n      swap1\n      pop\n        /* \"#utility.yul\":4508:4573   */\n      tag_248\n        /* \"#utility.yul\":4570:4571   */\n      0x00\n        /* \"#utility.yul\":4559:4568   */\n      dup4\n        /* \"#utility.yul\":4555:4572   */\n      add\n        /* \"#utility.yul\":4546:4552   */\n      dup5\n        /* \"#utility.yul\":4508:4573   */\n      tag_170\n      jump\t// in\n    tag_248:\n        /* \"#utility.yul\":4370:4580   */\n      swap3\n      swap2\n      pop\n      pop\n      jump\t// out\n        /* \"#utility.yul\":4586:4766   */\n    tag_171:\n        /* \"#utility.yul\":4634:4711   */\n      0x4e487b7100000000000000000000000000000000000000000000000000000000\n        /* \"#utility.yul\":4631:4632   */\n      0x00\n        /* \"#utility.yul\":4624:4712   */\n      mstore\n        /* \"#utility.yul\":4731:4735   */\n      0x11\n        /* \"#utility.yul\":4728:4729   */\n      0x04\n        /* \"#utility.yul\":4721:4736   */\n      mstore\n        /* \"#utility.yul\":4755:4759   */\n      0x24\n        /* \"#utility.yul\":4752:4753   */\n      0x00\n        /* \"#utility.yul\":4745:4760   */\n      revert\n        /* \"#utility.yul\":4772:4963   */\n    tag_59:\n        /* \"#utility.yul\":4812:4815   */\n      0x00\n        /* \"#utility.yul\":4831:4851   */\n      tag_251\n        /* \"#utility.yul\":4849:4850   */\n      dup3\n        /* \"#utility.yul\":4831:4851   */\n      tag_156\n      jump\t// in\n    tag_251:\n        /* \"#utility.yul\":4826:4851   */\n      swap2\n      pop\n        /* \"#utility.yul\":4865:4885   */\n      tag_252\n        /* \"#utility.yul\":4883:4884   */\n      dup4\n        /* \"#utility.yul\":4865:4885   */\n      tag_156\n      jump\t// in\n    tag_252:\n        /* \"#utility.yul\":4860:4885   */\n      swap3\n      pop\n        /* \"#utility.yul\":4908:4909   */\n      dup3\n        /* \"#utility.yul\":4905:4906   */\n      dup3\n        /* \"#utility.yul\":4901:4910   */\n      add\n        /* \"#utility.yul\":4894:4910   */\n      swap1\n      pop\n        /* \"#utility.yul\":4929:4932   */\n      dup1\n        /* \"#utility.yul\":4926:4927   */\n      dup3\n        /* \"#utility.yul\":4923:4933   */\n      gt\n        /* \"#utility.yul\":4920:4956   */\n      iszero\n      tag_253\n      jumpi\n        /* \"#utility.yul\":4936:4954   */\n      tag_254\n      tag_171\n      jump\t// in\n    tag_254:\n        /* \"#utility.yul\":4920:4956   */\n    tag_253:\n        /* \"#utility.yul\":4772:4963   */\n      swap3\n      swap2\n      pop\n      pop\n      jump\t// out\n        /* \"#utility.yul\":4969:5138   */\n    tag_172:\n        /* \"#utility.yul\":5053:5064   */\n      0x00\n        /* \"#utility.yul\":5087:5093   */\n      dup3\n        /* \"#utility.yul\":5082:5085   */\n      dup3\n        /* \"#utility.yul\":5075:5094   */\n      mstore\n        /* \"#utility.yul\":5127:5131   */\n      0x20\n        /* \"#utility.yul\":5122:5125   */\n      dup3\n        /* \"#utility.yul\":5118:5132   */\n      add\n        /* \"#utility.yul\":5103:5132   */\n      swap1\n      pop\n        /* \"#utility.yul\":4969:5138   */\n      swap3\n      swap2\n      pop\n      pop\n      jump\t// out\n        /* \"#utility.yul\":5144:5308   */\n    tag_173:\n        /* \"#utility.yul\":5284:5300   */\n      0x416c7265616479207374616b6564000000000000000000000000000000000000\n        /* \"#utility.yul\":5280:5281   */\n      0x00\n        /* \"#utility.yul\":5272:5278   */\n      dup3\n        /* \"#utility.yul\":5268:5282   */\n      add\n        /* \"#utility.yul\":5261:5301   */\n      mstore\n        /* \"#utility.yul\":5144:5308   */\n      pop\n      jump\t// out\n        /* \"#utility.yul\":5314:5680   */\n    tag_174:\n        /* \"#utility.yul\":5456:5459   */\n      0x00\n        /* \"#utility.yul\":5477:5544   */\n      tag_258\n        /* \"#utility.yul\":5541:5543   */\n      0x0e\n        /* \"#utility.yul\":5536:5539   */\n      dup4\n        /* \"#utility.yul\":5477:5544   */\n      tag_172\n      jump\t// in\n    tag_258:\n        /* \"#utility.yul\":5470:5544   */\n      swap2\n      pop\n        /* \"#utility.yul\":5553:5646   */\n      tag_259\n        /* \"#utility.yul\":5642:5645   */\n      dup3\n        /* \"#utility.yul\":5553:5646   */\n      tag_173\n      jump\t// in\n    tag_259:\n        /* \"#utility.yul\":5671:5673   */\n      0x20\n        /* \"#utility.yul\":5666:5669   */\n      dup3\n        /* \"#utility.yul\":5662:5674   */\n      add\n        /* \"#utility.yul\":5655:5674   */\n      swap1\n      pop\n        /* \"#utility.yul\":5314:5680   */\n      swap2\n      swap1\n      pop\n      jump\t// out\n        /* \"#utility.yul\":5686:6105   */\n    tag_69:\n        /* \"#utility.yul\":5852:5856   */\n      0x00\n        /* \"#utility.yul\":5890:5892   */\n      0x20\n        /* \"#utility.yul\":5879:5888   */\n      dup3\n        /* \"#utility.yul\":5875:5893   */\n      add\n        /* \"#utility.yul\":5867:5893   */\n      swap1\n      pop\n        /* \"#utility.yul\":5939:5948   */\n      dup2\n        /* \"#utility.yul\":5933:5937   */\n      dup2\n        /* \"#utility.yul\":5929:5949   */\n      sub\n        /* \"#utility.yul\":5925:5926   */\n      0x00\n        /* \"#utility.yul\":5914:5923   */\n      dup4\n        /* \"#utility.yul\":5910:5927   */\n      add\n        /* \"#utility.yul\":5903:5950   */\n      mstore\n        /* \"#utility.yul\":5967:6098   */\n      tag_261\n        /* \"#utility.yul\":6093:6097   */\n      dup2\n        /* \"#utility.yul\":5967:6098   */\n      tag_174\n      jump\t// in\n    tag_261:\n        /* \"#utility.yul\":5959:6098   */\n      swap1\n      pop\n        /* \"#utility.yul\":5686:6105   */\n      swap2\n      swap1\n      pop\n      jump\t// out\n        /* \"#utility.yul\":6111:6443   */\n    tag_72:\n        /* \"#utility.yul\":6232:6236   */\n      0x00\n        /* \"#utility.yul\":6270:6272   */\n      0x40\n        /* \"#utility.yul\":6259:6268   */\n      dup3\n        /* \"#utility.yul\":6255:6273   */\n      add\n        /* \"#utility.yul\":6247:6273   */\n      swap1\n      pop\n        /* \"#utility.yul\":6283:6354   */\n      tag_263\n        /* \"#utility.yul\":6351:6352   */\n      0x00\n        /* \"#utility.yul\":6340:6349   */\n      dup4\n        /* \"#utility.yul\":6336:6353   */\n      add\n        /* \"#utility.yul\":6327:6333   */\n      dup6\n        /* \"#utility.yul\":6283:6354   */\n      tag_159\n      jump\t// in\n    tag_263:\n        /* \"#utility.yul\":6364:6436   */\n      tag_264\n        /* \"#utility.yul\":6432:6434   */\n      0x20\n        /* \"#utility.yul\":6421:6430   */\n      dup4\n        /* \"#utility.yul\":6417:6435   */\n      add\n        /* \"#utility.yul\":6408:6414   */\n      dup5\n        /* \"#utility.yul\":6364:6436   */\n      tag_159\n      jump\t// in\n    tag_264:\n        /* \"#utility.yul\":6111:6443   */\n      swap4\n      swap3\n      pop\n      pop\n      pop\n      jump\t// out\n        /* \"#utility.yul\":6449:6615   */\n    tag_175:\n        /* \"#utility.yul\":6589:6607   */\n      0x4e6f20746f6b656e73207374616b656400000000000000000000000000000000\n        /* \"#utility.yul\":6585:6586   */\n      0x00\n        /* \"#utility.yul\":6577:6583   */\n      dup3\n        /* \"#utility.yul\":6573:6587   */\n      add\n        /* \"#utility.yul\":6566:6608   */\n      mstore\n        /* \"#utility.yul\":6449:6615   */\n      pop\n      jump\t// out\n        /* \"#utility.yul\":6621:6987   */\n    tag_176:\n        /* \"#utility.yul\":6763:6766   */\n      0x00\n        /* \"#utility.yul\":6784:6851   */\n      tag_267\n        /* \"#utility.yul\":6848:6850   */\n      0x10\n        /* \"#utility.yul\":6843:6846   */\n      dup4\n        /* \"#utility.yul\":6784:6851   */\n      tag_172\n      jump\t// in\n    tag_267:\n        /* \"#utility.yul\":6777:6851   */\n      swap2\n      pop\n        /* \"#utility.yul\":6860:6953   */\n      tag_268\n        /* \"#utility.yul\":6949:6952   */\n      dup3\n        /* \"#utility.yul\":6860:6953   */\n      tag_175\n      jump\t// in\n    tag_268:\n        /* \"#utility.yul\":6978:6980   */\n      0x20\n        /* \"#utility.yul\":6973:6976   */\n      dup3\n        /* \"#utility.yul\":6969:6981   */\n      add\n        /* \"#utility.yul\":6962:6981   */\n      swap1\n      pop\n        /* \"#utility.yul\":6621:6987   */\n      swap2\n      swap1\n      pop\n      jump\t// out\n        /* \"#utility.yul\":6993:7412   */\n    tag_82:\n        /* \"#utility.yul\":7159:7163   */\n      0x00\n        /* \"#utility.yul\":7197:7199   */\n      0x20\n        /* \"#utility.yul\":7186:7195   */\n      dup3\n        /* \"#utility.yul\":7182:7200   */\n      add\n        /* \"#utility.yul\":7174:7200   */\n      swap1\n      pop\n        /* \"#utility.yul\":7246:7255   */\n      dup2\n        /* \"#utility.yul\":7240:7244   */\n      dup2\n        /* \"#utility.yul\":7236:7256   */\n      sub\n        /* \"#utility.yul\":7232:7233   */\n      0x00\n        /* \"#utility.yul\":7221:7230   */\n      dup4\n        /* \"#utility.yul\":7217:7234   */\n      add\n        /* \"#utility.yul\":7210:7257   */\n      mstore\n        /* \"#utility.yul\":7274:7405   */\n      tag_270\n        /* \"#utility.yul\":7400:7404   */\n      dup2\n        /* \"#utility.yul\":7274:7405   */\n      tag_176\n      jump\t// in\n    tag_270:\n        /* \"#utility.yul\":7266:7405   */\n      swap1\n      pop\n        /* \"#utility.yul\":6993:7412   */\n      swap2\n      swap1\n      pop\n      jump\t// out\n        /* \"#utility.yul\":7418:7595   */\n    tag_177:\n        /* \"#utility.yul\":7558:7587   */\n      0x5374616b696e6720706572696f64206e6f7420636f6d706c6574650000000000\n        /* \"#utility.yul\":7554:7555   */\n      0x00\n        /* \"#utility.yul\":7546:7552   */\n      dup3\n        /* \"#utility.yul\":7542:7556   */\n      add\n        /* \"#utility.yul\":7535:7588   */\n      mstore\n        /* \"#utility.yul\":7418:7595   */\n      pop\n      jump\t// out\n        /* \"#utility.yul\":7601:7967   */\n    tag_178:\n        /* \"#utility.yul\":7743:7746   */\n      0x00\n        /* \"#utility.yul\":7764:7831   */\n      tag_273\n        /* \"#utility.yul\":7828:7830   */\n      0x1b\n        /* \"#utility.yul\":7823:7826   */\n      dup4\n        /* \"#utility.yul\":7764:7831   */\n      tag_172\n      jump\t// in\n    tag_273:\n        /* \"#utility.yul\":7757:7831   */\n      swap2\n      pop\n        /* \"#utility.yul\":7840:7933   */\n      tag_274\n        /* \"#utility.yul\":7929:7932   */\n      dup3\n        /* \"#utility.yul\":7840:7933   */\n      tag_177\n      jump\t// in\n    tag_274:\n        /* \"#utility.yul\":7958:7960   */\n      0x20\n        /* \"#utility.yul\":7953:7956   */\n      dup3\n        /* \"#utility.yul\":7949:7961   */\n      add\n        /* \"#utility.yul\":7942:7961   */\n      swap1\n      pop\n        /* \"#utility.yul\":7601:7967   */\n      swap2\n      swap1\n      pop\n      jump\t// out\n        /* \"#utility.yul\":7973:8392   */\n    tag_86:\n        /* \"#utility.yul\":8139:8143   */\n      0x00\n        /* \"#utility.yul\":8177:8179   */\n      0x20\n        /* \"#utility.yul\":8166:8175   */\n      dup3\n        /* \"#utility.yul\":8162:8180   */\n      add\n        /* \"#utility.yul\":8154:8180   */\n      swap1\n      pop\n        /* \"#utility.yul\":8226:8235   */\n      dup2\n        /* \"#utility.yul\":8220:8224   */\n      dup2\n        /* \"#utility.yul\":8216:8236   */\n      sub\n        /* \"#utility.yul\":8212:8213   */\n      0x00\n        /* \"#utility.yul\":8201:8210   */\n      dup4\n        /* \"#utility.yul\":8197:8214   */\n      add\n        /* \"#utility.yul\":8190:8237   */\n      mstore\n        /* \"#utility.yul\":8254:8385   */\n      tag_276\n        /* \"#utility.yul\":8380:8384   */\n      dup2\n        /* \"#utility.yul\":8254:8385   */\n      tag_178\n      jump\t// in\n    tag_276:\n        /* \"#utility.yul\":8246:8385   */\n      swap1\n      pop\n        /* \"#utility.yul\":7973:8392   */\n      swap2\n      swap1\n      pop\n      jump\t// out\n        /* \"#utility.yul\":8398:8592   */\n    tag_89:\n        /* \"#utility.yul\":8438:8442   */\n      0x00\n        /* \"#utility.yul\":8458:8478   */\n      tag_278\n        /* \"#utility.yul\":8476:8477   */\n      dup3\n        /* \"#utility.yul\":8458:8478   */\n      tag_156\n      jump\t// in\n    tag_278:\n        /* \"#utility.yul\":8453:8478   */\n      swap2\n      pop\n        /* \"#utility.yul\":8492:8512   */\n      tag_279\n        /* \"#utility.yul\":8510:8511   */\n      dup4\n        /* \"#utility.yul\":8492:8512   */\n      tag_156\n      jump\t// in\n    tag_279:\n        /* \"#utility.yul\":8487:8512   */\n      swap3\n      pop\n        /* \"#utility.yul\":8536:8537   */\n      dup3\n        /* \"#utility.yul\":8533:8534   */\n      dup3\n        /* \"#utility.yul\":8529:8538   */\n      sub\n        /* \"#utility.yul\":8521:8538   */\n      swap1\n      pop\n        /* \"#utility.yul\":8560:8561   */\n      dup2\n        /* \"#utility.yul\":8554:8558   */\n      dup2\n        /* \"#utility.yul\":8551:8562   */\n      gt\n        /* \"#utility.yul\":8548:8585   */\n      iszero\n      tag_280\n      jumpi\n        /* \"#utility.yul\":8565:8583   */\n      tag_281\n      tag_171\n      jump\t// in\n    tag_281:\n        /* \"#utility.yul\":8548:8585   */\n    tag_280:\n        /* \"#utility.yul\":8398:8592   */\n      swap3\n      swap2\n      pop\n      pop\n      jump\t// out\n        /* \"#utility.yul\":8598:8772   */\n    tag_179:\n        /* \"#utility.yul\":8738:8764   */\n      0x496e73756666696369656e742072657761726420706f6f6c0000000000000000\n        /* \"#utility.yul\":8734:8735   */\n      0x00\n        /* \"#utility.yul\":8726:8732   */\n      dup3\n        /* \"#utility.yul\":8722:8736   */\n      add\n        /* \"#utility.yul\":8715:8765   */\n      mstore\n        /* \"#utility.yul\":8598:8772   */\n      pop\n      jump\t// out\n        /* \"#utility.yul\":8778:9144   */\n    tag_180:\n        /* \"#utility.yul\":8920:8923   */\n      0x00\n        /* \"#utility.yul\":8941:9008   */\n      tag_284\n        /* \"#utility.yul\":9005:9007   */\n      0x18\n        /* \"#utility.yul\":9000:9003   */\n      dup4\n        /* \"#utility.yul\":8941:9008   */\n      tag_172\n      jump\t// in\n    tag_284:\n        /* \"#utility.yul\":8934:9008   */\n      swap2\n      pop\n        /* \"#utility.yul\":9017:9110   */\n      tag_285\n        /* \"#utility.yul\":9106:9109   */\n      dup3\n        /* \"#utility.yul\":9017:9110   */\n      tag_179\n      jump\t// in\n    tag_285:\n        /* \"#utility.yul\":9135:9137   */\n      0x20\n        /* \"#utility.yul\":9130:9133   */\n      dup3\n        /* \"#utility.yul\":9126:9138   */\n      add\n        /* \"#utility.yul\":9119:9138   */\n      swap1\n      pop\n        /* \"#utility.yul\":8778:9144   */\n      swap2\n      swap1\n      pop\n      jump\t// out\n        /* \"#utility.yul\":9150:9569   */\n    tag_93:\n        /* \"#utility.yul\":9316:9320   */\n      0x00\n        /* \"#utility.yul\":9354:9356   */\n      0x20\n        /* \"#utility.yul\":9343:9352   */\n      dup3\n        /* \"#utility.yul\":9339:9357   */\n      add\n        /* \"#utility.yul\":9331:9357   */\n      swap1\n      pop\n        /* \"#utility.yul\":9403:9412   */\n      dup2\n        /* \"#utility.yul\":9397:9401   */\n      dup2\n        /* \"#utility.yul\":9393:9413   */\n      sub\n        /* \"#utility.yul\":9389:9390   */\n      0x00\n        /* \"#utility.yul\":9378:9387   */\n      dup4\n        /* \"#utility.yul\":9374:9391   */\n      add\n        /* \"#utility.yul\":9367:9414   */\n      mstore\n        /* \"#utility.yul\":9431:9562   */\n      tag_287\n        /* \"#utility.yul\":9557:9561   */\n      dup2\n        /* \"#utility.yul\":9431:9562   */\n      tag_180\n      jump\t// in\n    tag_287:\n        /* \"#utility.yul\":9423:9562   */\n      swap1\n      pop\n        /* \"#utility.yul\":9150:9569   */\n      swap2\n      swap1\n      pop\n      jump\t// out\n        /* \"#utility.yul\":9575:9693   */\n    tag_181:\n        /* \"#utility.yul\":9662:9686   */\n      tag_289\n        /* \"#utility.yul\":9680:9685   */\n      dup2\n        /* \"#utility.yul\":9662:9686   */\n      tag_166\n      jump\t// in\n    tag_289:\n        /* \"#utility.yul\":9657:9660   */\n      dup3\n        /* \"#utility.yul\":9650:9687   */\n      mstore\n        /* \"#utility.yul\":9575:9693   */\n      pop\n      pop\n      jump\t// out\n        /* \"#utility.yul\":9699:10141   */\n    tag_103:\n        /* \"#utility.yul\":9848:9852   */\n      0x00\n        /* \"#utility.yul\":9886:9888   */\n      0x60\n        /* \"#utility.yul\":9875:9884   */\n      dup3\n        /* \"#utility.yul\":9871:9889   */\n      add\n        /* \"#utility.yul\":9863:9889   */\n      swap1\n      pop\n        /* \"#utility.yul\":9899:9970   */\n      tag_291\n        /* \"#utility.yul\":9967:9968   */\n      0x00\n        /* \"#utility.yul\":9956:9965   */\n      dup4\n        /* \"#utility.yul\":9952:9969   */\n      add\n        /* \"#utility.yul\":9943:9949   */\n      dup7\n        /* \"#utility.yul\":9899:9970   */\n      tag_181\n      jump\t// in\n    tag_291:\n        /* \"#utility.yul\":9980:10052   */\n      tag_292\n        /* \"#utility.yul\":10048:10050   */\n      0x20\n        /* \"#utility.yul\":10037:10046   */\n      dup4\n        /* \"#utility.yul\":10033:10051   */\n      add\n        /* \"#utility.yul\":10024:10030   */\n      dup6\n        /* \"#utility.yul\":9980:10052   */\n      tag_181\n      jump\t// in\n    tag_292:\n        /* \"#utility.yul\":10062:10134   */\n      tag_293\n        /* \"#utility.yul\":10130:10132   */\n      0x40\n        /* \"#utility.yul\":10119:10128   */\n      dup4\n        /* \"#utility.yul\":10115:10133   */\n      add\n        /* \"#utility.yul\":10106:10112   */\n      dup5\n        /* \"#utility.yul\":10062:10134   */\n      tag_159\n      jump\t// in\n    tag_293:\n        /* \"#utility.yul\":9699:10141   */\n      swap5\n      swap4\n      pop\n      pop\n      pop\n      pop\n      jump\t// out\n        /* \"#utility.yul\":10147:10328   */\n    tag_182:\n        /* \"#utility.yul\":10287:10320   */\n      0x5265656e7472616e637947756172643a207265656e7472616e742063616c6c00\n        /* \"#utility.yul\":10283:10284   */\n      0x00\n        /* \"#utility.yul\":10275:10281   */\n      dup3\n        /* \"#utility.yul\":10271:10285   */\n      add\n        /* \"#utility.yul\":10264:10321   */\n      mstore\n        /* \"#utility.yul\":10147:10328   */\n      pop\n      jump\t// out\n        /* \"#utility.yul\":10334:10700   */\n    tag_183:\n        /* \"#utility.yul\":10476:10479   */\n      0x00\n        /* \"#utility.yul\":10497:10564   */\n      tag_296\n        /* \"#utility.yul\":10561:10563   */\n      0x1f\n        /* \"#utility.yul\":10556:10559   */\n      dup4\n        /* \"#utility.yul\":10497:10564   */\n      tag_172\n      jump\t// in\n    tag_296:\n        /* \"#utility.yul\":10490:10564   */\n      swap2\n      pop\n        /* \"#utility.yul\":10573:10666   */\n      tag_297\n        /* \"#utility.yul\":10662:10665   */\n      dup3\n        /* \"#utility.yul\":10573:10666   */\n      tag_182\n      jump\t// in\n    tag_297:\n        /* \"#utility.yul\":10691:10693   */\n      0x20\n        /* \"#utility.yul\":10686:10689   */\n      dup3\n        /* \"#utility.yul\":10682:10694   */\n      add\n        /* \"#utility.yul\":10675:10694   */\n      swap1\n      pop\n        /* \"#utility.yul\":10334:10700   */\n      swap2\n      swap1\n      pop\n      jump\t// out\n        /* \"#utility.yul\":10706:11125   */\n    tag_108:\n        /* \"#utility.yul\":10872:10876   */\n      0x00\n        /* \"#utility.yul\":10910:10912   */\n      0x20\n        /* \"#utility.yul\":10899:10908   */\n      dup3\n        /* \"#utility.yul\":10895:10913   */\n      add\n        /* \"#utility.yul\":10887:10913   */\n      swap1\n      pop\n        /* \"#utility.yul\":10959:10968   */\n      dup2\n        /* \"#utility.yul\":10953:10957   */\n      dup2\n        /* \"#utility.yul\":10949:10969   */\n      sub\n        /* \"#utility.yul\":10945:10946   */\n      0x00\n        /* \"#utility.yul\":10934:10943   */\n      dup4\n        /* \"#utility.yul\":10930:10947   */\n      add\n        /* \"#utility.yul\":10923:10970   */\n      mstore\n        /* \"#utility.yul\":10987:11118   */\n      tag_299\n        /* \"#utility.yul\":11113:11117   */\n      dup2\n        /* \"#utility.yul\":10987:11118   */\n      tag_183\n      jump\t// in\n    tag_299:\n        /* \"#utility.yul\":10979:11118   */\n      swap1\n      pop\n        /* \"#utility.yul\":10706:11125   */\n      swap2\n      swap1\n      pop\n      jump\t// out\n        /* \"#utility.yul\":11131:11541   */\n    tag_112:\n        /* \"#utility.yul\":11171:11178   */\n      0x00\n        /* \"#utility.yul\":11194:11214   */\n      tag_301\n        /* \"#utility.yul\":11212:11213   */\n      dup3\n        /* \"#utility.yul\":11194:11214   */\n      tag_156\n      jump\t// in\n    tag_301:\n        /* \"#utility.yul\":11189:11214   */\n      swap2\n      pop\n        /* \"#utility.yul\":11228:11248   */\n      tag_302\n        /* \"#utility.yul\":11246:11247   */\n      dup4\n        /* \"#utility.yul\":11228:11248   */\n      tag_156\n      jump\t// in\n    tag_302:\n        /* \"#utility.yul\":11223:11248   */\n      swap3\n      pop\n        /* \"#utility.yul\":11283:11284   */\n      dup3\n        /* \"#utility.yul\":11280:11281   */\n      dup3\n        /* \"#utility.yul\":11276:11285   */\n      mul\n        /* \"#utility.yul\":11305:11335   */\n      tag_303\n        /* \"#utility.yul\":11323:11334   */\n      dup2\n        /* \"#utility.yul\":11305:11335   */\n      tag_156\n      jump\t// in\n    tag_303:\n        /* \"#utility.yul\":11294:11335   */\n      swap2\n      pop\n        /* \"#utility.yul\":11484:11485   */\n      dup3\n        /* \"#utility.yul\":11475:11482   */\n      dup3\n        /* \"#utility.yul\":11471:11486   */\n      div\n        /* \"#utility.yul\":11468:11469   */\n      dup5\n        /* \"#utility.yul\":11465:11487   */\n      eq\n        /* \"#utility.yul\":11445:11446   */\n      dup4\n        /* \"#utility.yul\":11438:11447   */\n      iszero\n        /* \"#utility.yul\":11418:11501   */\n      or\n        /* \"#utility.yul\":11395:11534   */\n      tag_304\n      jumpi\n        /* \"#utility.yul\":11514:11532   */\n      tag_305\n      tag_171\n      jump\t// in\n    tag_305:\n        /* \"#utility.yul\":11395:11534   */\n    tag_304:\n        /* \"#utility.yul\":11179:11541   */\n      pop\n        /* \"#utility.yul\":11131:11541   */\n      swap3\n      swap2\n      pop\n      pop\n      jump\t// out\n        /* \"#utility.yul\":11547:11727   */\n    tag_184:\n        /* \"#utility.yul\":11595:11672   */\n      0x4e487b7100000000000000000000000000000000000000000000000000000000\n        /* \"#utility.yul\":11592:11593   */\n      0x00\n        /* \"#utility.yul\":11585:11673   */\n      mstore\n        /* \"#utility.yul\":11692:11696   */\n      0x12\n        /* \"#utility.yul\":11689:11690   */\n      0x04\n        /* \"#utility.yul\":11682:11697   */\n      mstore\n        /* \"#utility.yul\":11716:11720   */\n      0x24\n        /* \"#utility.yul\":11713:11714   */\n      0x00\n        /* \"#utility.yul\":11706:11721   */\n      revert\n        /* \"#utility.yul\":11733:11918   */\n    tag_114:\n        /* \"#utility.yul\":11773:11774   */\n      0x00\n        /* \"#utility.yul\":11790:11810   */\n      tag_308\n        /* \"#utility.yul\":11808:11809   */\n      dup3\n        /* \"#utility.yul\":11790:11810   */\n      tag_156\n      jump\t// in\n    tag_308:\n        /* \"#utility.yul\":11785:11810   */\n      swap2\n      pop\n        /* \"#utility.yul\":11824:11844   */\n      tag_309\n        /* \"#utility.yul\":11842:11843   */\n      dup4\n        /* \"#utility.yul\":11824:11844   */\n      tag_156\n      jump\t// in\n    tag_309:\n        /* \"#utility.yul\":11819:11844   */\n      swap3\n      pop\n        /* \"#utility.yul\":11863:11864   */\n      dup3\n        /* \"#utility.yul\":11853:11888   */\n      tag_310\n      jumpi\n        /* \"#utility.yul\":11868:11886   */\n      tag_311\n      tag_184\n      jump\t// in\n    tag_311:\n        /* \"#utility.yul\":11853:11888   */\n    tag_310:\n        /* \"#utility.yul\":11910:11911   */\n      dup3\n        /* \"#utility.yul\":11907:11908   */\n      dup3\n        /* \"#utility.yul\":11903:11912   */\n      div\n        /* \"#utility.yul\":11898:11912   */\n      swap1\n      pop\n        /* \"#utility.yul\":11733:11918   */\n      swap3\n      swap2\n      pop\n      pop\n      jump\t// out\n        /* \"#utility.yul\":11924:12256   */\n    tag_119:\n        /* \"#utility.yul\":12045:12049   */\n      0x00\n        /* \"#utility.yul\":12083:12085   */\n      0x40\n        /* \"#utility.yul\":12072:12081   */\n      dup3\n        /* \"#utility.yul\":12068:12086   */\n      add\n        /* \"#utility.yul\":12060:12086   */\n      swap1\n      pop\n        /* \"#utility.yul\":12096:12167   */\n      tag_313\n        /* \"#utility.yul\":12164:12165   */\n      0x00\n        /* \"#utility.yul\":12153:12162   */\n      dup4\n        /* \"#utility.yul\":12149:12166   */\n      add\n        /* \"#utility.yul\":12140:12146   */\n      dup6\n        /* \"#utility.yul\":12096:12167   */\n      tag_181\n      jump\t// in\n    tag_313:\n        /* \"#utility.yul\":12177:12249   */\n      tag_314\n        /* \"#utility.yul\":12245:12247   */\n      0x20\n        /* \"#utility.yul\":12234:12243   */\n      dup4\n        /* \"#utility.yul\":12230:12248   */\n      add\n        /* \"#utility.yul\":12221:12227   */\n      dup5\n        /* \"#utility.yul\":12177:12249   */\n      tag_159\n      jump\t// in\n    tag_314:\n        /* \"#utility.yul\":11924:12256   */\n      swap4\n      swap3\n      pop\n      pop\n      pop\n      jump\t// out\n        /* \"#utility.yul\":12262:12378   */\n    tag_185:\n        /* \"#utility.yul\":12332:12353   */\n      tag_316\n        /* \"#utility.yul\":12347:12352   */\n      dup2\n        /* \"#utility.yul\":12332:12353   */\n      tag_169\n      jump\t// in\n    tag_316:\n        /* \"#utility.yul\":12325:12330   */\n      dup2\n        /* \"#utility.yul\":12322:12354   */\n      eq\n        /* \"#utility.yul\":12312:12372   */\n      tag_317\n      jumpi\n        /* \"#utility.yul\":12368:12369   */\n      0x00\n        /* \"#utility.yul\":12365:12366   */\n      0x00\n        /* \"#utility.yul\":12358:12370   */\n      revert\n        /* \"#utility.yul\":12312:12372   */\n    tag_317:\n        /* \"#utility.yul\":12262:12378   */\n      pop\n      jump\t// out\n        /* \"#utility.yul\":12384:12521   */\n    tag_186:\n        /* \"#utility.yul\":12438:12443   */\n      0x00\n        /* \"#utility.yul\":12469:12475   */\n      dup2\n        /* \"#utility.yul\":12463:12476   */\n      mload\n        /* \"#utility.yul\":12454:12476   */\n      swap1\n      pop\n        /* \"#utility.yul\":12485:12515   */\n      tag_319\n        /* \"#utility.yul\":12509:12514   */\n      dup2\n        /* \"#utility.yul\":12485:12515   */\n      tag_185\n      jump\t// in\n    tag_319:\n        /* \"#utility.yul\":12384:12521   */\n      swap3\n      swap2\n      pop\n      pop\n      jump\t// out\n        /* \"#utility.yul\":12527:12872   */\n    tag_125:\n        /* \"#utility.yul\":12594:12600   */\n      0x00\n        /* \"#utility.yul\":12643:12645   */\n      0x20\n        /* \"#utility.yul\":12631:12640   */\n      dup3\n        /* \"#utility.yul\":12622:12629   */\n      dup5\n        /* \"#utility.yul\":12618:12641   */\n      sub\n        /* \"#utility.yul\":12614:12646   */\n      slt\n        /* \"#utility.yul\":12611:12730   */\n      iszero\n      tag_321\n      jumpi\n        /* \"#utility.yul\":12649:12728   */\n      tag_322\n      tag_154\n      jump\t// in\n    tag_322:\n        /* \"#utility.yul\":12611:12730   */\n    tag_321:\n        /* \"#utility.yul\":12769:12770   */\n      0x00\n        /* \"#utility.yul\":12794:12855   */\n      tag_323\n        /* \"#utility.yul\":12847:12854   */\n      dup5\n        /* \"#utility.yul\":12838:12844   */\n      dup3\n        /* \"#utility.yul\":12827:12836   */\n      dup6\n        /* \"#utility.yul\":12823:12845   */\n      add\n        /* \"#utility.yul\":12794:12855   */\n      tag_186\n      jump\t// in\n    tag_323:\n        /* \"#utility.yul\":12784:12855   */\n      swap2\n      pop\n        /* \"#utility.yul\":12740:12865   */\n      pop\n        /* \"#utility.yul\":12527:12872   */\n      swap3\n      swap2\n      pop\n      pop\n      jump\t// out\n        /* \"#utility.yul\":12878:13100   */\n    tag_128:\n        /* \"#utility.yul\":12971:12975   */\n      0x00\n        /* \"#utility.yul\":13009:13011   */\n      0x20\n        /* \"#utility.yul\":12998:13007   */\n      dup3\n        /* \"#utility.yul\":12994:13012   */\n      add\n        /* \"#utility.yul\":12986:13012   */\n      swap1\n      pop\n        /* \"#utility.yul\":13022:13093   */\n      tag_325\n        /* \"#utility.yul\":13090:13091   */\n      0x00\n        /* \"#utility.yul\":13079:13088   */\n      dup4\n        /* \"#utility.yul\":13075:13092   */\n      add\n        /* \"#utility.yul\":13066:13072   */\n      dup5\n        /* \"#utility.yul\":13022:13093   */\n      tag_181\n      jump\t// in\n    tag_325:\n        /* \"#utility.yul\":12878:13100   */\n      swap3\n      swap2\n      pop\n      pop\n      jump\t// out\n        /* \"#utility.yul\":13106:13204   */\n    tag_187:\n        /* \"#utility.yul\":13157:13163   */\n      0x00\n        /* \"#utility.yul\":13191:13196   */\n      dup2\n        /* \"#utility.yul\":13185:13197   */\n      mload\n        /* \"#utility.yul\":13175:13197   */\n      swap1\n      pop\n        /* \"#utility.yul\":13106:13204   */\n      swap2\n      swap1\n      pop\n      jump\t// out\n        /* \"#utility.yul\":13210:13357   */\n    tag_188:\n        /* \"#utility.yul\":13311:13322   */\n      0x00\n        /* \"#utility.yul\":13348:13351   */\n      dup2\n        /* \"#utility.yul\":13333:13351   */\n      swap1\n      pop\n        /* \"#utility.yul\":13210:13357   */\n      swap3\n      swap2\n      pop\n      pop\n      jump\t// out\n        /* \"#utility.yul\":13363:13502   */\n    tag_189:\n        /* \"#utility.yul\":13452:13458   */\n      dup3\n        /* \"#utility.yul\":13447:13450   */\n      dup2\n        /* \"#utility.yul\":13442:13445   */\n      dup4\n        /* \"#utility.yul\":13436:13459   */\n      mcopy\n        /* \"#utility.yul\":13493:13494   */\n      0x00\n        /* \"#utility.yul\":13484:13490   */\n      dup4\n        /* \"#utility.yul\":13479:13482   */\n      dup4\n        /* \"#utility.yul\":13475:13491   */\n      add\n        /* \"#utility.yul\":13468:13495   */\n      mstore\n        /* \"#utility.yul\":13363:13502   */\n      pop\n      pop\n      pop\n      jump\t// out\n        /* \"#utility.yul\":13508:13894   */\n    tag_190:\n        /* \"#utility.yul\":13612:13615   */\n      0x00\n        /* \"#utility.yul\":13640:13678   */\n      tag_330\n        /* \"#utility.yul\":13672:13677   */\n      dup3\n        /* \"#utility.yul\":13640:13678   */\n      tag_187\n      jump\t// in\n    tag_330:\n        /* \"#utility.yul\":13694:13782   */\n      tag_331\n        /* \"#utility.yul\":13775:13781   */\n      dup2\n        /* \"#utility.yul\":13770:13773   */\n      dup6\n        /* \"#utility.yul\":13694:13782   */\n      tag_188\n      jump\t// in\n    tag_331:\n        /* \"#utility.yul\":13687:13782   */\n      swap4\n      pop\n        /* \"#utility.yul\":13791:13856   */\n      tag_332\n        /* \"#utility.yul\":13849:13855   */\n      dup2\n        /* \"#utility.yul\":13844:13847   */\n      dup6\n        /* \"#utility.yul\":13837:13841   */\n      0x20\n        /* \"#utility.yul\":13830:13835   */\n      dup7\n        /* \"#utility.yul\":13826:13842   */\n      add\n        /* \"#utility.yul\":13791:13856   */\n      tag_189\n      jump\t// in\n    tag_332:\n        /* \"#utility.yul\":13881:13887   */\n      dup1\n        /* \"#utility.yul\":13876:13879   */\n      dup5\n        /* \"#utility.yul\":13872:13888   */\n      add\n        /* \"#utility.yul\":13865:13888   */\n      swap2\n      pop\n        /* \"#utility.yul\":13616:13894   */\n      pop\n        /* \"#utility.yul\":13508:13894   */\n      swap3\n      swap2\n      pop\n      pop\n      jump\t// out\n        /* \"#utility.yul\":13900:14171   */\n    tag_136:\n        /* \"#utility.yul\":14030:14033   */\n      0x00\n        /* \"#utility.yul\":14052:14145   */\n      tag_334\n        /* \"#utility.yul\":14141:14144   */\n      dup3\n        /* \"#utility.yul\":14132:14138   */\n      dup5\n        /* \"#utility.yul\":14052:14145   */\n      tag_190\n      jump\t// in\n    tag_334:\n        /* \"#utility.yul\":14045:14145   */\n      swap2\n      pop\n        /* \"#utility.yul\":14162:14165   */\n      dup2\n        /* \"#utility.yul\":14155:14165   */\n      swap1\n      pop\n        /* \"#utility.yul\":13900:14171   */\n      swap3\n      swap2\n      pop\n      pop\n      jump\t// out\n\n    auxdata: 0xa2646970667358221220088f596a1ca9ce215cedcd8a0bbde6017813c39aba47f7d652d4e4f3051ead4264736f6c634300081b0033\n}\n",
				"bytecode": {
					"linkReferences": {},
					"object": "608060405234801561000f575f5ffd5b506040516114923803806114928339818101604052810190610031919061012e565b60015f819055508160015f6101000a81548173ffffffffffffffffffffffffffffffffffffffff021916908373ffffffffffffffffffffffffffffffffffffffff1602179055508060025f6101000a81548173ffffffffffffffffffffffffffffffffffffffff021916908373ffffffffffffffffffffffffffffffffffffffff160217905550505061016c565b5f5ffd5b5f73ffffffffffffffffffffffffffffffffffffffff82169050919050565b5f6100ec826100c3565b9050919050565b5f6100fd826100e2565b9050919050565b61010d816100f3565b8114610117575f5ffd5b50565b5f8151905061012881610104565b92915050565b5f5f60408385031215610144576101436100bf565b5b5f6101518582860161011a565b92505060206101628582860161011a565b9150509250929050565b611319806101795f395ff3fe608060405234801561000f575f5ffd5b50600436106100a7575f3560e01c8063750142e61161006f578063750142e6146101525780639168ae72146101705780639af01c2d146101a3578063a67e12a8146101c1578063f7c618c1146101f1578063f985021a1461020f576100a7565b80631d583e0d146100ab5780633b7b6188146100c75780634ad84b34146100e357806372f702f314610101578063733bdef01461011f575b5f5ffd5b6100c560048036038101906100c09190610c32565b610219565b005b6100e160048036038101906100dc9190610c5d565b61029a565b005b6100eb610413565b6040516100f89190610caa565b60405180910390f35b610109610419565b6040516101169190610d3d565b60405180910390f35b61013960048036038101906101349190610d91565b61043e565b6040516101499493929190610dd6565b60405180910390f35b61015a6104e7565b6040516101679190610caa565b60405180910390f35b61018a60048036038101906101859190610d91565b6104ed565b60405161019a9493929190610dd6565b60405180910390f35b6101ab610525565b6040516101b89190610caa565b60405180910390f35b6101db60048036038101906101d69190610d91565b610532565b6040516101e89190610e19565b60405180910390f35b6101f9610587565b6040516102069190610d3d565b60405180910390f35b6102176105ac565b005b8060035f82825461022a9190610e5f565b925050819055508060045f8282546102429190610e5f565b9250508190555061029733308360025f9054906101000a900473ffffffffffffffffffffffffffffffffffffffff1673ffffffffffffffffffffffffffffffffffffffff16610828909392919063ffffffff16565b50565b6102a26108aa565b5f60055f3373ffffffffffffffffffffffffffffffffffffffff1673ffffffffffffffffffffffffffffffffffffffff1681526020019081526020015f2090505f815f015414610327576040517f08c379a000000000000000000000000000000000000000000000000000000000815260040161031e90610eec565b60405180910390fd5b82815f0181905550818160010181905550428160020181905550683635c9adc5dea00000831015816003015f6101000a81548160ff0219169083151502179055506103b633308560015f9054906101000a900473ffffffffffffffffffffffffffffffffffffffff1673ffffffffffffffffffffffffffffffffffffffff16610828909392919063ffffffff16565b3373ffffffffffffffffffffffffffffffffffffffff167f5af417134f72a9d41143ace85b0a26dce6f550f894f2cbc1eeee8810603d91b684846040516103fe929190610f0a565b60405180910390a25061040f6108f7565b5050565b60045481565b60015f9054906101000a900473ffffffffffffffffffffffffffffffffffffffff1681565b5f5f5f5f5f60055f8773ffffffffffffffffffffffffffffffffffffffff1673ffffffffffffffffffffffffffffffffffffffff1681526020019081526020015f206040518060800160405290815f82015481526020016001820154815260200160028201548152602001600382015f9054906101000a900460ff1615151515815250509050805f01518160200151826040015183606001519450945094509450509193509193565b60035481565b6005602052805f5260405f205f91509050805f015490806001015490806002015490806003015f9054906101000a900460ff16905084565b683635c9adc5dea0000081565b5f60055f8373ffffffffffffffffffffffffffffffffffffffff1673ffffffffffffffffffffffffffffffffffffffff1681526020019081526020015f206003015f9054906101000a900460ff169050919050565b60025f9054906101000a900473ffffffffffffffffffffffffffffffffffffffff1681565b6105b46108aa565b5f60055f3373ffffffffffffffffffffffffffffffffffffffff1673ffffffffffffffffffffffffffffffffffffffff1681526020019081526020015f2090505f815f015411610639576040517f08c379a000000000000000000000000000000000000000000000000000000000815260040161063090610f7b565b60405180910390fd5b8060010154816002015461064d9190610e5f565b42101561068f576040517f08c379a000000000000000000000000000000000000000000000000000000000815260040161068690610fe3565b60405180910390fd5b5f6106ac825f01548360020154426106a79190611001565b610900565b90508060045410156106f3576040517f08c379a00000000000000000000000000000000000000000000000000000000081526004016106ea9061107e565b60405180910390fd5b61074233835f015460015f9054906101000a900473ffffffffffffffffffffffffffffffffffffffff1673ffffffffffffffffffffffffffffffffffffffff166109389092919063ffffffff16565b61078e338260025f9054906101000a900473ffffffffffffffffffffffffffffffffffffffff1673ffffffffffffffffffffffffffffffffffffffff166109389092919063ffffffff16565b8060045f82825461079f9190611001565b925050819055503373ffffffffffffffffffffffffffffffffffffffff167ff960dbf9e5d0682f7a298ed974e33a28b4464914b7a2bfac12ae419a9afeb280835f0154836040516107f1929190610f0a565b60405180910390a25f825f01819055505f826003015f6101000a81548160ff02191690831515021790555050506108266108f7565b565b6108a4848573ffffffffffffffffffffffffffffffffffffffff166323b872dd86868660405160240161085d939291906110ab565b604051602081830303815290604052915060e01b6020820180517bffffffffffffffffffffffffffffffffffffffffffffffffffffffff83818316178352505050506109b7565b50505050565b60025f54036108ee576040517f08c379a00000000000000000000000000000000000000000000000000000000081526004016108e59061112a565b60405180910390fd5b60025f81905550565b60015f81905550565b5f5f62278d0083856109129190611148565b61091c91906111b6565b905060045481111561092e5760045490505b8091505092915050565b6109b2838473ffffffffffffffffffffffffffffffffffffffff1663a9059cbb858560405160240161096b9291906111e6565b604051602081830303815290604052915060e01b6020820180517bffffffffffffffffffffffffffffffffffffffffffffffffffffffff83818316178352505050506109b7565b505050565b5f6109e1828473ffffffffffffffffffffffffffffffffffffffff16610a4c90919063ffffffff16565b90505f815114158015610a05575080806020019051810190610a039190611237565b155b15610a4757826040517f5274afe7000000000000000000000000000000000000000000000000000000008152600401610a3e9190611262565b60405180910390fd5b505050565b6060610a5983835f610a61565b905092915050565b606081471015610aa857306040517fcd786059000000000000000000000000000000000000000000000000000000008152600401610a9f9190611262565b60405180910390fd5b5f5f8573ffffffffffffffffffffffffffffffffffffffff168486604051610ad091906112cd565b5f6040518083038185875af1925050503d805f8114610b0a576040519150601f19603f3d011682016040523d82523d5f602084013e610b0f565b606091505b5091509150610b1f868383610b2a565b925050509392505050565b606082610b3f57610b3a82610bb7565b610baf565b5f8251148015610b6557505f8473ffffffffffffffffffffffffffffffffffffffff163b145b15610ba757836040517f9996b315000000000000000000000000000000000000000000000000000000008152600401610b9e9190611262565b60405180910390fd5b819050610bb0565b5b9392505050565b5f81511115610bc95780518082602001fd5b6040517f1425ea4200000000000000000000000000000000000000000000000000000000815260040160405180910390fd5b5f5ffd5b5f819050919050565b610c1181610bff565b8114610c1b575f5ffd5b50565b5f81359050610c2c81610c08565b92915050565b5f60208284031215610c4757610c46610bfb565b5b5f610c5484828501610c1e565b91505092915050565b5f5f60408385031215610c7357610c72610bfb565b5b5f610c8085828601610c1e565b9250506020610c9185828601610c1e565b9150509250929050565b610ca481610bff565b82525050565b5f602082019050610cbd5f830184610c9b565b92915050565b5f73ffffffffffffffffffffffffffffffffffffffff82169050919050565b5f819050919050565b5f610d05610d00610cfb84610cc3565b610ce2565b610cc3565b9050919050565b5f610d1682610ceb565b9050919050565b5f610d2782610d0c565b9050919050565b610d3781610d1d565b82525050565b5f602082019050610d505f830184610d2e565b92915050565b5f610d6082610cc3565b9050919050565b610d7081610d56565b8114610d7a575f5ffd5b50565b5f81359050610d8b81610d67565b92915050565b5f60208284031215610da657610da5610bfb565b5b5f610db384828501610d7d565b91505092915050565b5f8115159050919050565b610dd081610dbc565b82525050565b5f608082019050610de95f830187610c9b565b610df66020830186610c9b565b610e036040830185610c9b565b610e106060830184610dc7565b95945050505050565b5f602082019050610e2c5f830184610dc7565b92915050565b7f4e487b71000000000000000000000000000000000000000000000000000000005f52601160045260245ffd5b5f610e6982610bff565b9150610e7483610bff565b9250828201905080821115610e8c57610e8b610e32565b5b92915050565b5f82825260208201905092915050565b7f416c7265616479207374616b65640000000000000000000000000000000000005f82015250565b5f610ed6600e83610e92565b9150610ee182610ea2565b602082019050919050565b5f6020820190508181035f830152610f0381610eca565b9050919050565b5f604082019050610f1d5f830185610c9b565b610f2a6020830184610c9b565b9392505050565b7f4e6f20746f6b656e73207374616b6564000000000000000000000000000000005f82015250565b5f610f65601083610e92565b9150610f7082610f31565b602082019050919050565b5f6020820190508181035f830152610f9281610f59565b9050919050565b7f5374616b696e6720706572696f64206e6f7420636f6d706c65746500000000005f82015250565b5f610fcd601b83610e92565b9150610fd882610f99565b602082019050919050565b5f6020820190508181035f830152610ffa81610fc1565b9050919050565b5f61100b82610bff565b915061101683610bff565b925082820390508181111561102e5761102d610e32565b5b92915050565b7f496e73756666696369656e742072657761726420706f6f6c00000000000000005f82015250565b5f611068601883610e92565b915061107382611034565b602082019050919050565b5f6020820190508181035f8301526110958161105c565b9050919050565b6110a581610d56565b82525050565b5f6060820190506110be5f83018661109c565b6110cb602083018561109c565b6110d86040830184610c9b565b949350505050565b7f5265656e7472616e637947756172643a207265656e7472616e742063616c6c005f82015250565b5f611114601f83610e92565b915061111f826110e0565b602082019050919050565b5f6020820190508181035f83015261114181611108565b9050919050565b5f61115282610bff565b915061115d83610bff565b925082820261116b81610bff565b9150828204841483151761118257611181610e32565b5b5092915050565b7f4e487b71000000000000000000000000000000000000000000000000000000005f52601260045260245ffd5b5f6111c082610bff565b91506111cb83610bff565b9250826111db576111da611189565b5b828204905092915050565b5f6040820190506111f95f83018561109c565b6112066020830184610c9b565b9392505050565b61121681610dbc565b8114611220575f5ffd5b50565b5f815190506112318161120d565b92915050565b5f6020828403121561124c5761124b610bfb565b5b5f61125984828501611223565b91505092915050565b5f6020820190506112755f83018461109c565b92915050565b5f81519050919050565b5f81905092915050565b8281835e5f83830152505050565b5f6112a78261127b565b6112b18185611285565b93506112c181856020860161128f565b80840191505092915050565b5f6112d8828461129d565b91508190509291505056fea2646970667358221220088f596a1ca9ce215cedcd8a0bbde6017813c39aba47f7d652d4e4f3051ead4264736f6c634300081b0033",
					"opcodes": "PUSH1 0x80 PUSH1 0x40 MSTORE CALLVALUE DUP1 ISZERO PUSH2 0xF JUMPI PUSH0 PUSH0 REVERT JUMPDEST POP PUSH1 0x40 MLOAD PUSH2 0x1492 CODESIZE SUB DUP1 PUSH2 0x1492 DUP4 CODECOPY DUP2 DUP2 ADD PUSH1 0x40 MSTORE DUP2 ADD SWAP1 PUSH2 0x31 SWAP2 SWAP1 PUSH2 0x12E JUMP JUMPDEST PUSH1 0x1 PUSH0 DUP2 SWAP1 SSTORE POP DUP2 PUSH1 0x1 PUSH0 PUSH2 0x100 EXP DUP2 SLOAD DUP2 PUSH20 0xFFFFFFFFFFFFFFFFFFFFFFFFFFFFFFFFFFFFFFFF MUL NOT AND SWAP1 DUP4 PUSH20 0xFFFFFFFFFFFFFFFFFFFFFFFFFFFFFFFFFFFFFFFF AND MUL OR SWAP1 SSTORE POP DUP1 PUSH1 0x2 PUSH0 PUSH2 0x100 EXP DUP2 SLOAD DUP2 PUSH20 0xFFFFFFFFFFFFFFFFFFFFFFFFFFFFFFFFFFFFFFFF MUL NOT AND SWAP1 DUP4 PUSH20 0xFFFFFFFFFFFFFFFFFFFFFFFFFFFFFFFFFFFFFFFF AND MUL OR SWAP1 SSTORE POP POP POP PUSH2 0x16C JUMP JUMPDEST PUSH0 PUSH0 REVERT JUMPDEST PUSH0 PUSH20 0xFFFFFFFFFFFFFFFFFFFFFFFFFFFFFFFFFFFFFFFF DUP3 AND SWAP1 POP SWAP2 SWAP1 POP JUMP JUMPDEST PUSH0 PUSH2 0xEC DUP3 PUSH2 0xC3 JUMP JUMPDEST SWAP1 POP SWAP2 SWAP1 POP JUMP JUMPDEST PUSH0 PUSH2 0xFD DUP3 PUSH2 0xE2 JUMP JUMPDEST SWAP1 POP SWAP2 SWAP1 POP JUMP JUMPDEST PUSH2 0x10D DUP2 PUSH2 0xF3 JUMP JUMPDEST DUP2 EQ PUSH2 0x117 JUMPI PUSH0 PUSH0 REVERT JUMPDEST POP JUMP JUMPDEST PUSH0 DUP2 MLOAD SWAP1 POP PUSH2 0x128 DUP2 PUSH2 0x104 JUMP JUMPDEST SWAP3 SWAP2 POP POP JUMP JUMPDEST PUSH0 PUSH0 PUSH1 0x40 DUP4 DUP6 SUB SLT ISZERO PUSH2 0x144 JUMPI PUSH2 0x143 PUSH2 0xBF JUMP JUMPDEST JUMPDEST PUSH0 PUSH2 0x151 DUP6 DUP3 DUP7 ADD PUSH2 0x11A JUMP JUMPDEST SWAP3 POP POP PUSH1 0x20 PUSH2 0x162 DUP6 DUP3 DUP7 ADD PUSH2 0x11A JUMP JUMPDEST SWAP2 POP POP SWAP3 POP SWAP3 SWAP1 POP JUMP JUMPDEST PUSH2 0x1319 DUP1 PUSH2 0x179 PUSH0 CODECOPY PUSH0 RETURN INVALID PUSH1 0x80 PUSH1 0x40 MSTORE CALLVALUE DUP1 ISZERO PUSH2 0xF JUMPI PUSH0 PUSH0 REVERT JUMPDEST POP PUSH1 0x4 CALLDATASIZE LT PUSH2 0xA7 JUMPI PUSH0 CALLDATALOAD PUSH1 0xE0 SHR DUP1 PUSH4 0x750142E6 GT PUSH2 0x6F JUMPI DUP1 PUSH4 0x750142E6 EQ PUSH2 0x152 JUMPI DUP1 PUSH4 0x9168AE72 EQ PUSH2 0x170 JUMPI DUP1 PUSH4 0x9AF01C2D EQ PUSH2 0x1A3 JUMPI DUP1 PUSH4 0xA67E12A8 EQ PUSH2 0x1C1 JUMPI DUP1 PUSH4 0xF7C618C1 EQ PUSH2 0x1F1 JUMPI DUP1 PUSH4 0xF985021A EQ PUSH2 0x20F JUMPI PUSH2 0xA7 JUMP JUMPDEST DUP1 PUSH4 0x1D583E0D EQ PUSH2 0xAB JUMPI DUP1 PUSH4 0x3B7B6188 EQ PUSH2 0xC7 JUMPI DUP1 PUSH4 0x4AD84B34 EQ PUSH2 0xE3 JUMPI DUP1 PUSH4 0x72F702F3 EQ PUSH2 0x101 JUMPI DUP1 PUSH4 0x733BDEF0 EQ PUSH2 0x11F JUMPI JUMPDEST PUSH0 PUSH0 REVERT JUMPDEST PUSH2 0xC5 PUSH1 0x4 DUP1 CALLDATASIZE SUB DUP2 ADD SWAP1 PUSH2 0xC0 SWAP2 SWAP1 PUSH2 0xC32 JUMP JUMPDEST PUSH2 0x219 JUMP JUMPDEST STOP JUMPDEST PUSH2 0xE1 PUSH1 0x4 DUP1 CALLDATASIZE SUB DUP2 ADD SWAP1 PUSH2 0xDC SWAP2 SWAP1 PUSH2 0xC5D JUMP JUMPDEST PUSH2 0x29A JUMP JUMPDEST STOP JUMPDEST PUSH2 0xEB PUSH2 0x413 JUMP JUMPDEST PUSH1 0x40 MLOAD PUSH2 0xF8 SWAP2 SWAP1 PUSH2 0xCAA JUMP JUMPDEST PUSH1 0x40 MLOAD DUP1 SWAP2 SUB SWAP1 RETURN JUMPDEST PUSH2 0x109 PUSH2 0x419 JUMP JUMPDEST PUSH1 0x40 MLOAD PUSH2 0x116 SWAP2 SWAP1 PUSH2 0xD3D JUMP JUMPDEST PUSH1 0x40 MLOAD DUP1 SWAP2 SUB SWAP1 RETURN JUMPDEST PUSH2 0x139 PUSH1 0x4 DUP1 CALLDATASIZE SUB DUP2 ADD SWAP1 PUSH2 0x134 SWAP2 SWAP1 PUSH2 0xD91 JUMP JUMPDEST PUSH2 0x43E JUMP JUMPDEST PUSH1 0x40 MLOAD PUSH2 0x149 SWAP5 SWAP4 SWAP3 SWAP2 SWAP1 PUSH2 0xDD6 JUMP JUMPDEST PUSH1 0x40 MLOAD DUP1 SWAP2 SUB SWAP1 RETURN JUMPDEST PUSH2 0x15A PUSH2 0x4E7 JUMP JUMPDEST PUSH1 0x40 MLOAD PUSH2 0x167 SWAP2 SWAP1 PUSH2 0xCAA JUMP JUMPDEST PUSH1 0x40 MLOAD DUP1 SWAP2 SUB SWAP1 RETURN JUMPDEST PUSH2 0x18A PUSH1 0x4 DUP1 CALLDATASIZE SUB DUP2 ADD SWAP1 PUSH2 0x185 SWAP2 SWAP1 PUSH2 0xD91 JUMP JUMPDEST PUSH2 0x4ED JUMP JUMPDEST PUSH1 0x40 MLOAD PUSH2 0x19A SWAP5 SWAP4 SWAP3 SWAP2 SWAP1 PUSH2 0xDD6 JUMP JUMPDEST PUSH1 0x40 MLOAD DUP1 SWAP2 SUB SWAP1 RETURN JUMPDEST PUSH2 0x1AB PUSH2 0x525 JUMP JUMPDEST PUSH1 0x40 MLOAD PUSH2 0x1B8 SWAP2 SWAP1 PUSH2 0xCAA JUMP JUMPDEST PUSH1 0x40 MLOAD DUP1 SWAP2 SUB SWAP1 RETURN JUMPDEST PUSH2 0x1DB PUSH1 0x4 DUP1 CALLDATASIZE SUB DUP2 ADD SWAP1 PUSH2 0x1D6 SWAP2 SWAP1 PUSH2 0xD91 JUMP JUMPDEST PUSH2 0x532 JUMP JUMPDEST PUSH1 0x40 MLOAD PUSH2 0x1E8 SWAP2 SWAP1 PUSH2 0xE19 JUMP JUMPDEST PUSH1 0x40 MLOAD DUP1 SWAP2 SUB SWAP1 RETURN JUMPDEST PUSH2 0x1F9 PUSH2 0x587 JUMP JUMPDEST PUSH1 0x40 MLOAD PUSH2 0x206 SWAP2 SWAP1 PUSH2 0xD3D JUMP JUMPDEST PUSH1 0x40 MLOAD DUP1 SWAP2 SUB SWAP1 RETURN JUMPDEST PUSH2 0x217 PUSH2 0x5AC JUMP JUMPDEST STOP JUMPDEST DUP1 PUSH1 0x3 PUSH0 DUP3 DUP3 SLOAD PUSH2 0x22A SWAP2 SWAP1 PUSH2 0xE5F JUMP JUMPDEST SWAP3 POP POP DUP2 SWAP1 SSTORE POP DUP1 PUSH1 0x4 PUSH0 DUP3 DUP3 SLOAD PUSH2 0x242 SWAP2 SWAP1 PUSH2 0xE5F JUMP JUMPDEST SWAP3 POP POP DUP2 SWAP1 SSTORE POP PUSH2 0x297 CALLER ADDRESS DUP4 PUSH1 0x2 PUSH0 SWAP1 SLOAD SWAP1 PUSH2 0x100 EXP SWAP1 DIV PUSH20 0xFFFFFFFFFFFFFFFFFFFFFFFFFFFFFFFFFFFFFFFF AND PUSH20 0xFFFFFFFFFFFFFFFFFFFFFFFFFFFFFFFFFFFFFFFF AND PUSH2 0x828 SWAP1 SWAP4 SWAP3 SWAP2 SWAP1 PUSH4 0xFFFFFFFF AND JUMP JUMPDEST POP JUMP JUMPDEST PUSH2 0x2A2 PUSH2 0x8AA JUMP JUMPDEST PUSH0 PUSH1 0x5 PUSH0 CALLER PUSH20 0xFFFFFFFFFFFFFFFFFFFFFFFFFFFFFFFFFFFFFFFF AND PUSH20 0xFFFFFFFFFFFFFFFFFFFFFFFFFFFFFFFFFFFFFFFF AND DUP2 MSTORE PUSH1 0x20 ADD SWAP1 DUP2 MSTORE PUSH1 0x20 ADD PUSH0 KECCAK256 SWAP1 POP PUSH0 DUP2 PUSH0 ADD SLOAD EQ PUSH2 0x327 JUMPI PUSH1 0x40 MLOAD PUSH32 0x8C379A000000000000000000000000000000000000000000000000000000000 DUP2 MSTORE PUSH1 0x4 ADD PUSH2 0x31E SWAP1 PUSH2 0xEEC JUMP JUMPDEST PUSH1 0x40 MLOAD DUP1 SWAP2 SUB SWAP1 REVERT JUMPDEST DUP3 DUP2 PUSH0 ADD DUP2 SWAP1 SSTORE POP DUP2 DUP2 PUSH1 0x1 ADD DUP2 SWAP1 SSTORE POP TIMESTAMP DUP2 PUSH1 0x2 ADD DUP2 SWAP1 SSTORE POP PUSH9 0x3635C9ADC5DEA00000 DUP4 LT ISZERO DUP2 PUSH1 0x3 ADD PUSH0 PUSH2 0x100 EXP DUP2 SLOAD DUP2 PUSH1 0xFF MUL NOT AND SWAP1 DUP4 ISZERO ISZERO MUL OR SWAP1 SSTORE POP PUSH2 0x3B6 CALLER ADDRESS DUP6 PUSH1 0x1 PUSH0 SWAP1 SLOAD SWAP1 PUSH2 0x100 EXP SWAP1 DIV PUSH20 0xFFFFFFFFFFFFFFFFFFFFFFFFFFFFFFFFFFFFFFFF AND PUSH20 0xFFFFFFFFFFFFFFFFFFFFFFFFFFFFFFFFFFFFFFFF AND PUSH2 0x828 SWAP1 SWAP4 SWAP3 SWAP2 SWAP1 PUSH4 0xFFFFFFFF AND JUMP JUMPDEST CALLER PUSH20 0xFFFFFFFFFFFFFFFFFFFFFFFFFFFFFFFFFFFFFFFF AND PUSH32 0x5AF417134F72A9D41143ACE85B0A26DCE6F550F894F2CBC1EEEE8810603D91B6 DUP5 DUP5 PUSH1 0x40 MLOAD PUSH2 0x3FE SWAP3 SWAP2 SWAP1 PUSH2 0xF0A JUMP JUMPDEST PUSH1 0x40 MLOAD DUP1 SWAP2 SUB SWAP1 LOG2 POP PUSH2 0x40F PUSH2 0x8F7 JUMP JUMPDEST POP POP JUMP JUMPDEST PUSH1 0x4 SLOAD DUP2 JUMP JUMPDEST PUSH1 0x1 PUSH0 SWAP1 SLOAD SWAP1 PUSH2 0x100 EXP SWAP1 DIV PUSH20 0xFFFFFFFFFFFFFFFFFFFFFFFFFFFFFFFFFFFFFFFF AND DUP2 JUMP JUMPDEST PUSH0 PUSH0 PUSH0 PUSH0 PUSH0 PUSH1 0x5 PUSH0 DUP8 PUSH20 0xFFFFFFFFFFFFFFFFFFFFFFFFFFFFFFFFFFFFFFFF AND PUSH20 0xFFFFFFFFFFFFFFFFFFFFFFFFFFFFFFFFFFFFFFFF AND DUP2 MSTORE PUSH1 0x20 ADD SWAP1 DUP2 MSTORE PUSH1 0x20 ADD PUSH0 KECCAK256 PUSH1 0x40 MLOAD DUP1 PUSH1 0x80 ADD PUSH1 0x40 MSTORE SWAP1 DUP2 PUSH0 DUP3 ADD SLOAD DUP2 MSTORE PUSH1 0x20 ADD PUSH1 0x1 DUP3 ADD SLOAD DUP2 MSTORE PUSH1 0x20 ADD PUSH1 0x2 DUP3 ADD SLOAD DUP2 MSTORE PUSH1 0x20 ADD PUSH1 0x3 DUP3 ADD PUSH0 SWAP1 SLOAD SWAP1 PUSH2 0x100 EXP SWAP1 DIV PUSH1 0xFF AND ISZERO ISZERO ISZERO ISZERO DUP2 MSTORE POP POP SWAP1 POP DUP1 PUSH0 ADD MLOAD DUP2 PUSH1 0x20 ADD MLOAD DUP3 PUSH1 0x40 ADD MLOAD DUP4 PUSH1 0x60 ADD MLOAD SWAP5 POP SWAP5 POP SWAP5 POP SWAP5 POP POP SWAP2 SWAP4 POP SWAP2 SWAP4 JUMP JUMPDEST PUSH1 0x3 SLOAD DUP2 JUMP JUMPDEST PUSH1 0x5 PUSH1 0x20 MSTORE DUP1 PUSH0 MSTORE PUSH1 0x40 PUSH0 KECCAK256 PUSH0 SWAP2 POP SWAP1 POP DUP1 PUSH0 ADD SLOAD SWAP1 DUP1 PUSH1 0x1 ADD SLOAD SWAP1 DUP1 PUSH1 0x2 ADD SLOAD SWAP1 DUP1 PUSH1 0x3 ADD PUSH0 SWAP1 SLOAD SWAP1 PUSH2 0x100 EXP SWAP1 DIV PUSH1 0xFF AND SWAP1 POP DUP5 JUMP JUMPDEST PUSH9 0x3635C9ADC5DEA00000 DUP2 JUMP JUMPDEST PUSH0 PUSH1 0x5 PUSH0 DUP4 PUSH20 0xFFFFFFFFFFFFFFFFFFFFFFFFFFFFFFFFFFFFFFFF AND PUSH20 0xFFFFFFFFFFFFFFFFFFFFFFFFFFFFFFFFFFFFFFFF AND DUP2 MSTORE PUSH1 0x20 ADD SWAP1 DUP2 MSTORE PUSH1 0x20 ADD PUSH0 KECCAK256 PUSH1 0x3 ADD PUSH0 SWAP1 SLOAD SWAP1 PUSH2 0x100 EXP SWAP1 DIV PUSH1 0xFF AND SWAP1 POP SWAP2 SWAP1 POP JUMP JUMPDEST PUSH1 0x2 PUSH0 SWAP1 SLOAD SWAP1 PUSH2 0x100 EXP SWAP1 DIV PUSH20 0xFFFFFFFFFFFFFFFFFFFFFFFFFFFFFFFFFFFFFFFF AND DUP2 JUMP JUMPDEST PUSH2 0x5B4 PUSH2 0x8AA JUMP JUMPDEST PUSH0 PUSH1 0x5 PUSH0 CALLER PUSH20 0xFFFFFFFFFFFFFFFFFFFFFFFFFFFFFFFFFFFFFFFF AND PUSH20 0xFFFFFFFFFFFFFFFFFFFFFFFFFFFFFFFFFFFFFFFF AND DUP2 MSTORE PUSH1 0x20 ADD SWAP1 DUP2 MSTORE PUSH1 0x20 ADD PUSH0 KECCAK256 SWAP1 POP PUSH0 DUP2 PUSH0 ADD SLOAD GT PUSH2 0x639 JUMPI PUSH1 0x40 MLOAD PUSH32 0x8C379A000000000000000000000000000000000000000000000000000000000 DUP2 MSTORE PUSH1 0x4 ADD PUSH2 0x630 SWAP1 PUSH2 0xF7B JUMP JUMPDEST PUSH1 0x40 MLOAD DUP1 SWAP2 SUB SWAP1 REVERT JUMPDEST DUP1 PUSH1 0x1 ADD SLOAD DUP2 PUSH1 0x2 ADD SLOAD PUSH2 0x64D SWAP2 SWAP1 PUSH2 0xE5F JUMP JUMPDEST TIMESTAMP LT ISZERO PUSH2 0x68F JUMPI PUSH1 0x40 MLOAD PUSH32 0x8C379A000000000000000000000000000000000000000000000000000000000 DUP2 MSTORE PUSH1 0x4 ADD PUSH2 0x686 SWAP1 PUSH2 0xFE3 JUMP JUMPDEST PUSH1 0x40 MLOAD DUP1 SWAP2 SUB SWAP1 REVERT JUMPDEST PUSH0 PUSH2 0x6AC DUP3 PUSH0 ADD SLOAD DUP4 PUSH1 0x2 ADD SLOAD TIMESTAMP PUSH2 0x6A7 SWAP2 SWAP1 PUSH2 0x1001 JUMP JUMPDEST PUSH2 0x900 JUMP JUMPDEST SWAP1 POP DUP1 PUSH1 0x4 SLOAD LT ISZERO PUSH2 0x6F3 JUMPI PUSH1 0x40 MLOAD PUSH32 0x8C379A000000000000000000000000000000000000000000000000000000000 DUP2 MSTORE PUSH1 0x4 ADD PUSH2 0x6EA SWAP1 PUSH2 0x107E JUMP JUMPDEST PUSH1 0x40 MLOAD DUP1 SWAP2 SUB SWAP1 REVERT JUMPDEST PUSH2 0x742 CALLER DUP4 PUSH0 ADD SLOAD PUSH1 0x1 PUSH0 SWAP1 SLOAD SWAP1 PUSH2 0x100 EXP SWAP1 DIV PUSH20 0xFFFFFFFFFFFFFFFFFFFFFFFFFFFFFFFFFFFFFFFF AND PUSH20 0xFFFFFFFFFFFFFFFFFFFFFFFFFFFFFFFFFFFFFFFF AND PUSH2 0x938 SWAP1 SWAP3 SWAP2 SWAP1 PUSH4 0xFFFFFFFF AND JUMP JUMPDEST PUSH2 0x78E CALLER DUP3 PUSH1 0x2 PUSH0 SWAP1 SLOAD SWAP1 PUSH2 0x100 EXP SWAP1 DIV PUSH20 0xFFFFFFFFFFFFFFFFFFFFFFFFFFFFFFFFFFFFFFFF AND PUSH20 0xFFFFFFFFFFFFFFFFFFFFFFFFFFFFFFFFFFFFFFFF AND PUSH2 0x938 SWAP1 SWAP3 SWAP2 SWAP1 PUSH4 0xFFFFFFFF AND JUMP JUMPDEST DUP1 PUSH1 0x4 PUSH0 DUP3 DUP3 SLOAD PUSH2 0x79F SWAP2 SWAP1 PUSH2 0x1001 JUMP JUMPDEST SWAP3 POP POP DUP2 SWAP1 SSTORE POP CALLER PUSH20 0xFFFFFFFFFFFFFFFFFFFFFFFFFFFFFFFFFFFFFFFF AND PUSH32 0xF960DBF9E5D0682F7A298ED974E33A28B4464914B7A2BFAC12AE419A9AFEB280 DUP4 PUSH0 ADD SLOAD DUP4 PUSH1 0x40 MLOAD PUSH2 0x7F1 SWAP3 SWAP2 SWAP1 PUSH2 0xF0A JUMP JUMPDEST PUSH1 0x40 MLOAD DUP1 SWAP2 SUB SWAP1 LOG2 PUSH0 DUP3 PUSH0 ADD DUP2 SWAP1 SSTORE POP PUSH0 DUP3 PUSH1 0x3 ADD PUSH0 PUSH2 0x100 EXP DUP2 SLOAD DUP2 PUSH1 0xFF MUL NOT AND SWAP1 DUP4 ISZERO ISZERO MUL OR SWAP1 SSTORE POP POP POP PUSH2 0x826 PUSH2 0x8F7 JUMP JUMPDEST JUMP JUMPDEST PUSH2 0x8A4 DUP5 DUP6 PUSH20 0xFFFFFFFFFFFFFFFFFFFFFFFFFFFFFFFFFFFFFFFF AND PUSH4 0x23B872DD DUP7 DUP7 DUP7 PUSH1 0x40 MLOAD PUSH1 0x24 ADD PUSH2 0x85D SWAP4 SWAP3 SWAP2 SWAP1 PUSH2 0x10AB JUMP JUMPDEST PUSH1 0x40 MLOAD PUSH1 0x20 DUP2 DUP4 SUB SUB DUP2 MSTORE SWAP1 PUSH1 0x40 MSTORE SWAP2 POP PUSH1 0xE0 SHL PUSH1 0x20 DUP3 ADD DUP1 MLOAD PUSH28 0xFFFFFFFFFFFFFFFFFFFFFFFFFFFFFFFFFFFFFFFFFFFFFFFFFFFFFFFF DUP4 DUP2 DUP4 AND OR DUP4 MSTORE POP POP POP POP PUSH2 0x9B7 JUMP JUMPDEST POP POP POP POP JUMP JUMPDEST PUSH1 0x2 PUSH0 SLOAD SUB PUSH2 0x8EE JUMPI PUSH1 0x40 MLOAD PUSH32 0x8C379A000000000000000000000000000000000000000000000000000000000 DUP2 MSTORE PUSH1 0x4 ADD PUSH2 0x8E5 SWAP1 PUSH2 0x112A JUMP JUMPDEST PUSH1 0x40 MLOAD DUP1 SWAP2 SUB SWAP1 REVERT JUMPDEST PUSH1 0x2 PUSH0 DUP2 SWAP1 SSTORE POP JUMP JUMPDEST PUSH1 0x1 PUSH0 DUP2 SWAP1 SSTORE POP JUMP JUMPDEST PUSH0 PUSH0 PUSH3 0x278D00 DUP4 DUP6 PUSH2 0x912 SWAP2 SWAP1 PUSH2 0x1148 JUMP JUMPDEST PUSH2 0x91C SWAP2 SWAP1 PUSH2 0x11B6 JUMP JUMPDEST SWAP1 POP PUSH1 0x4 SLOAD DUP2 GT ISZERO PUSH2 0x92E JUMPI PUSH1 0x4 SLOAD SWAP1 POP JUMPDEST DUP1 SWAP2 POP POP SWAP3 SWAP2 POP POP JUMP JUMPDEST PUSH2 0x9B2 DUP4 DUP5 PUSH20 0xFFFFFFFFFFFFFFFFFFFFFFFFFFFFFFFFFFFFFFFF AND PUSH4 0xA9059CBB DUP6 DUP6 PUSH1 0x40 MLOAD PUSH1 0x24 ADD PUSH2 0x96B SWAP3 SWAP2 SWAP1 PUSH2 0x11E6 JUMP JUMPDEST PUSH1 0x40 MLOAD PUSH1 0x20 DUP2 DUP4 SUB SUB DUP2 MSTORE SWAP1 PUSH1 0x40 MSTORE SWAP2 POP PUSH1 0xE0 SHL PUSH1 0x20 DUP3 ADD DUP1 MLOAD PUSH28 0xFFFFFFFFFFFFFFFFFFFFFFFFFFFFFFFFFFFFFFFFFFFFFFFFFFFFFFFF DUP4 DUP2 DUP4 AND OR DUP4 MSTORE POP POP POP POP PUSH2 0x9B7 JUMP JUMPDEST POP POP POP JUMP JUMPDEST PUSH0 PUSH2 0x9E1 DUP3 DUP5 PUSH20 0xFFFFFFFFFFFFFFFFFFFFFFFFFFFFFFFFFFFFFFFF AND PUSH2 0xA4C SWAP1 SWAP2 SWAP1 PUSH4 0xFFFFFFFF AND JUMP JUMPDEST SWAP1 POP PUSH0 DUP2 MLOAD EQ ISZERO DUP1 ISZERO PUSH2 0xA05 JUMPI POP DUP1 DUP1 PUSH1 0x20 ADD SWAP1 MLOAD DUP2 ADD SWAP1 PUSH2 0xA03 SWAP2 SWAP1 PUSH2 0x1237 JUMP JUMPDEST ISZERO JUMPDEST ISZERO PUSH2 0xA47 JUMPI DUP3 PUSH1 0x40 MLOAD PUSH32 0x5274AFE700000000000000000000000000000000000000000000000000000000 DUP2 MSTORE PUSH1 0x4 ADD PUSH2 0xA3E SWAP2 SWAP1 PUSH2 0x1262 JUMP JUMPDEST PUSH1 0x40 MLOAD DUP1 SWAP2 SUB SWAP1 REVERT JUMPDEST POP POP POP JUMP JUMPDEST PUSH1 0x60 PUSH2 0xA59 DUP4 DUP4 PUSH0 PUSH2 0xA61 JUMP JUMPDEST SWAP1 POP SWAP3 SWAP2 POP POP JUMP JUMPDEST PUSH1 0x60 DUP2 SELFBALANCE LT ISZERO PUSH2 0xAA8 JUMPI ADDRESS PUSH1 0x40 MLOAD PUSH32 0xCD78605900000000000000000000000000000000000000000000000000000000 DUP2 MSTORE PUSH1 0x4 ADD PUSH2 0xA9F SWAP2 SWAP1 PUSH2 0x1262 JUMP JUMPDEST PUSH1 0x40 MLOAD DUP1 SWAP2 SUB SWAP1 REVERT JUMPDEST PUSH0 PUSH0 DUP6 PUSH20 0xFFFFFFFFFFFFFFFFFFFFFFFFFFFFFFFFFFFFFFFF AND DUP5 DUP7 PUSH1 0x40 MLOAD PUSH2 0xAD0 SWAP2 SWAP1 PUSH2 0x12CD JUMP JUMPDEST PUSH0 PUSH1 0x40 MLOAD DUP1 DUP4 SUB DUP2 DUP6 DUP8 GAS CALL SWAP3 POP POP POP RETURNDATASIZE DUP1 PUSH0 DUP2 EQ PUSH2 0xB0A JUMPI PUSH1 0x40 MLOAD SWAP2 POP PUSH1 0x1F NOT PUSH1 0x3F RETURNDATASIZE ADD AND DUP3 ADD PUSH1 0x40 MSTORE RETURNDATASIZE DUP3 MSTORE RETURNDATASIZE PUSH0 PUSH1 0x20 DUP5 ADD RETURNDATACOPY PUSH2 0xB0F JUMP JUMPDEST PUSH1 0x60 SWAP2 POP JUMPDEST POP SWAP2 POP SWAP2 POP PUSH2 0xB1F DUP7 DUP4 DUP4 PUSH2 0xB2A JUMP JUMPDEST SWAP3 POP POP POP SWAP4 SWAP3 POP POP POP JUMP JUMPDEST PUSH1 0x60 DUP3 PUSH2 0xB3F JUMPI PUSH2 0xB3A DUP3 PUSH2 0xBB7 JUMP JUMPDEST PUSH2 0xBAF JUMP JUMPDEST PUSH0 DUP3 MLOAD EQ DUP1 ISZERO PUSH2 0xB65 JUMPI POP PUSH0 DUP5 PUSH20 0xFFFFFFFFFFFFFFFFFFFFFFFFFFFFFFFFFFFFFFFF AND EXTCODESIZE EQ JUMPDEST ISZERO PUSH2 0xBA7 JUMPI DUP4 PUSH1 0x40 MLOAD PUSH32 0x9996B31500000000000000000000000000000000000000000000000000000000 DUP2 MSTORE PUSH1 0x4 ADD PUSH2 0xB9E SWAP2 SWAP1 PUSH2 0x1262 JUMP JUMPDEST PUSH1 0x40 MLOAD DUP1 SWAP2 SUB SWAP1 REVERT JUMPDEST DUP2 SWAP1 POP PUSH2 0xBB0 JUMP JUMPDEST JUMPDEST SWAP4 SWAP3 POP POP POP JUMP JUMPDEST PUSH0 DUP2 MLOAD GT ISZERO PUSH2 0xBC9 JUMPI DUP1 MLOAD DUP1 DUP3 PUSH1 0x20 ADD REVERT JUMPDEST PUSH1 0x40 MLOAD PUSH32 0x1425EA4200000000000000000000000000000000000000000000000000000000 DUP2 MSTORE PUSH1 0x4 ADD PUSH1 0x40 MLOAD DUP1 SWAP2 SUB SWAP1 REVERT JUMPDEST PUSH0 PUSH0 REVERT JUMPDEST PUSH0 DUP2 SWAP1 POP SWAP2 SWAP1 POP JUMP JUMPDEST PUSH2 0xC11 DUP2 PUSH2 0xBFF JUMP JUMPDEST DUP2 EQ PUSH2 0xC1B JUMPI PUSH0 PUSH0 REVERT JUMPDEST POP JUMP JUMPDEST PUSH0 DUP2 CALLDATALOAD SWAP1 POP PUSH2 0xC2C DUP2 PUSH2 0xC08 JUMP JUMPDEST SWAP3 SWAP2 POP POP JUMP JUMPDEST PUSH0 PUSH1 0x20 DUP3 DUP5 SUB SLT ISZERO PUSH2 0xC47 JUMPI PUSH2 0xC46 PUSH2 0xBFB JUMP JUMPDEST JUMPDEST PUSH0 PUSH2 0xC54 DUP5 DUP3 DUP6 ADD PUSH2 0xC1E JUMP JUMPDEST SWAP2 POP POP SWAP3 SWAP2 POP POP JUMP JUMPDEST PUSH0 PUSH0 PUSH1 0x40 DUP4 DUP6 SUB SLT ISZERO PUSH2 0xC73 JUMPI PUSH2 0xC72 PUSH2 0xBFB JUMP JUMPDEST JUMPDEST PUSH0 PUSH2 0xC80 DUP6 DUP3 DUP7 ADD PUSH2 0xC1E JUMP JUMPDEST SWAP3 POP POP PUSH1 0x20 PUSH2 0xC91 DUP6 DUP3 DUP7 ADD PUSH2 0xC1E JUMP JUMPDEST SWAP2 POP POP SWAP3 POP SWAP3 SWAP1 POP JUMP JUMPDEST PUSH2 0xCA4 DUP2 PUSH2 0xBFF JUMP JUMPDEST DUP3 MSTORE POP POP JUMP JUMPDEST PUSH0 PUSH1 0x20 DUP3 ADD SWAP1 POP PUSH2 0xCBD PUSH0 DUP4 ADD DUP5 PUSH2 0xC9B JUMP JUMPDEST SWAP3 SWAP2 POP POP JUMP JUMPDEST PUSH0 PUSH20 0xFFFFFFFFFFFFFFFFFFFFFFFFFFFFFFFFFFFFFFFF DUP3 AND SWAP1 POP SWAP2 SWAP1 POP JUMP JUMPDEST PUSH0 DUP2 SWAP1 POP SWAP2 SWAP1 POP JUMP JUMPDEST PUSH0 PUSH2 0xD05 PUSH2 0xD00 PUSH2 0xCFB DUP5 PUSH2 0xCC3 JUMP JUMPDEST PUSH2 0xCE2 JUMP JUMPDEST PUSH2 0xCC3 JUMP JUMPDEST SWAP1 POP SWAP2 SWAP1 POP JUMP JUMPDEST PUSH0 PUSH2 0xD16 DUP3 PUSH2 0xCEB JUMP JUMPDEST SWAP1 POP SWAP2 SWAP1 POP JUMP JUMPDEST PUSH0 PUSH2 0xD27 DUP3 PUSH2 0xD0C JUMP JUMPDEST SWAP1 POP SWAP2 SWAP1 POP JUMP JUMPDEST PUSH2 0xD37 DUP2 PUSH2 0xD1D JUMP JUMPDEST DUP3 MSTORE POP POP JUMP JUMPDEST PUSH0 PUSH1 0x20 DUP3 ADD SWAP1 POP PUSH2 0xD50 PUSH0 DUP4 ADD DUP5 PUSH2 0xD2E JUMP JUMPDEST SWAP3 SWAP2 POP POP JUMP JUMPDEST PUSH0 PUSH2 0xD60 DUP3 PUSH2 0xCC3 JUMP JUMPDEST SWAP1 POP SWAP2 SWAP1 POP JUMP JUMPDEST PUSH2 0xD70 DUP2 PUSH2 0xD56 JUMP JUMPDEST DUP2 EQ PUSH2 0xD7A JUMPI PUSH0 PUSH0 REVERT JUMPDEST POP JUMP JUMPDEST PUSH0 DUP2 CALLDATALOAD SWAP1 POP PUSH2 0xD8B DUP2 PUSH2 0xD67 JUMP JUMPDEST SWAP3 SWAP2 POP POP JUMP JUMPDEST PUSH0 PUSH1 0x20 DUP3 DUP5 SUB SLT ISZERO PUSH2 0xDA6 JUMPI PUSH2 0xDA5 PUSH2 0xBFB JUMP JUMPDEST JUMPDEST PUSH0 PUSH2 0xDB3 DUP5 DUP3 DUP6 ADD PUSH2 0xD7D JUMP JUMPDEST SWAP2 POP POP SWAP3 SWAP2 POP POP JUMP JUMPDEST PUSH0 DUP2 ISZERO ISZERO SWAP1 POP SWAP2 SWAP1 POP JUMP JUMPDEST PUSH2 0xDD0 DUP2 PUSH2 0xDBC JUMP JUMPDEST DUP3 MSTORE POP POP JUMP JUMPDEST PUSH0 PUSH1 0x80 DUP3 ADD SWAP1 POP PUSH2 0xDE9 PUSH0 DUP4 ADD DUP8 PUSH2 0xC9B JUMP JUMPDEST PUSH2 0xDF6 PUSH1 0x20 DUP4 ADD DUP7 PUSH2 0xC9B JUMP JUMPDEST PUSH2 0xE03 PUSH1 0x40 DUP4 ADD DUP6 PUSH2 0xC9B JUMP JUMPDEST PUSH2 0xE10 PUSH1 0x60 DUP4 ADD DUP5 PUSH2 0xDC7 JUMP JUMPDEST SWAP6 SWAP5 POP POP POP POP POP JUMP JUMPDEST PUSH0 PUSH1 0x20 DUP3 ADD SWAP1 POP PUSH2 0xE2C PUSH0 DUP4 ADD DUP5 PUSH2 0xDC7 JUMP JUMPDEST SWAP3 SWAP2 POP POP JUMP JUMPDEST PUSH32 0x4E487B7100000000000000000000000000000000000000000000000000000000 PUSH0 MSTORE PUSH1 0x11 PUSH1 0x4 MSTORE PUSH1 0x24 PUSH0 REVERT JUMPDEST PUSH0 PUSH2 0xE69 DUP3 PUSH2 0xBFF JUMP JUMPDEST SWAP2 POP PUSH2 0xE74 DUP4 PUSH2 0xBFF JUMP JUMPDEST SWAP3 POP DUP3 DUP3 ADD SWAP1 POP DUP1 DUP3 GT ISZERO PUSH2 0xE8C JUMPI PUSH2 0xE8B PUSH2 0xE32 JUMP JUMPDEST JUMPDEST SWAP3 SWAP2 POP POP JUMP JUMPDEST PUSH0 DUP3 DUP3 MSTORE PUSH1 0x20 DUP3 ADD SWAP1 POP SWAP3 SWAP2 POP POP JUMP JUMPDEST PUSH32 0x416C7265616479207374616B6564000000000000000000000000000000000000 PUSH0 DUP3 ADD MSTORE POP JUMP JUMPDEST PUSH0 PUSH2 0xED6 PUSH1 0xE DUP4 PUSH2 0xE92 JUMP JUMPDEST SWAP2 POP PUSH2 0xEE1 DUP3 PUSH2 0xEA2 JUMP JUMPDEST PUSH1 0x20 DUP3 ADD SWAP1 POP SWAP2 SWAP1 POP JUMP JUMPDEST PUSH0 PUSH1 0x20 DUP3 ADD SWAP1 POP DUP2 DUP2 SUB PUSH0 DUP4 ADD MSTORE PUSH2 0xF03 DUP2 PUSH2 0xECA JUMP JUMPDEST SWAP1 POP SWAP2 SWAP1 POP JUMP JUMPDEST PUSH0 PUSH1 0x40 DUP3 ADD SWAP1 POP PUSH2 0xF1D PUSH0 DUP4 ADD DUP6 PUSH2 0xC9B JUMP JUMPDEST PUSH2 0xF2A PUSH1 0x20 DUP4 ADD DUP5 PUSH2 0xC9B JUMP JUMPDEST SWAP4 SWAP3 POP POP POP JUMP JUMPDEST PUSH32 0x4E6F20746F6B656E73207374616B656400000000000000000000000000000000 PUSH0 DUP3 ADD MSTORE POP JUMP JUMPDEST PUSH0 PUSH2 0xF65 PUSH1 0x10 DUP4 PUSH2 0xE92 JUMP JUMPDEST SWAP2 POP PUSH2 0xF70 DUP3 PUSH2 0xF31 JUMP JUMPDEST PUSH1 0x20 DUP3 ADD SWAP1 POP SWAP2 SWAP1 POP JUMP JUMPDEST PUSH0 PUSH1 0x20 DUP3 ADD SWAP1 POP DUP2 DUP2 SUB PUSH0 DUP4 ADD MSTORE PUSH2 0xF92 DUP2 PUSH2 0xF59 JUMP JUMPDEST SWAP1 POP SWAP2 SWAP1 POP JUMP JUMPDEST PUSH32 0x5374616B696E6720706572696F64206E6F7420636F6D706C6574650000000000 PUSH0 DUP3 ADD MSTORE POP JUMP JUMPDEST PUSH0 PUSH2 0xFCD PUSH1 0x1B DUP4 PUSH2 0xE92 JUMP JUMPDEST SWAP2 POP PUSH2 0xFD8 DUP3 PUSH2 0xF99 JUMP JUMPDEST PUSH1 0x20 DUP3 ADD SWAP1 POP SWAP2 SWAP1 POP JUMP JUMPDEST PUSH0 PUSH1 0x20 DUP3 ADD SWAP1 POP DUP2 DUP2 SUB PUSH0 DUP4 ADD MSTORE PUSH2 0xFFA DUP2 PUSH2 0xFC1 JUMP JUMPDEST SWAP1 POP SWAP2 SWAP1 POP JUMP JUMPDEST PUSH0 PUSH2 0x100B DUP3 PUSH2 0xBFF JUMP JUMPDEST SWAP2 POP PUSH2 0x1016 DUP4 PUSH2 0xBFF JUMP JUMPDEST SWAP3 POP DUP3 DUP3 SUB SWAP1 POP DUP2 DUP2 GT ISZERO PUSH2 0x102E JUMPI PUSH2 0x102D PUSH2 0xE32 JUMP JUMPDEST JUMPDEST SWAP3 SWAP2 POP POP JUMP JUMPDEST PUSH32 0x496E73756666696369656E742072657761726420706F6F6C0000000000000000 PUSH0 DUP3 ADD MSTORE POP JUMP JUMPDEST PUSH0 PUSH2 0x1068 PUSH1 0x18 DUP4 PUSH2 0xE92 JUMP JUMPDEST SWAP2 POP PUSH2 0x1073 DUP3 PUSH2 0x1034 JUMP JUMPDEST PUSH1 0x20 DUP3 ADD SWAP1 POP SWAP2 SWAP1 POP JUMP JUMPDEST PUSH0 PUSH1 0x20 DUP3 ADD SWAP1 POP DUP2 DUP2 SUB PUSH0 DUP4 ADD MSTORE PUSH2 0x1095 DUP2 PUSH2 0x105C JUMP JUMPDEST SWAP1 POP SWAP2 SWAP1 POP JUMP JUMPDEST PUSH2 0x10A5 DUP2 PUSH2 0xD56 JUMP JUMPDEST DUP3 MSTORE POP POP JUMP JUMPDEST PUSH0 PUSH1 0x60 DUP3 ADD SWAP1 POP PUSH2 0x10BE PUSH0 DUP4 ADD DUP7 PUSH2 0x109C JUMP JUMPDEST PUSH2 0x10CB PUSH1 0x20 DUP4 ADD DUP6 PUSH2 0x109C JUMP JUMPDEST PUSH2 0x10D8 PUSH1 0x40 DUP4 ADD DUP5 PUSH2 0xC9B JUMP JUMPDEST SWAP5 SWAP4 POP POP POP POP JUMP JUMPDEST PUSH32 0x5265656E7472616E637947756172643A207265656E7472616E742063616C6C00 PUSH0 DUP3 ADD MSTORE POP JUMP JUMPDEST PUSH0 PUSH2 0x1114 PUSH1 0x1F DUP4 PUSH2 0xE92 JUMP JUMPDEST SWAP2 POP PUSH2 0x111F DUP3 PUSH2 0x10E0 JUMP JUMPDEST PUSH1 0x20 DUP3 ADD SWAP1 POP SWAP2 SWAP1 POP JUMP JUMPDEST PUSH0 PUSH1 0x20 DUP3 ADD SWAP1 POP DUP2 DUP2 SUB PUSH0 DUP4 ADD MSTORE PUSH2 0x1141 DUP2 PUSH2 0x1108 JUMP JUMPDEST SWAP1 POP SWAP2 SWAP1 POP JUMP JUMPDEST PUSH0 PUSH2 0x1152 DUP3 PUSH2 0xBFF JUMP JUMPDEST SWAP2 POP PUSH2 0x115D DUP4 PUSH2 0xBFF JUMP JUMPDEST SWAP3 POP DUP3 DUP3 MUL PUSH2 0x116B DUP2 PUSH2 0xBFF JUMP JUMPDEST SWAP2 POP DUP3 DUP3 DIV DUP5 EQ DUP4 ISZERO OR PUSH2 0x1182 JUMPI PUSH2 0x1181 PUSH2 0xE32 JUMP JUMPDEST JUMPDEST POP SWAP3 SWAP2 POP POP JUMP JUMPDEST PUSH32 0x4E487B7100000000000000000000000000000000000000000000000000000000 PUSH0 MSTORE PUSH1 0x12 PUSH1 0x4 MSTORE PUSH1 0x24 PUSH0 REVERT JUMPDEST PUSH0 PUSH2 0x11C0 DUP3 PUSH2 0xBFF JUMP JUMPDEST SWAP2 POP PUSH2 0x11CB DUP4 PUSH2 0xBFF JUMP JUMPDEST SWAP3 POP DUP3 PUSH2 0x11DB JUMPI PUSH2 0x11DA PUSH2 0x1189 JUMP JUMPDEST JUMPDEST DUP3 DUP3 DIV SWAP1 POP SWAP3 SWAP2 POP POP JUMP JUMPDEST PUSH0 PUSH1 0x40 DUP3 ADD SWAP1 POP PUSH2 0x11F9 PUSH0 DUP4 ADD DUP6 PUSH2 0x109C JUMP JUMPDEST PUSH2 0x1206 PUSH1 0x20 DUP4 ADD DUP5 PUSH2 0xC9B JUMP JUMPDEST SWAP4 SWAP3 POP POP POP JUMP JUMPDEST PUSH2 0x1216 DUP2 PUSH2 0xDBC JUMP JUMPDEST DUP2 EQ PUSH2 0x1220 JUMPI PUSH0 PUSH0 REVERT JUMPDEST POP JUMP JUMPDEST PUSH0 DUP2 MLOAD SWAP1 POP PUSH2 0x1231 DUP2 PUSH2 0x120D JUMP JUMPDEST SWAP3 SWAP2 POP POP JUMP JUMPDEST PUSH0 PUSH1 0x20 DUP3 DUP5 SUB SLT ISZERO PUSH2 0x124C JUMPI PUSH2 0x124B PUSH2 0xBFB JUMP JUMPDEST JUMPDEST PUSH0 PUSH2 0x1259 DUP5 DUP3 DUP6 ADD PUSH2 0x1223 JUMP JUMPDEST SWAP2 POP POP SWAP3 SWAP2 POP POP JUMP JUMPDEST PUSH0 PUSH1 0x20 DUP3 ADD SWAP1 POP PUSH2 0x1275 PUSH0 DUP4 ADD DUP5 PUSH2 0x109C JUMP JUMPDEST SWAP3 SWAP2 POP POP JUMP JUMPDEST PUSH0 DUP2 MLOAD SWAP1 POP SWAP2 SWAP1 POP JUMP JUMPDEST PUSH0 DUP2 SWAP1 POP SWAP3 SWAP2 POP POP JUMP JUMPDEST DUP3 DUP2 DUP4 MCOPY PUSH0 DUP4 DUP4 ADD MSTORE POP POP POP JUMP JUMPDEST PUSH0 PUSH2 0x12A7 DUP3 PUSH2 0x127B JUMP JUMPDEST PUSH2 0x12B1 DUP2 DUP6 PUSH2 0x1285 JUMP JUMPDEST SWAP4 POP PUSH2 0x12C1 DUP2 DUP6 PUSH1 0x20 DUP7 ADD PUSH2 0x128F JUMP JUMPDEST DUP1 DUP5 ADD SWAP2 POP POP SWAP3 SWAP2 POP POP JUMP JUMPDEST PUSH0 PUSH2 0x12D8 DUP3 DUP5 PUSH2 0x129D JUMP JUMPDEST SWAP2 POP DUP2 SWAP1 POP SWAP3 SWAP2 POP POP JUMP INVALID LOG2 PUSH5 0x6970667358 0x22 SLT KECCAK256 ADDMOD DUP16 MSIZE PUSH11 0x1CA9CE215CEDCD8A0BBDE6 ADD PUSH25 0x13C39ABA47F7D652D4E4F3051EAD4264736F6C634300081B00 CALLER "
				},
				"gasEstimates": {
					"creation": {
						"codeDepositCost": "977800",
						"executionCost": "infinite",
						"totalCost": "infinite"
					},
					"external": {
						"PREMIUM_THRESHOLD()": "369",
						"availableReward()": "2470",
						"fundRewardPool(uint256)": "infinite",
						"getStakerInfo(address)": "infinite",
						"hasPremiumAccess(address)": "2942",
						"rewardToken()": "infinite",
						"stakeTokens(uint256,uint256)": "infinite",
						"stakers(address)": "infinite",
						"stakingToken()": "infinite",
						"totalReward()": "2425",
						"unstakeAndClaim()": "infinite"
					},
					"internal": {
						"calculateReward(uint256,uint256)": "infinite"
					}
				},
				"methodIdentifiers": {
					"PREMIUM_THRESHOLD()": "9af01c2d",
					"availableReward()": "4ad84b34",
					"fundRewardPool(uint256)": "1d583e0d",
					"getStakerInfo(address)": "733bdef0",
					"hasPremiumAccess(address)": "a67e12a8",
					"rewardToken()": "f7c618c1",
					"stakeTokens(uint256,uint256)": "3b7b6188",
					"stakers(address)": "9168ae72",
					"stakingToken()": "72f702f3",
					"totalReward()": "750142e6",
					"unstakeAndClaim()": "f985021a"
				}
			},
			"storageLayout": {
				"storage": [
					{
						"astId": 10,
						"contract": "contracts/StakingAirdrop.sol:StakingAirdrop",
						"label": "_status",
						"offset": 0,
						"slot": "0",
						"type": "t_uint256"
					},
					{
						"astId": 736,
						"contract": "contracts/StakingAirdrop.sol:StakingAirdrop",
						"label": "stakingToken",
						"offset": 0,
						"slot": "1",
						"type": "t_contract(IERC20)142"
					},
					{
						"astId": 740,
						"contract": "contracts/StakingAirdrop.sol:StakingAirdrop",
						"label": "rewardToken",
						"offset": 0,
						"slot": "2",
						"type": "t_contract(IERC20)142"
					},
					{
						"astId": 743,
						"contract": "contracts/StakingAirdrop.sol:StakingAirdrop",
						"label": "totalReward",
						"offset": 0,
						"slot": "3",
						"type": "t_uint256"
					},
					{
						"astId": 746,
						"contract": "contracts/StakingAirdrop.sol:StakingAirdrop",
						"label": "availableReward",
						"offset": 0,
						"slot": "4",
						"type": "t_uint256"
					},
					{
						"astId": 768,
						"contract": "contracts/StakingAirdrop.sol:StakingAirdrop",
						"label": "stakers",
						"offset": 0,
						"slot": "5",
						"type": "t_mapping(t_address,t_struct(Staker)762_storage)"
					}
				],
				"types": {
					"t_address": {
						"encoding": "inplace",
						"label": "address",
						"numberOfBytes": "20"
					},
					"t_bool": {
						"encoding": "inplace",
						"label": "bool",
						"numberOfBytes": "1"
					},
					"t_contract(IERC20)142": {
						"encoding": "inplace",
						"label": "contract IERC20",
						"numberOfBytes": "20"
					},
					"t_mapping(t_address,t_struct(Staker)762_storage)": {
						"encoding": "mapping",
						"key": "t_address",
						"label": "mapping(address => struct StakingAirdrop.Staker)",
						"numberOfBytes": "32",
						"value": "t_struct(Staker)762_storage"
					},
					"t_struct(Staker)762_storage": {
						"encoding": "inplace",
						"label": "struct StakingAirdrop.Staker",
						"members": [
							{
								"astId": 755,
								"contract": "contracts/StakingAirdrop.sol:StakingAirdrop",
								"label": "amountStaked",
								"offset": 0,
								"slot": "0",
								"type": "t_uint256"
							},
							{
								"astId": 757,
								"contract": "contracts/StakingAirdrop.sol:StakingAirdrop",
								"label": "stakingPeriod",
								"offset": 0,
								"slot": "1",
								"type": "t_uint256"
							},
							{
								"astId": 759,
								"contract": "contracts/StakingAirdrop.sol:StakingAirdrop",
								"label": "startTime",
								"offset": 0,
								"slot": "2",
								"type": "t_uint256"
							},
							{
								"astId": 761,
								"contract": "contracts/StakingAirdrop.sol:StakingAirdrop",
								"label": "hasPremiumAccess",
								"offset": 0,
								"slot": "3",
								"type": "t_bool"
							}
						],
						"numberOfBytes": "128"
					},
					"t_uint256": {
						"encoding": "inplace",
						"label": "uint256",
						"numberOfBytes": "32"
					}
				}
			},
			"userdoc": {
				"events": {
					"Stake(address,uint256,uint256)": {
						"notice": "Event emitted when a user stakes tokens"
					},
					"Unstake(address,uint256,uint256)": {
						"notice": "Event emitted when a user unstakes tokens and claims rewards"
					}
				},
				"kind": "user",
				"methods": {
					"PREMIUM_THRESHOLD()": {
						"notice": "Minimum amount of tokens required for premium access"
					},
					"availableReward()": {
						"notice": "Available rewards remaining in the pool"
					},
					"fundRewardPool(uint256)": {
						"notice": "Fund the reward pool with reward tokens"
					},
					"getStakerInfo(address)": {
						"notice": "Get staker information for a specific user"
					},
					"hasPremiumAccess(address)": {
						"notice": "Check if a user has premium access based on their staked amount"
					},
					"rewardToken()": {
						"notice": "ERC20 token used for rewards"
					},
					"stakeTokens(uint256,uint256)": {
						"notice": "Stake tokens into the staking pool"
					},
					"stakers(address)": {
						"notice": "Mapping from user address to staker information"
					},
					"stakingToken()": {
						"notice": "ERC20 token used for staking"
					},
					"totalReward()": {
						"notice": "Total amount of rewards available in the pool"
					},
					"unstakeAndClaim()": {
						"notice": "Unstake tokens and claim rewards after the staking period ends"
					}
				},
				"version": 1
			}
		}
	}
}